{
  "address": "0x66680F83e6C45E1FB66d3e732279087384FB9E98",
  "abi": [
    {
      "inputs": [],
      "name": "ApprovalCallerNotOwnerNorApproved",
      "type": "error"
    },
    {
      "inputs": [],
      "name": "ApprovalQueryForNonexistentToken",
      "type": "error"
    },
    {
      "inputs": [],
      "name": "ApproveToCaller",
      "type": "error"
    },
    {
      "inputs": [],
      "name": "BalanceQueryForZeroAddress",
      "type": "error"
    },
    {
      "inputs": [],
      "name": "CanNotTransferAndBurn",
      "type": "error"
    },
    {
      "inputs": [
        {
          "internalType": "uint256",
          "name": "chainid",
          "type": "uint256"
        }
      ],
      "name": "ChainNotSupported",
      "type": "error"
    },
    {
      "inputs": [],
      "name": "ExistingProfile",
      "type": "error"
    },
    {
      "inputs": [],
      "name": "MintERC2309QuantityExceedsLimit",
      "type": "error"
    },
    {
      "inputs": [],
      "name": "MintToZeroAddress",
      "type": "error"
    },
    {
      "inputs": [],
      "name": "MintZeroQuantity",
      "type": "error"
    },
    {
      "inputs": [],
      "name": "OwnerQueryForNonexistentToken",
      "type": "error"
    },
    {
      "inputs": [],
      "name": "OwnershipNotInitializedForExtraData",
      "type": "error"
    },
    {
      "inputs": [],
      "name": "TransferCallerNotOwnerNorApproved",
      "type": "error"
    },
    {
      "inputs": [],
      "name": "TransferFromIncorrectOwner",
      "type": "error"
    },
    {
      "inputs": [],
      "name": "TransferToNonERC721ReceiverImplementer",
      "type": "error"
    },
    {
      "inputs": [],
      "name": "TransferToZeroAddress",
      "type": "error"
    },
    {
      "inputs": [],
      "name": "URIQueryForNonexistentToken",
      "type": "error"
    },
    {
      "anonymous": false,
      "inputs": [
        {
          "indexed": false,
          "internalType": "address",
          "name": "previousAdmin",
          "type": "address"
        },
        {
          "indexed": false,
          "internalType": "address",
          "name": "newAdmin",
          "type": "address"
        }
      ],
      "name": "AdminChanged",
      "type": "event"
    },
    {
      "anonymous": false,
      "inputs": [
        {
          "indexed": true,
          "internalType": "address",
          "name": "owner",
          "type": "address"
        },
        {
          "indexed": true,
          "internalType": "address",
          "name": "approved",
          "type": "address"
        },
        {
          "indexed": true,
          "internalType": "uint256",
          "name": "tokenId",
          "type": "uint256"
        }
      ],
      "name": "Approval",
      "type": "event"
    },
    {
      "anonymous": false,
      "inputs": [
        {
          "indexed": true,
          "internalType": "address",
          "name": "owner",
          "type": "address"
        },
        {
          "indexed": true,
          "internalType": "address",
          "name": "operator",
          "type": "address"
        },
        {
          "indexed": false,
          "internalType": "bool",
          "name": "approved",
          "type": "bool"
        }
      ],
      "name": "ApprovalForAll",
      "type": "event"
    },
    {
      "anonymous": false,
      "inputs": [
        {
          "indexed": true,
          "internalType": "address",
          "name": "beacon",
          "type": "address"
        }
      ],
      "name": "BeaconUpgraded",
      "type": "event"
    },
    {
      "anonymous": false,
      "inputs": [
        {
          "indexed": true,
          "internalType": "uint256",
          "name": "fromTokenId",
          "type": "uint256"
        },
        {
          "indexed": false,
          "internalType": "uint256",
          "name": "toTokenId",
          "type": "uint256"
        },
        {
          "indexed": true,
          "internalType": "address",
          "name": "from",
          "type": "address"
        },
        {
          "indexed": true,
          "internalType": "address",
          "name": "to",
          "type": "address"
        }
      ],
      "name": "ConsecutiveTransfer",
      "type": "event"
    },
    {
      "anonymous": false,
      "inputs": [
        {
          "indexed": false,
          "internalType": "uint8",
          "name": "version",
          "type": "uint8"
        }
      ],
      "name": "Initialized",
      "type": "event"
    },
    {
      "anonymous": false,
      "inputs": [
        {
          "indexed": true,
          "internalType": "uint256",
          "name": "tokenId",
          "type": "uint256"
        },
        {
          "indexed": false,
          "internalType": "string",
          "name": "name",
          "type": "string"
        },
        {
          "indexed": false,
          "internalType": "string",
          "name": "description",
          "type": "string"
        },
        {
          "indexed": false,
          "internalType": "string",
          "name": "image",
          "type": "string"
        },
        {
          "indexed": false,
          "internalType": "uint64",
          "name": "dateOfBirth",
          "type": "uint64"
        },
        {
          "indexed": true,
          "internalType": "uint8",
          "name": "gender",
          "type": "uint8"
        },
        {
          "indexed": true,
          "internalType": "uint8",
          "name": "sexOrientation",
          "type": "uint8"
        },
        {
          "indexed": false,
          "internalType": "uint64",
          "name": "insteretVector",
          "type": "uint64"
        }
      ],
      "name": "NewProfile",
      "type": "event"
    },
    {
      "anonymous": false,
      "inputs": [
        {
          "indexed": true,
          "internalType": "address",
          "name": "previousOwner",
          "type": "address"
        },
        {
          "indexed": true,
          "internalType": "address",
          "name": "newOwner",
          "type": "address"
        }
      ],
      "name": "OwnershipTransferred",
      "type": "event"
    },
    {
      "anonymous": false,
      "inputs": [
        {
          "indexed": true,
          "internalType": "address",
          "name": "from",
          "type": "address"
        },
        {
          "indexed": true,
          "internalType": "address",
          "name": "to",
          "type": "address"
        },
        {
          "indexed": true,
          "internalType": "uint256",
          "name": "tokenId",
          "type": "uint256"
        }
      ],
      "name": "Transfer",
      "type": "event"
    },
    {
      "anonymous": false,
      "inputs": [
        {
          "indexed": true,
          "internalType": "address",
          "name": "implementation",
          "type": "address"
        }
      ],
      "name": "Upgraded",
      "type": "event"
    },
    {
      "inputs": [
        {
          "internalType": "address",
          "name": "to",
          "type": "address"
        },
        {
          "internalType": "uint256",
          "name": "tokenId",
          "type": "uint256"
        }
      ],
      "name": "approve",
      "outputs": [],
      "stateMutability": "nonpayable",
      "type": "function"
    },
    {
      "inputs": [
        {
          "internalType": "address",
          "name": "owner",
          "type": "address"
        }
      ],
      "name": "balanceOf",
      "outputs": [
        {
          "internalType": "uint256",
          "name": "",
          "type": "uint256"
        }
      ],
      "stateMutability": "view",
      "type": "function"
    },
    {
      "inputs": [
        {
          "components": [
            {
              "internalType": "string",
              "name": "name",
              "type": "string"
            },
            {
              "internalType": "string",
              "name": "description",
              "type": "string"
            },
            {
              "internalType": "string",
              "name": "image",
              "type": "string"
            },
            {
              "internalType": "uint64",
              "name": "dateOfBirth",
              "type": "uint64"
            },
            {
              "internalType": "uint8",
              "name": "gender",
              "type": "uint8"
            },
            {
              "internalType": "uint8",
              "name": "sexOrientation",
              "type": "uint8"
            },
            {
              "internalType": "uint64",
              "name": "insteretVector",
              "type": "uint64"
            }
          ],
          "internalType": "struct Tind3rMembership.Tind3rProfile",
          "name": "userProfile",
          "type": "tuple"
        }
      ],
      "name": "createProfile",
      "outputs": [
        {
          "internalType": "uint256",
          "name": "",
          "type": "uint256"
        }
      ],
      "stateMutability": "nonpayable",
      "type": "function"
    },
    {
      "inputs": [
        {
          "internalType": "uint256",
          "name": "tokenId",
          "type": "uint256"
        }
      ],
      "name": "getApproved",
      "outputs": [
        {
          "internalType": "address",
          "name": "",
          "type": "address"
        }
      ],
      "stateMutability": "view",
      "type": "function"
    },
    {
      "inputs": [
        {
          "internalType": "string",
          "name": "initBaseURI",
          "type": "string"
        }
      ],
      "name": "initialize",
      "outputs": [],
      "stateMutability": "nonpayable",
      "type": "function"
    },
    {
      "inputs": [
        {
          "internalType": "address",
          "name": "owner",
          "type": "address"
        },
        {
          "internalType": "address",
          "name": "operator",
          "type": "address"
        }
      ],
      "name": "isApprovedForAll",
      "outputs": [
        {
          "internalType": "bool",
          "name": "",
          "type": "bool"
        }
      ],
      "stateMutability": "view",
      "type": "function"
    },
    {
      "inputs": [],
      "name": "name",
      "outputs": [
        {
          "internalType": "string",
          "name": "",
          "type": "string"
        }
      ],
      "stateMutability": "view",
      "type": "function"
    },
    {
      "inputs": [],
      "name": "owner",
      "outputs": [
        {
          "internalType": "address",
          "name": "",
          "type": "address"
        }
      ],
      "stateMutability": "view",
      "type": "function"
    },
    {
      "inputs": [
        {
          "internalType": "uint256",
          "name": "tokenId",
          "type": "uint256"
        }
      ],
      "name": "ownerOf",
      "outputs": [
        {
          "internalType": "address",
          "name": "",
          "type": "address"
        }
      ],
      "stateMutability": "view",
      "type": "function"
    },
    {
      "inputs": [],
      "name": "proxiableUUID",
      "outputs": [
        {
          "internalType": "bytes32",
          "name": "",
          "type": "bytes32"
        }
      ],
      "stateMutability": "view",
      "type": "function"
    },
    {
      "inputs": [],
      "name": "renounceOwnership",
      "outputs": [],
      "stateMutability": "nonpayable",
      "type": "function"
    },
    {
      "inputs": [
        {
          "internalType": "address",
          "name": "from",
          "type": "address"
        },
        {
          "internalType": "address",
          "name": "to",
          "type": "address"
        },
        {
          "internalType": "uint256",
          "name": "tokenId",
          "type": "uint256"
        }
      ],
      "name": "safeTransferFrom",
      "outputs": [],
      "stateMutability": "nonpayable",
      "type": "function"
    },
    {
      "inputs": [
        {
          "internalType": "address",
          "name": "from",
          "type": "address"
        },
        {
          "internalType": "address",
          "name": "to",
          "type": "address"
        },
        {
          "internalType": "uint256",
          "name": "tokenId",
          "type": "uint256"
        },
        {
          "internalType": "bytes",
          "name": "_data",
          "type": "bytes"
        }
      ],
      "name": "safeTransferFrom",
      "outputs": [],
      "stateMutability": "nonpayable",
      "type": "function"
    },
    {
      "inputs": [
        {
          "internalType": "address",
          "name": "operator",
          "type": "address"
        },
        {
          "internalType": "bool",
          "name": "approved",
          "type": "bool"
        }
      ],
      "name": "setApprovalForAll",
      "outputs": [],
      "stateMutability": "nonpayable",
      "type": "function"
    },
    {
      "inputs": [
        {
          "internalType": "string",
          "name": "baseURI",
          "type": "string"
        }
      ],
      "name": "setBaseURI",
      "outputs": [],
      "stateMutability": "nonpayable",
      "type": "function"
    },
    {
      "inputs": [
        {
          "internalType": "bytes4",
          "name": "interfaceId",
          "type": "bytes4"
        }
      ],
      "name": "supportsInterface",
      "outputs": [
        {
          "internalType": "bool",
          "name": "",
          "type": "bool"
        }
      ],
      "stateMutability": "view",
      "type": "function"
    },
    {
      "inputs": [],
      "name": "symbol",
      "outputs": [
        {
          "internalType": "string",
          "name": "",
          "type": "string"
        }
      ],
      "stateMutability": "view",
      "type": "function"
    },
    {
      "inputs": [
        {
          "internalType": "uint256",
          "name": "tokenId",
          "type": "uint256"
        }
      ],
      "name": "tokenURI",
      "outputs": [
        {
          "internalType": "string",
          "name": "",
          "type": "string"
        }
      ],
      "stateMutability": "view",
      "type": "function"
    },
    {
      "inputs": [],
      "name": "totalSupply",
      "outputs": [
        {
          "internalType": "uint256",
          "name": "",
          "type": "uint256"
        }
      ],
      "stateMutability": "view",
      "type": "function"
    },
    {
      "inputs": [
        {
          "internalType": "address",
          "name": "from",
          "type": "address"
        },
        {
          "internalType": "address",
          "name": "to",
          "type": "address"
        },
        {
          "internalType": "uint256",
          "name": "tokenId",
          "type": "uint256"
        }
      ],
      "name": "transferFrom",
      "outputs": [],
      "stateMutability": "nonpayable",
      "type": "function"
    },
    {
      "inputs": [
        {
          "internalType": "address",
          "name": "newOwner",
          "type": "address"
        }
      ],
      "name": "transferOwnership",
      "outputs": [],
      "stateMutability": "nonpayable",
      "type": "function"
    },
    {
      "inputs": [
        {
          "internalType": "address",
          "name": "newImplementation",
          "type": "address"
        }
      ],
      "name": "upgradeTo",
      "outputs": [],
      "stateMutability": "nonpayable",
      "type": "function"
    },
    {
      "inputs": [
        {
          "internalType": "address",
          "name": "newImplementation",
          "type": "address"
        },
        {
          "internalType": "bytes",
          "name": "data",
          "type": "bytes"
        }
      ],
      "name": "upgradeToAndCall",
      "outputs": [],
      "stateMutability": "payable",
      "type": "function"
    }
  ],
  "numDeployments": 4,
  "bytecode": "0x60a06040523060805234801561001457600080fd5b50608051612b5361004c600039600081816108370152818161088001528181610940015281816109800152610a130152612b536000f3fe6080604052600436106101405760003560e01c80636352211e116100b6578063a22cb4651161006f578063a22cb46514610369578063b88d4fde14610389578063c87b56dd146103a9578063e985e9c5146103c9578063f2fde38b146103e9578063f62d18881461040957600080fd5b80636352211e146102c157806370a08231146102e1578063715018a61461030157806376220382146103165780638da5cb5b1461033657806395d89b411461035457600080fd5b806323b872dd1161010857806323b872dd146102195780633659cfe61461023957806342842e0e146102595780634f1ef2861461027957806352d1902d1461028c57806355f804b3146102a157600080fd5b806301ffc9a71461014557806306fdde031461017a578063081812fc1461019c578063095ea7b3146101d457806318160ddd146101f6575b600080fd5b34801561015157600080fd5b50610165610160366004611f81565b610429565b60405190151581526020015b60405180910390f35b34801561018657600080fd5b5061018f61047b565b6040516101719190611ff6565b3480156101a857600080fd5b506101bc6101b7366004612009565b610516565b6040516001600160a01b039091168152602001610171565b3480156101e057600080fd5b506101f46101ef36600461203e565b610563565b005b34801561020257600080fd5b5061020b610611565b604051908152602001610171565b34801561022557600080fd5b506101f4610234366004612068565b610630565b34801561024557600080fd5b506101f46102543660046120a4565b61082c565b34801561026557600080fd5b506101f4610274366004612068565b610915565b6101f461028736600461216b565b610935565b34801561029857600080fd5b5061020b610a06565b3480156102ad57600080fd5b506101f46102bc3660046121b9565b610ab9565b3480156102cd57600080fd5b506101bc6102dc366004612009565b610ad4565b3480156102ed57600080fd5b5061020b6102fc3660046120a4565b610adf565b34801561030d57600080fd5b506101f4610b48565b34801561032257600080fd5b5061020b610331366004612202565b610b5c565b34801561034257600080fd5b506097546001600160a01b03166101bc565b34801561036057600080fd5b5061018f610d13565b34801561037557600080fd5b506101f461038436600461223d565b610d2b565b34801561039557600080fd5b506101f46103a4366004612279565b610dd2565b3480156103b557600080fd5b5061018f6103c4366004612009565b610e1c565b3480156103d557600080fd5b506101656103e43660046122e1565b610eca565b3480156103f557600080fd5b506101f46104043660046120a4565b610f07565b34801561041557600080fd5b506101f4610424366004612314565b610f7d565b60006301ffc9a760e01b6001600160e01b03198316148061045a57506380ac58cd60e01b6001600160e01b03198316145b806104755750635b5e139f60e01b6001600160e01b03198316145b92915050565b606061048561134b565b600201805461049390612386565b80601f01602080910402602001604051908101604052809291908181526020018280546104bf90612386565b801561050c5780601f106104e15761010080835404028352916020019161050c565b820191906000526020600020905b8154815290600101906020018083116104ef57829003601f168201915b5050505050905090565b60006105218261136f565b61053e576040516333d1c03960e21b815260040160405180910390fd5b61054661134b565b60009283526006016020525060409020546001600160a01b031690565b600061056e82610ad4565b9050336001600160a01b038216146105a75761058a8133610eca565b6105a7576040516367d9dca160e11b815260040160405180910390fd5b826105b061134b565b6000848152600691909101602052604080822080546001600160a01b0319166001600160a01b0394851617905551849286811692908516917f8c5be1e5ebec7d5bd14f71427d1e84f3dd0314c0f7b2291e5b200ac8c7c3b9259190a4505050565b60008061061c61134b565b6001015461062861134b565b540303919050565b600061063b826113ab565b9050836001600160a01b0316816001600160a01b03161461066e5760405162a1148160e81b815260040160405180910390fd5b60008061067a84611439565b9150915061069f818761068a3390565b6001600160a01b039081169116811491141790565b6106ca576106ad8633610eca565b6106ca57604051632ce44b5f60e11b815260040160405180910390fd5b6001600160a01b0385166106f157604051633a954ecd60e21b815260040160405180910390fd5b6106fe8686866001611461565b801561070957600082555b61071161134b565b6001600160a01b038716600090815260059190910160205260409020805460001901905561073d61134b565b6001600160a01b03861660008181526005929092016020526040909120805460010190554260a01b17600160e11b1761077461134b565b60008681526004919091016020526040902055600160e11b83166107e3576001840161079e61134b565b600082815260049190910160205260409020546107e1576107bd61134b565b5481146107e157836107cd61134b565b600083815260049190910160205260409020555b505b83856001600160a01b0316876001600160a01b03167fddf252ad1be2c89b69c2b068fc378daa952ba7f163c4a11628f55a4df523b3ef60405160405180910390a4505050505050565b306001600160a01b037f000000000000000000000000000000000000000000000000000000000000000016141561087e5760405162461bcd60e51b8152600401610875906123c1565b60405180910390fd5b7f00000000000000000000000000000000000000000000000000000000000000006001600160a01b03166108c7600080516020612ab7833981519152546001600160a01b031690565b6001600160a01b0316146108ed5760405162461bcd60e51b81526004016108759061240d565b6108f68161148e565b6040805160008082526020820190925261091291839190611496565b50565b61093083838360405180602001604052806000815250610dd2565b505050565b306001600160a01b037f000000000000000000000000000000000000000000000000000000000000000016141561097e5760405162461bcd60e51b8152600401610875906123c1565b7f00000000000000000000000000000000000000000000000000000000000000006001600160a01b03166109c7600080516020612ab7833981519152546001600160a01b031690565b6001600160a01b0316146109ed5760405162461bcd60e51b81526004016108759061240d565b6109f68261148e565b610a0282826001611496565b5050565b6000306001600160a01b037f00000000000000000000000000000000000000000000000000000000000000001614610aa65760405162461bcd60e51b815260206004820152603860248201527f555550535570677261646561626c653a206d757374206e6f742062652063616c60448201527f6c6564207468726f7567682064656c656761746563616c6c00000000000000006064820152608401610875565b50600080516020612ab783398151915290565b610ac1611601565b8051610a029060cc906020840190611e5e565b6000610475826113ab565b60006001600160a01b038216610b08576040516323d3ad8160e21b815260040160405180910390fd5b67ffffffffffffffff610b1961134b565b6005016000846001600160a01b03166001600160a01b0316815260200190815260200160002054169050919050565b610b50611601565b610b5a600061165b565b565b60003381610b6982610adf565b1115610b8857604051630fe51fef60e41b815260040160405180910390fd5b6000610b92610611565b60c95460cb549192506001600160a01b03169063eaf5d04e90309060ca610bb8866116ad565b610bc28a80612459565b610bcf60408d018d612459565b604051602001610be496959493929190612541565b6040516020818303038152906040526040518463ffffffff1660e01b8152600401610c11939291906125de565b600060405180830381600087803b158015610c2b57600080fd5b505af1158015610c3f573d6000803e3d6000fd5b50505050610c5e826001604051806020016040528060008152506117b3565b610c6e60c0850160a08601612605565b60ff16610c8160a0860160808701612605565b60ff16827fc8b12c52f02f5493decf70bac6e7397989adf05602627de7345dcb97bf2844a9610cb08880612459565b610cbd60208b018b612459565b610cca60408d018d612459565b8d6060016020810190610cdd9190612628565b8e60c0016020810190610cf09190612628565b604051610d0498979695949392919061267b565b60405180910390a49392505050565b6060610d1d61134b565b600301805461049390612386565b6001600160a01b038216331415610d555760405163b06307db60e01b815260040160405180910390fd5b80610d5e61134b565b336000818152600792909201602090815260408084206001600160a01b03881680865290835293819020805460ff19169515159590951790945592518415158152919290917f17307eab39ab6107e8899845ad3d59bd9653f200f220920489ca2b5937696c31910160405180910390a35050565b610ddd848484610630565b6001600160a01b0383163b15610e1657610df984848484611830565b610e16576040516368d2bf6b60e11b815260040160405180910390fd5b50505050565b6060610e278261136f565b610e4457604051630a14c4b560e41b815260040160405180910390fd5b6000610e4e611918565b9050805160001415610e70575050604080516020810190915260008152919050565b600060ca610e7d856116ad565b604051602001610e8e9291906126e1565b60405160208183030381529060405290508181604051602001610eb292919061279a565b60405160208183030381529060405292505050919050565b6000610ed461134b565b6001600160a01b039384166000908152600791909101602090815260408083209490951682529290925250205460ff1690565b610f0f611601565b6001600160a01b038116610f745760405162461bcd60e51b815260206004820152602660248201527f4f776e61626c653a206e6577206f776e657220697320746865207a65726f206160448201526564647265737360d01b6064820152608401610875565b6109128161165b565b600080516020612afe83398151915254610100900460ff16610fb257600080516020612afe8339815191525460ff1615610fb6565b303b155b6110285760405162461bcd60e51b815260206004820152603760248201527f455243373231415f5f496e697469616c697a61626c653a20636f6e747261637460448201527f20697320616c726561647920696e697469616c697a65640000000000000000006064820152608401610875565b600080516020612afe83398151915254610100900460ff1615801561106457600080516020612afe833981519152805461ffff19166101011790555b600054610100900460ff16158080156110845750600054600160ff909116105b8061109e5750303b15801561109e575060005460ff166001145b6111015760405162461bcd60e51b815260206004820152602e60248201527f496e697469616c697a61626c653a20636f6e747261637420697320616c72656160448201526d191e481a5b9a5d1a585b1a5e995960921b6064820152608401610875565b6000805460ff191660011790558015611124576000805461ff0019166101001790555b6111716040518060400160405280601081526020016f054696e6433724d656d626572736869760841b8152506040518060400160405280600381526020016254334d60e81b815250611927565b611179611965565b611181611994565b6111896119bb565b60c980546001600160a01b0319166001600160a01b039290921691909117905560006111b4466116ad565b60c95460408051808201825260068152653a34b73219b960d11b60208083019190915291519394506001600160a01b0390921692633a9151b09230926111fc928791016127c9565b6040516020818303038152906040526040518363ffffffff1660e01b8152600401611228929190612856565b6020604051808303816000875af1158015611247573d6000803e3d6000fd5b505050506040513d601f19601f8201168201806040525081019061126b919061287a565b60cb81905550604051806040016040528060068152602001653a34b73219b960d11b8152508161129c60cb546116ad565b6040516020016112ae93929190612893565b60405160208183030381529060405260ca90805190602001906112d2929190611e5e565b506112df60cc8686611ee2565b50508015611327576000805461ff0019169055604051600181527f7f26b83ff96e1f2b6a682f133852f6798a09c465da95921460cefb38474024989060200160405180910390a15b508015610930575050600080516020612afe833981519152805461ff001916905550565b7f2569078dfb4b0305704d3008e7403993ae9601b85f7ae5e742de3de8f8011c4090565b600061137961134b565b54821080156104755750600160e01b61139061134b565b60008481526004919091016020526040902054161592915050565b6000816113b661134b565b548110156114205760006113c861134b565b600083815260049190910160205260409020549050600160e01b811661141e575b80611417576113f661134b565b600019909201600081815260049390930160205260409092205490506113e9565b9392505050565b505b604051636f96cda160e11b815260040160405180910390fd5b600080600061144661134b565b60009485526006016020525050604090912080549092909150565b6001600160a01b0384161561148957604051635190099960e11b815260040160405180910390fd5b610e16565b610912611601565b7f4910fdfa16fed3260ed0e7147f7cc6da11a60208b5b9406d12a635614ffd91435460ff16156114c95761093083611a63565b826001600160a01b03166352d1902d6040518163ffffffff1660e01b8152600401602060405180830381865afa925050508015611523575060408051601f3d908101601f191682019092526115209181019061287a565b60015b6115865760405162461bcd60e51b815260206004820152602e60248201527f45524331393637557067726164653a206e657720696d706c656d656e7461746960448201526d6f6e206973206e6f74205555505360901b6064820152608401610875565b600080516020612ab783398151915281146115f55760405162461bcd60e51b815260206004820152602960248201527f45524331393637557067726164653a20756e737570706f727465642070726f786044820152681a58589b195555525160ba1b6064820152608401610875565b50610930838383611aff565b6097546001600160a01b03163314610b5a5760405162461bcd60e51b815260206004820181905260248201527f4f776e61626c653a2063616c6c6572206973206e6f7420746865206f776e65726044820152606401610875565b609780546001600160a01b038381166001600160a01b0319831681179093556040519116919082907f8be0079c531659141344cd1fd0a4f28419497f9722a3daafe3b4186f6b6457e090600090a35050565b6060816116d15750506040805180820190915260018152600360fc1b602082015290565b8160005b81156116fb57806116e581612903565b91506116f49050600a83612934565b91506116d5565b60008167ffffffffffffffff811115611716576117166120bf565b6040519080825280601f01601f191660200182016040528015611740576020820181803683370190505b5090505b84156117ab57611755600183612948565b9150611762600a8661295f565b61176d906030612973565b60f81b8183815181106117825761178261298b565b60200101906001600160f81b031916908160001a9053506117a4600a86612934565b9450611744565b949350505050565b6117bd8383611b24565b6001600160a01b0383163b156109305760006117d761134b565b5490508281035b6117f16000868380600101945086611830565b61180e576040516368d2bf6b60e11b815260040160405180910390fd5b8181106117de578161181e61134b565b541461182957600080fd5b5050505050565b604051630a85bd0160e11b81526000906001600160a01b0385169063150b7a02906118659033908990889088906004016129a1565b6020604051808303816000875af19250505080156118a0575060408051601f3d908101601f1916820190925261189d918101906129de565b60015b6118fb573d8080156118ce576040519150601f19603f3d011682016040523d82523d6000602084013e6118d3565b606091505b5080516118f3576040516368d2bf6b60e11b815260040160405180910390fd5b805181602001fd5b6001600160e01b031916630a85bd0160e11b149050949350505050565b606060cc805461049390612386565b600080516020612afe83398151915254610100900460ff1661195b5760405162461bcd60e51b8152600401610875906129fb565b610a028282611c3e565b600054610100900460ff1661198c5760405162461bcd60e51b815260040161087590612a4f565b610b5a611cc1565b600054610100900460ff16610b5a5760405162461bcd60e51b815260040161087590612a4f565b600046600514156119df575073da8ea22d092307874f30a1f277d1388dca0ba97a90565b4660451415611a01575073f2c9fc73884a9c6e6db58778176ab67989139d0690565b46620138811415611a255750734b48841d4b32c4650e4abc117a03fe8b51f38f6890565b46617a691415611a48575073e7f1725e7734ce288f8367e1bb143e90bb3f051290565b60405163264e42cf60e01b8152466004820152602401610875565b6001600160a01b0381163b611ad05760405162461bcd60e51b815260206004820152602d60248201527f455243313936373a206e657720696d706c656d656e746174696f6e206973206e60448201526c1bdd08184818dbdb9d1c9858dd609a1b6064820152608401610875565b600080516020612ab783398151915280546001600160a01b0319166001600160a01b0392909216919091179055565b611b0883611cf1565b600082511180611b155750805b1561093057610e168383611d31565b6000611b2e61134b565b5490506001600160a01b038316611b5757604051622e076360e81b815260040160405180910390fd5b81611b755760405163b562e8dd60e01b815260040160405180910390fd5b611b826000848385611461565b680100000000000000018202611b9661134b565b6001600160a01b038516600081815260059290920160205260409091208054929092019091554260a01b6001841460e11b1717611bd161134b565b60008381526004919091016020526040902055808281015b6040516001830192906001600160a01b038716906000907fddf252ad1be2c89b69c2b068fc378daa952ba7f163c4a11628f55a4df523b3ef908290a4808210611be95780611c3561134b565b55506109309050565b600080516020612afe83398151915254610100900460ff16611c725760405162461bcd60e51b8152600401610875906129fb565b81611c7b61134b565b6002019080519060200190611c91929190611e5e565b5080611c9b61134b565b6003019080519060200190611cb1929190611e5e565b506000611cbc61134b565b555050565b600054610100900460ff16611ce85760405162461bcd60e51b815260040161087590612a4f565b610b5a3361165b565b611cfa81611a63565b6040516001600160a01b038216907fbc7cd75a20ee27fd9adebab32041f755214dbc6bffa90cc0225b39da2e5c2d3b90600090a250565b60606001600160a01b0383163b611d995760405162461bcd60e51b815260206004820152602660248201527f416464726573733a2064656c65676174652063616c6c20746f206e6f6e2d636f6044820152651b9d1c9858dd60d21b6064820152608401610875565b600080846001600160a01b031684604051611db49190612a9a565b600060405180830381855af49150503d8060008114611def576040519150601f19603f3d011682016040523d82523d6000602084013e611df4565b606091505b5091509150611e1c8282604051806060016040528060278152602001612ad760279139611e25565b95945050505050565b60608315611e34575081611417565b825115611e445782518084602001fd5b8160405162461bcd60e51b81526004016108759190611ff6565b828054611e6a90612386565b90600052602060002090601f016020900481019282611e8c5760008555611ed2565b82601f10611ea557805160ff1916838001178555611ed2565b82800160010185558215611ed2579182015b82811115611ed2578251825591602001919060010190611eb7565b50611ede929150611f56565b5090565b828054611eee90612386565b90600052602060002090601f016020900481019282611f105760008555611ed2565b82601f10611f295782800160ff19823516178555611ed2565b82800160010185558215611ed2579182015b82811115611ed2578235825591602001919060010190611f3b565b5b80821115611ede5760008155600101611f57565b6001600160e01b03198116811461091257600080fd5b600060208284031215611f9357600080fd5b813561141781611f6b565b60005b83811015611fb9578181015183820152602001611fa1565b83811115610e165750506000910152565b60008151808452611fe2816020860160208601611f9e565b601f01601f19169290920160200192915050565b6020815260006114176020830184611fca565b60006020828403121561201b57600080fd5b5035919050565b80356001600160a01b038116811461203957600080fd5b919050565b6000806040838503121561205157600080fd5b61205a83612022565b946020939093013593505050565b60008060006060848603121561207d57600080fd5b61208684612022565b925061209460208501612022565b9150604084013590509250925092565b6000602082840312156120b657600080fd5b61141782612022565b634e487b7160e01b600052604160045260246000fd5b600067ffffffffffffffff808411156120f0576120f06120bf565b604051601f8501601f19908116603f01168101908282118183101715612118576121186120bf565b8160405280935085815286868601111561213157600080fd5b858560208301376000602087830101525050509392505050565b600082601f83011261215c57600080fd5b611417838335602085016120d5565b6000806040838503121561217e57600080fd5b61218783612022565b9150602083013567ffffffffffffffff8111156121a357600080fd5b6121af8582860161214b565b9150509250929050565b6000602082840312156121cb57600080fd5b813567ffffffffffffffff8111156121e257600080fd5b8201601f810184136121f357600080fd5b6117ab848235602084016120d5565b60006020828403121561221457600080fd5b813567ffffffffffffffff81111561222b57600080fd5b820160e0818503121561141757600080fd5b6000806040838503121561225057600080fd5b61225983612022565b91506020830135801515811461226e57600080fd5b809150509250929050565b6000806000806080858703121561228f57600080fd5b61229885612022565b93506122a660208601612022565b925060408501359150606085013567ffffffffffffffff8111156122c957600080fd5b6122d58782880161214b565b91505092959194509250565b600080604083850312156122f457600080fd5b6122fd83612022565b915061230b60208401612022565b90509250929050565b6000806020838503121561232757600080fd5b823567ffffffffffffffff8082111561233f57600080fd5b818501915085601f83011261235357600080fd5b81358181111561236257600080fd5b86602082850101111561237457600080fd5b60209290920196919550909350505050565b600181811c9082168061239a57607f821691505b602082108114156123bb57634e487b7160e01b600052602260045260246000fd5b50919050565b6020808252602c908201527f46756e6374696f6e206d7573742062652063616c6c6564207468726f7567682060408201526b19195b1959d85d1958d85b1b60a21b606082015260800190565b6020808252602c908201527f46756e6374696f6e206d7573742062652063616c6c6564207468726f7567682060408201526b6163746976652070726f787960a01b606082015260800190565b6000808335601e1984360301811261247057600080fd5b83018035915067ffffffffffffffff82111561248b57600080fd5b6020019150368190038213156124a057600080fd5b9250929050565b8054600090600181811c90808316806124c157607f831692505b60208084108214156124e357634e487b7160e01b600052602260045260246000fd5b8180156124f7576001811461250857612535565b60ff19861689528489019650612535565b60008881526020902060005b8681101561252d5781548b820152908501908301612514565b505084890196505b50505050505092915050565b6b024a729a2a92a1024a72a27960a51b81526000612562600c8301896124a7565b7f202869642c206e616d652c20696d616765292056414c554553202800000000008152875161259881601b840160208c01611f9e565b80820191505061016160f51b80601b8301528688601d840137601d918701918201528385601f830137602960f81b9301601f810193909352505060200195945050505050565b60018060a01b0384168152826020820152606060408201526000611e1c6060830184611fca565b60006020828403121561261757600080fd5b813560ff8116811461141757600080fd5b60006020828403121561263a57600080fd5b813567ffffffffffffffff8116811461141757600080fd5b81835281816020850137506000828201602090810191909152601f909101601f19169091010190565b60a08152600061268f60a083018a8c612652565b82810360208401526126a281898b612652565b905082810360408401526126b7818789612652565b91505067ffffffffffffffff80851660608401528084166080840152509998505050505050505050565b6653454c4543542b60c81b81527f6a736f6e5f6f626a656374253238253237696425323725324369642532436e6160078201527f6d652532432532376e616d65253237253243253237696d616765253237253243602782015268696d6167652532392b60b81b60478201526466726f6d2b60d81b6050820152600061276960558301856124a7565b6b0ad5d21154914ada59094cd160a21b8152835161278e81600c840160208801611f9e565b01600c01949350505050565b600083516127ac818460208801611f9e565b8351908301906127c0818360208801611f9e565b01949350505050565b6c021a922a0aa22902a20a126229609d1b8152600083516127f181600d850160208801611f9e565b605f60f81b600d91840191820152835161281281600e840160208801611f9e565b7f2028696420696e74656765722c206e616d6520746578742c20696d6167652074600e929091019182015264657874293b60d81b602e820152603301949350505050565b6001600160a01b03831681526040602082018190526000906117ab90830184611fca565b60006020828403121561288c57600080fd5b5051919050565b600084516128a5818460208901611f9e565b8083019050605f60f81b80825285516128c5816001850160208a01611f9e565b600192019182015283516128e0816002840160208801611f9e565b0160020195945050505050565b634e487b7160e01b600052601160045260246000fd5b6000600019821415612917576129176128ed565b5060010190565b634e487b7160e01b600052601260045260246000fd5b6000826129435761294361291e565b500490565b60008282101561295a5761295a6128ed565b500390565b60008261296e5761296e61291e565b500690565b60008219821115612986576129866128ed565b500190565b634e487b7160e01b600052603260045260246000fd5b6001600160a01b03858116825284166020820152604081018390526080606082018190526000906129d490830184611fca565b9695505050505050565b6000602082840312156129f057600080fd5b815161141781611f6b565b60208082526034908201527f455243373231415f5f496e697469616c697a61626c653a20636f6e7472616374604082015273206973206e6f7420696e697469616c697a696e6760601b606082015260800190565b6020808252602b908201527f496e697469616c697a61626c653a20636f6e7472616374206973206e6f74206960408201526a6e697469616c697a696e6760a81b606082015260800190565b60008251612aac818460208701611f9e565b919091019291505056fe360894a13ba1a3210667c828492db98dca3e2076cc3735a920a3ca505d382bbc416464726573733a206c6f772d6c6576656c2064656c65676174652063616c6c206661696c6564ee151c8401928dc223602bb187aff91b9a56c7cae5476ef1b3287b085a16c85fa264697066735822122063f5c1817477e28f564bf0034cffda28862a2bd14241659d9d7ebb84ac3bcaa564736f6c634300080c0033"
}