{
  "address": "0x66680F83e6C45E1FB66d3e732279087384FB9E98",
  "abi": [
    {
      "inputs": [],
      "name": "ApprovalCallerNotOwnerNorApproved",
      "type": "error"
    },
    {
      "inputs": [],
      "name": "ApprovalQueryForNonexistentToken",
      "type": "error"
    },
    {
      "inputs": [],
      "name": "ApproveToCaller",
      "type": "error"
    },
    {
      "inputs": [],
      "name": "BalanceQueryForZeroAddress",
      "type": "error"
    },
    {
      "inputs": [
        {
          "internalType": "uint256",
          "name": "chainid",
          "type": "uint256"
        }
      ],
      "name": "ChainNotSupported",
      "type": "error"
    },
    {
      "inputs": [],
      "name": "MintERC2309QuantityExceedsLimit",
      "type": "error"
    },
    {
      "inputs": [],
      "name": "MintToZeroAddress",
      "type": "error"
    },
    {
      "inputs": [],
      "name": "MintZeroQuantity",
      "type": "error"
    },
    {
      "inputs": [],
      "name": "OwnerQueryForNonexistentToken",
      "type": "error"
    },
    {
      "inputs": [],
      "name": "OwnershipNotInitializedForExtraData",
      "type": "error"
    },
    {
      "inputs": [],
      "name": "TransferCallerNotOwnerNorApproved",
      "type": "error"
    },
    {
      "inputs": [],
      "name": "TransferFromIncorrectOwner",
      "type": "error"
    },
    {
      "inputs": [],
      "name": "TransferToNonERC721ReceiverImplementer",
      "type": "error"
    },
    {
      "inputs": [],
      "name": "TransferToZeroAddress",
      "type": "error"
    },
    {
      "inputs": [],
      "name": "URIQueryForNonexistentToken",
      "type": "error"
    },
    {
      "anonymous": false,
      "inputs": [
        {
          "indexed": false,
          "internalType": "address",
          "name": "previousAdmin",
          "type": "address"
        },
        {
          "indexed": false,
          "internalType": "address",
          "name": "newAdmin",
          "type": "address"
        }
      ],
      "name": "AdminChanged",
      "type": "event"
    },
    {
      "anonymous": false,
      "inputs": [
        {
          "indexed": true,
          "internalType": "address",
          "name": "owner",
          "type": "address"
        },
        {
          "indexed": true,
          "internalType": "address",
          "name": "approved",
          "type": "address"
        },
        {
          "indexed": true,
          "internalType": "uint256",
          "name": "tokenId",
          "type": "uint256"
        }
      ],
      "name": "Approval",
      "type": "event"
    },
    {
      "anonymous": false,
      "inputs": [
        {
          "indexed": true,
          "internalType": "address",
          "name": "owner",
          "type": "address"
        },
        {
          "indexed": true,
          "internalType": "address",
          "name": "operator",
          "type": "address"
        },
        {
          "indexed": false,
          "internalType": "bool",
          "name": "approved",
          "type": "bool"
        }
      ],
      "name": "ApprovalForAll",
      "type": "event"
    },
    {
      "anonymous": false,
      "inputs": [
        {
          "indexed": true,
          "internalType": "address",
          "name": "beacon",
          "type": "address"
        }
      ],
      "name": "BeaconUpgraded",
      "type": "event"
    },
    {
      "anonymous": false,
      "inputs": [
        {
          "indexed": true,
          "internalType": "uint256",
          "name": "fromTokenId",
          "type": "uint256"
        },
        {
          "indexed": false,
          "internalType": "uint256",
          "name": "toTokenId",
          "type": "uint256"
        },
        {
          "indexed": true,
          "internalType": "address",
          "name": "from",
          "type": "address"
        },
        {
          "indexed": true,
          "internalType": "address",
          "name": "to",
          "type": "address"
        }
      ],
      "name": "ConsecutiveTransfer",
      "type": "event"
    },
    {
      "anonymous": false,
      "inputs": [
        {
          "indexed": false,
          "internalType": "uint8",
          "name": "version",
          "type": "uint8"
        }
      ],
      "name": "Initialized",
      "type": "event"
    },
    {
      "anonymous": false,
      "inputs": [
        {
          "indexed": true,
          "internalType": "uint256",
          "name": "tokenId",
          "type": "uint256"
        },
        {
          "indexed": false,
          "internalType": "string",
          "name": "name",
          "type": "string"
        },
        {
          "indexed": false,
          "internalType": "string",
          "name": "description",
          "type": "string"
        },
        {
          "indexed": false,
          "internalType": "string",
          "name": "image",
          "type": "string"
        },
        {
          "indexed": false,
          "internalType": "uint64",
          "name": "dateOfBirth",
          "type": "uint64"
        },
        {
          "indexed": true,
          "internalType": "uint8",
          "name": "gender",
          "type": "uint8"
        },
        {
          "indexed": true,
          "internalType": "uint8",
          "name": "sexOrientation",
          "type": "uint8"
        },
        {
          "indexed": false,
          "internalType": "uint128",
          "name": "insteretVector",
          "type": "uint128"
        }
      ],
      "name": "NewProfile",
      "type": "event"
    },
    {
      "anonymous": false,
      "inputs": [
        {
          "indexed": true,
          "internalType": "address",
          "name": "previousOwner",
          "type": "address"
        },
        {
          "indexed": true,
          "internalType": "address",
          "name": "newOwner",
          "type": "address"
        }
      ],
      "name": "OwnershipTransferred",
      "type": "event"
    },
    {
      "anonymous": false,
      "inputs": [
        {
          "indexed": true,
          "internalType": "address",
          "name": "from",
          "type": "address"
        },
        {
          "indexed": true,
          "internalType": "address",
          "name": "to",
          "type": "address"
        },
        {
          "indexed": true,
          "internalType": "uint256",
          "name": "tokenId",
          "type": "uint256"
        }
      ],
      "name": "Transfer",
      "type": "event"
    },
    {
      "anonymous": false,
      "inputs": [
        {
          "indexed": true,
          "internalType": "address",
          "name": "implementation",
          "type": "address"
        }
      ],
      "name": "Upgraded",
      "type": "event"
    },
    {
      "inputs": [
        {
          "internalType": "address",
          "name": "to",
          "type": "address"
        },
        {
          "internalType": "uint256",
          "name": "tokenId",
          "type": "uint256"
        }
      ],
      "name": "approve",
      "outputs": [],
      "stateMutability": "nonpayable",
      "type": "function"
    },
    {
      "inputs": [
        {
          "internalType": "address",
          "name": "owner",
          "type": "address"
        }
      ],
      "name": "balanceOf",
      "outputs": [
        {
          "internalType": "uint256",
          "name": "",
          "type": "uint256"
        }
      ],
      "stateMutability": "view",
      "type": "function"
    },
    {
      "inputs": [
        {
          "components": [
            {
              "internalType": "string",
              "name": "name",
              "type": "string"
            },
            {
              "internalType": "string",
              "name": "description",
              "type": "string"
            },
            {
              "internalType": "string",
              "name": "image",
              "type": "string"
            },
            {
              "internalType": "uint64",
              "name": "dateOfBirth",
              "type": "uint64"
            },
            {
              "internalType": "uint8",
              "name": "gender",
              "type": "uint8"
            },
            {
              "internalType": "uint8",
              "name": "sexOrientation",
              "type": "uint8"
            },
            {
              "internalType": "uint128",
              "name": "insteretVector",
              "type": "uint128"
            }
          ],
          "internalType": "struct Tind3rMembership.Tind3rProfile",
          "name": "userProfile",
          "type": "tuple"
        }
      ],
      "name": "createProfile",
      "outputs": [
        {
          "internalType": "uint256",
          "name": "",
          "type": "uint256"
        }
      ],
      "stateMutability": "nonpayable",
      "type": "function"
    },
    {
      "inputs": [
        {
          "internalType": "uint256",
          "name": "tokenId",
          "type": "uint256"
        }
      ],
      "name": "getApproved",
      "outputs": [
        {
          "internalType": "address",
          "name": "",
          "type": "address"
        }
      ],
      "stateMutability": "view",
      "type": "function"
    },
    {
      "inputs": [
        {
          "internalType": "string",
          "name": "initBaseURI",
          "type": "string"
        }
      ],
      "name": "initialize",
      "outputs": [],
      "stateMutability": "nonpayable",
      "type": "function"
    },
    {
      "inputs": [
        {
          "internalType": "address",
          "name": "owner",
          "type": "address"
        },
        {
          "internalType": "address",
          "name": "operator",
          "type": "address"
        }
      ],
      "name": "isApprovedForAll",
      "outputs": [
        {
          "internalType": "bool",
          "name": "",
          "type": "bool"
        }
      ],
      "stateMutability": "view",
      "type": "function"
    },
    {
      "inputs": [],
      "name": "metadataURI",
      "outputs": [
        {
          "internalType": "string",
          "name": "",
          "type": "string"
        }
      ],
      "stateMutability": "view",
      "type": "function"
    },
    {
      "inputs": [],
      "name": "name",
      "outputs": [
        {
          "internalType": "string",
          "name": "",
          "type": "string"
        }
      ],
      "stateMutability": "view",
      "type": "function"
    },
    {
      "inputs": [],
      "name": "owner",
      "outputs": [
        {
          "internalType": "address",
          "name": "",
          "type": "address"
        }
      ],
      "stateMutability": "view",
      "type": "function"
    },
    {
      "inputs": [
        {
          "internalType": "uint256",
          "name": "tokenId",
          "type": "uint256"
        }
      ],
      "name": "ownerOf",
      "outputs": [
        {
          "internalType": "address",
          "name": "",
          "type": "address"
        }
      ],
      "stateMutability": "view",
      "type": "function"
    },
    {
      "inputs": [],
      "name": "proxiableUUID",
      "outputs": [
        {
          "internalType": "bytes32",
          "name": "",
          "type": "bytes32"
        }
      ],
      "stateMutability": "view",
      "type": "function"
    },
    {
      "inputs": [],
      "name": "renounceOwnership",
      "outputs": [],
      "stateMutability": "nonpayable",
      "type": "function"
    },
    {
      "inputs": [
        {
          "internalType": "address",
          "name": "from",
          "type": "address"
        },
        {
          "internalType": "address",
          "name": "to",
          "type": "address"
        },
        {
          "internalType": "uint256",
          "name": "tokenId",
          "type": "uint256"
        }
      ],
      "name": "safeTransferFrom",
      "outputs": [],
      "stateMutability": "nonpayable",
      "type": "function"
    },
    {
      "inputs": [
        {
          "internalType": "address",
          "name": "from",
          "type": "address"
        },
        {
          "internalType": "address",
          "name": "to",
          "type": "address"
        },
        {
          "internalType": "uint256",
          "name": "tokenId",
          "type": "uint256"
        },
        {
          "internalType": "bytes",
          "name": "_data",
          "type": "bytes"
        }
      ],
      "name": "safeTransferFrom",
      "outputs": [],
      "stateMutability": "nonpayable",
      "type": "function"
    },
    {
      "inputs": [
        {
          "internalType": "address",
          "name": "operator",
          "type": "address"
        },
        {
          "internalType": "bool",
          "name": "approved",
          "type": "bool"
        }
      ],
      "name": "setApprovalForAll",
      "outputs": [],
      "stateMutability": "nonpayable",
      "type": "function"
    },
    {
      "inputs": [
        {
          "internalType": "string",
          "name": "baseURI",
          "type": "string"
        }
      ],
      "name": "setBaseURI",
      "outputs": [],
      "stateMutability": "nonpayable",
      "type": "function"
    },
    {
      "inputs": [
        {
          "internalType": "bytes4",
          "name": "interfaceId",
          "type": "bytes4"
        }
      ],
      "name": "supportsInterface",
      "outputs": [
        {
          "internalType": "bool",
          "name": "",
          "type": "bool"
        }
      ],
      "stateMutability": "view",
      "type": "function"
    },
    {
      "inputs": [],
      "name": "symbol",
      "outputs": [
        {
          "internalType": "string",
          "name": "",
          "type": "string"
        }
      ],
      "stateMutability": "view",
      "type": "function"
    },
    {
      "inputs": [
        {
          "internalType": "uint256",
          "name": "tokenId",
          "type": "uint256"
        }
      ],
      "name": "tokenURI",
      "outputs": [
        {
          "internalType": "string",
          "name": "",
          "type": "string"
        }
      ],
      "stateMutability": "view",
      "type": "function"
    },
    {
      "inputs": [],
      "name": "totalSupply",
      "outputs": [
        {
          "internalType": "uint256",
          "name": "",
          "type": "uint256"
        }
      ],
      "stateMutability": "view",
      "type": "function"
    },
    {
      "inputs": [
        {
          "internalType": "address",
          "name": "from",
          "type": "address"
        },
        {
          "internalType": "address",
          "name": "to",
          "type": "address"
        },
        {
          "internalType": "uint256",
          "name": "tokenId",
          "type": "uint256"
        }
      ],
      "name": "transferFrom",
      "outputs": [],
      "stateMutability": "nonpayable",
      "type": "function"
    },
    {
      "inputs": [
        {
          "internalType": "address",
          "name": "newOwner",
          "type": "address"
        }
      ],
      "name": "transferOwnership",
      "outputs": [],
      "stateMutability": "nonpayable",
      "type": "function"
    },
    {
      "inputs": [
        {
          "internalType": "address",
          "name": "newImplementation",
          "type": "address"
        }
      ],
      "name": "upgradeTo",
      "outputs": [],
      "stateMutability": "nonpayable",
      "type": "function"
    },
    {
      "inputs": [
        {
          "internalType": "address",
          "name": "newImplementation",
          "type": "address"
        },
        {
          "internalType": "bytes",
          "name": "data",
          "type": "bytes"
        }
      ],
      "name": "upgradeToAndCall",
      "outputs": [],
      "stateMutability": "payable",
      "type": "function"
    }
  ],
  "numDeployments": 1,
  "bytecode": "0x60a06040523060805234801561001457600080fd5b50608051612bdb61004c60003960008181610881015281816108ca0152818161098a015281816109ca0152610a5d0152612bdb6000f3fe60806040526004361061014b5760003560e01c80636352211e116100b6578063b88d4fde1161006f578063b88d4fde14610389578063c87b56dd146103a9578063e985e9c5146103c9578063f0ed5962146103e9578063f2fde38b14610409578063f62d18881461042957600080fd5b80636352211e146102e157806370a0823114610301578063715018a6146103215780638da5cb5b1461033657806395d89b4114610354578063a22cb4651461036957600080fd5b806323b872dd1161010857806323b872dd146102395780633659cfe61461025957806342842e0e146102795780634f1ef2861461029957806352d1902d146102ac57806355f804b3146102c157600080fd5b806301ffc9a71461015057806303ee438c1461018557806306fdde03146101a7578063081812fc146101bc578063095ea7b3146101f457806318160ddd14610216575b600080fd5b34801561015c57600080fd5b5061017061016b366004611fa4565b610449565b60405190151581526020015b60405180910390f35b34801561019157600080fd5b5061019a61049b565b60405161017c9190612019565b3480156101b357600080fd5b5061019a6104d2565b3480156101c857600080fd5b506101dc6101d736600461202c565b61056d565b6040516001600160a01b03909116815260200161017c565b34801561020057600080fd5b5061021461020f366004612061565b6105ba565b005b34801561022257600080fd5b5061022b610668565b60405190815260200161017c565b34801561024557600080fd5b5061021461025436600461208b565b610687565b34801561026557600080fd5b506102146102743660046120c7565b610876565b34801561028557600080fd5b5061021461029436600461208b565b61095f565b6102146102a736600461218e565b61097f565b3480156102b857600080fd5b5061022b610a50565b3480156102cd57600080fd5b506102146102dc3660046121dc565b610b03565b3480156102ed57600080fd5b506101dc6102fc36600461202c565b610b1e565b34801561030d57600080fd5b5061022b61031c3660046120c7565b610b29565b34801561032d57600080fd5b50610214610b92565b34801561034257600080fd5b506097546001600160a01b03166101dc565b34801561036057600080fd5b5061019a610ba6565b34801561037557600080fd5b50610214610384366004612225565b610bbe565b34801561039557600080fd5b506102146103a4366004612261565b610c65565b3480156103b557600080fd5b5061019a6103c436600461202c565b610caf565b3480156103d557600080fd5b506101706103e43660046122c9565b610da6565b3480156103f557600080fd5b5061022b6104043660046122fc565b610de3565b34801561041557600080fd5b506102146104243660046120c7565b610f6b565b34801561043557600080fd5b50610214610444366004612337565b610fe1565b60006301ffc9a760e01b6001600160e01b03198316148061047a57506380ac58cd60e01b6001600160e01b03198316145b806104955750635b5e139f60e01b6001600160e01b03198316145b92915050565b606060006104a76113af565b90508060ca6040516020016104bd92919061247e565b60405160208183030381529060405291505090565b60606104dc6113be565b60020180546104ea906123a9565b80601f0160208091040260200160405190810160405280929190818152602001828054610516906123a9565b80156105635780601f1061053857610100808354040283529160200191610563565b820191906000526020600020905b81548152906001019060200180831161054657829003601f168201915b5050505050905090565b6000610578826113e2565b610595576040516333d1c03960e21b815260040160405180910390fd5b61059d6113be565b60009283526006016020525060409020546001600160a01b031690565b60006105c582610b1e565b9050336001600160a01b038216146105fe576105e18133610da6565b6105fe576040516367d9dca160e11b815260040160405180910390fd5b826106076113be565b6000848152600691909101602052604080822080546001600160a01b0319166001600160a01b0394851617905551849286811692908516917f8c5be1e5ebec7d5bd14f71427d1e84f3dd0314c0f7b2291e5b200ac8c7c3b9259190a4505050565b6000806106736113be565b6001015461067f6113be565b540303919050565b60006106928261141e565b9050836001600160a01b0316816001600160a01b0316146106c55760405162a1148160e81b815260040160405180910390fd5b6000806106d1846114ac565b915091506106f681876106e13390565b6001600160a01b039081169116811491141790565b610721576107048633610da6565b61072157604051632ce44b5f60e11b815260040160405180910390fd5b6001600160a01b03851661074857604051633a954ecd60e21b815260040160405180910390fd5b801561075357600082555b61075b6113be565b6001600160a01b03871660009081526005919091016020526040902080546000190190556107876113be565b6001600160a01b03861660008181526005929092016020526040909120805460010190554260a01b17600160e11b176107be6113be565b60008681526004919091016020526040902055600160e11b831661082d57600184016107e86113be565b6000828152600491909101602052604090205461082b576108076113be565b54811461082b57836108176113be565b600083815260049190910160205260409020555b505b83856001600160a01b0316876001600160a01b03167fddf252ad1be2c89b69c2b068fc378daa952ba7f163c4a11628f55a4df523b3ef60405160405180910390a4505050505050565b306001600160a01b037f00000000000000000000000000000000000000000000000000000000000000001614156108c85760405162461bcd60e51b81526004016108bf906124b5565b60405180910390fd5b7f00000000000000000000000000000000000000000000000000000000000000006001600160a01b0316610911600080516020612b3f833981519152546001600160a01b031690565b6001600160a01b0316146109375760405162461bcd60e51b81526004016108bf90612501565b610940816114d4565b6040805160008082526020820190925261095c918391906114dc565b50565b61097a83838360405180602001604052806000815250610c65565b505050565b306001600160a01b037f00000000000000000000000000000000000000000000000000000000000000001614156109c85760405162461bcd60e51b81526004016108bf906124b5565b7f00000000000000000000000000000000000000000000000000000000000000006001600160a01b0316610a11600080516020612b3f833981519152546001600160a01b031690565b6001600160a01b031614610a375760405162461bcd60e51b81526004016108bf90612501565b610a40826114d4565b610a4c828260016114dc565b5050565b6000306001600160a01b037f00000000000000000000000000000000000000000000000000000000000000001614610af05760405162461bcd60e51b815260206004820152603860248201527f555550535570677261646561626c653a206d757374206e6f742062652063616c60448201527f6c6564207468726f7567682064656c656761746563616c6c000000000000000060648201526084016108bf565b50600080516020612b3f83398151915290565b610b0b611647565b8051610a4c9060cc906020840190611e81565b60006104958261141e565b60006001600160a01b038216610b52576040516323d3ad8160e21b815260040160405180910390fd5b67ffffffffffffffff610b636113be565b6005016000846001600160a01b03166001600160a01b0316815260200190815260200160002054169050919050565b610b9a611647565b610ba460006116a1565b565b6060610bb06113be565b60030180546104ea906123a9565b6001600160a01b038216331415610be85760405163b06307db60e01b815260040160405180910390fd5b80610bf16113be565b336000818152600792909201602090815260408084206001600160a01b03881680865290835293819020805460ff19169515159590951790945592518415158152919290917f17307eab39ab6107e8899845ad3d59bd9653f200f220920489ca2b5937696c31910160405180910390a35050565b610c70848484610687565b6001600160a01b0383163b15610ca957610c8c848484846116f3565b610ca9576040516368d2bf6b60e11b815260040160405180910390fd5b50505050565b6060610cba826113e2565b610d205760405162461bcd60e51b815260206004820152603160248201527f45524337323155524953746f726167653a2055524920717565727920666f72206044820152703737b732bc34b9ba32b73a103a37b5b2b760791b60648201526084016108bf565b6000610d2a6113af565b9050805160001415610d4c575050604080516020810190915260008152919050565b600060ca604051602001610d60919061254d565b60405160208183030381529060405290508181610d7c866117dc565b604051602001610d8e939291906125f2565b60405160208183030381529060405292505050919050565b6000610db06113be565b6001600160a01b039384166000908152600791909101602090815260408083209490951682529290925250205460ff1690565b600080610dee610668565b60c95460cb549192506001600160a01b03169063eaf5d04e90309060ca610e14866117dc565b610e1e8980612635565b610e2b60408c018c612635565b604051602001610e4096959493929190612683565b6040516020818303038152906040526040518463ffffffff1660e01b8152600401610e6d93929190612720565b600060405180830381600087803b158015610e8757600080fd5b505af1158015610e9b573d6000803e3d6000fd5b50505050610eba336001604051806020016040528060008152506118da565b610eca60c0840160a08501612747565b60ff16610edd60a0850160808601612747565b60ff16827f76fc5ae748f00a9aa6112a1fd36e294095befb09e2b6f32c2cf93f8b1cc4c89d610f0c8780612635565b610f1960208a018a612635565b610f2660408c018c612635565b610f3660808e0160608f0161276a565b8d60c0016020810190610f499190612794565b604051610f5d9897969594939291906127e6565b60405180910390a492915050565b610f73611647565b6001600160a01b038116610fd85760405162461bcd60e51b815260206004820152602660248201527f4f776e61626c653a206e6577206f776e657220697320746865207a65726f206160448201526564647265737360d01b60648201526084016108bf565b61095c816116a1565b600080516020612b8683398151915254610100900460ff1661101657600080516020612b868339815191525460ff161561101a565b303b155b61108c5760405162461bcd60e51b815260206004820152603760248201527f455243373231415f5f496e697469616c697a61626c653a20636f6e747261637460448201527f20697320616c726561647920696e697469616c697a656400000000000000000060648201526084016108bf565b600080516020612b8683398151915254610100900460ff161580156110c857600080516020612b86833981519152805461ffff19166101011790555b600054610100900460ff16158080156110e85750600054600160ff909116105b806111025750303b158015611102575060005460ff166001145b6111655760405162461bcd60e51b815260206004820152602e60248201527f496e697469616c697a61626c653a20636f6e747261637420697320616c72656160448201526d191e481a5b9a5d1a585b1a5e995960921b60648201526084016108bf565b6000805460ff191660011790558015611188576000805461ff0019166101001790555b6111d56040518060400160405280601081526020016f054696e6433724d656d626572736869760841b8152506040518060400160405280600381526020016254334d60e81b815250611957565b6111dd611995565b6111e56119c4565b6111ed6119eb565b60c980546001600160a01b0319166001600160a01b03929092169190911790556000611218466117dc565b60c95460408051808201825260068152653a34b73219b960d11b60208083019190915291519394506001600160a01b0390921692633a9151b092309261126092879101612851565b6040516020818303038152906040526040518363ffffffff1660e01b815260040161128c9291906128de565b6020604051808303816000875af11580156112ab573d6000803e3d6000fd5b505050506040513d601f19601f820116820180604052508101906112cf9190612902565b60cb81905550604051806040016040528060068152602001653a34b73219b960d11b8152508161130060cb546117dc565b6040516020016113129392919061291b565b60405160208183030381529060405260ca9080519060200190611336929190611e81565b5061134360cc8686611f05565b5050801561138b576000805461ff0019169055604051600181527f7f26b83ff96e1f2b6a682f133852f6798a09c465da95921460cefb38474024989060200160405180910390a15b50801561097a575050600080516020612b86833981519152805461ff001916905550565b606060cc80546104ea906123a9565b7f2569078dfb4b0305704d3008e7403993ae9601b85f7ae5e742de3de8f8011c4090565b60006113ec6113be565b54821080156104955750600160e01b6114036113be565b60008481526004919091016020526040902054161592915050565b6000816114296113be565b5481101561149357600061143b6113be565b600083815260049190910160205260409020549050600160e01b8116611491575b8061148a576114696113be565b6000199092016000818152600493909301602052604090922054905061145c565b9392505050565b505b604051636f96cda160e11b815260040160405180910390fd5b60008060006114b96113be565b60009485526006016020525050604090912080549092909150565b61095c611647565b7f4910fdfa16fed3260ed0e7147f7cc6da11a60208b5b9406d12a635614ffd91435460ff161561150f5761097a83611a93565b826001600160a01b03166352d1902d6040518163ffffffff1660e01b8152600401602060405180830381865afa925050508015611569575060408051601f3d908101601f1916820190925261156691810190612902565b60015b6115cc5760405162461bcd60e51b815260206004820152602e60248201527f45524331393637557067726164653a206e657720696d706c656d656e7461746960448201526d6f6e206973206e6f74205555505360901b60648201526084016108bf565b600080516020612b3f833981519152811461163b5760405162461bcd60e51b815260206004820152602960248201527f45524331393637557067726164653a20756e737570706f727465642070726f786044820152681a58589b195555525160ba1b60648201526084016108bf565b5061097a838383611b2f565b6097546001600160a01b03163314610ba45760405162461bcd60e51b815260206004820181905260248201527f4f776e61626c653a2063616c6c6572206973206e6f7420746865206f776e657260448201526064016108bf565b609780546001600160a01b038381166001600160a01b0319831681179093556040519116919082907f8be0079c531659141344cd1fd0a4f28419497f9722a3daafe3b4186f6b6457e090600090a35050565b604051630a85bd0160e11b81526000906001600160a01b0385169063150b7a0290611728903390899088908890600401612975565b6020604051808303816000875af1925050508015611763575060408051601f3d908101601f19168201909252611760918101906129b2565b60015b6117be573d808015611791576040519150601f19603f3d011682016040523d82523d6000602084013e611796565b606091505b5080516117b6576040516368d2bf6b60e11b815260040160405180910390fd5b805181602001fd5b6001600160e01b031916630a85bd0160e11b1490505b949350505050565b6060816118005750506040805180820190915260018152600360fc1b602082015290565b8160005b811561182a5780611814816129e5565b91506118239050600a83612a16565b9150611804565b60008167ffffffffffffffff811115611845576118456120e2565b6040519080825280601f01601f19166020018201604052801561186f576020820181803683370190505b5090505b84156117d457611884600183612a2a565b9150611891600a86612a41565b61189c906030612a55565b60f81b8183815181106118b1576118b1612a6d565b60200101906001600160f81b031916908160001a9053506118d3600a86612a16565b9450611873565b6118e48383611b54565b6001600160a01b0383163b1561097a5760006118fe6113be565b5490508281035b61191860008683806001019450866116f3565b611935576040516368d2bf6b60e11b815260040160405180910390fd5b81811061190557816119456113be565b541461195057600080fd5b5050505050565b600080516020612b8683398151915254610100900460ff1661198b5760405162461bcd60e51b81526004016108bf90612a83565b610a4c8282611c61565b600054610100900460ff166119bc5760405162461bcd60e51b81526004016108bf90612ad7565b610ba4611ce4565b600054610100900460ff16610ba45760405162461bcd60e51b81526004016108bf90612ad7565b60004660051415611a0f575073da8ea22d092307874f30a1f277d1388dca0ba97a90565b4660451415611a31575073f2c9fc73884a9c6e6db58778176ab67989139d0690565b46620138811415611a555750734b48841d4b32c4650e4abc117a03fe8b51f38f6890565b46617a691415611a78575073e7f1725e7734ce288f8367e1bb143e90bb3f051290565b60405163264e42cf60e01b81524660048201526024016108bf565b6001600160a01b0381163b611b005760405162461bcd60e51b815260206004820152602d60248201527f455243313936373a206e657720696d706c656d656e746174696f6e206973206e60448201526c1bdd08184818dbdb9d1c9858dd609a1b60648201526084016108bf565b600080516020612b3f83398151915280546001600160a01b0319166001600160a01b0392909216919091179055565b611b3883611d14565b600082511180611b455750805b1561097a57610ca98383611d54565b6000611b5e6113be565b5490506001600160a01b038316611b8757604051622e076360e81b815260040160405180910390fd5b81611ba55760405163b562e8dd60e01b815260040160405180910390fd5b680100000000000000018202611bb96113be565b6001600160a01b038516600081815260059290920160205260409091208054929092019091554260a01b6001841460e11b1717611bf46113be565b60008381526004919091016020526040902055808281015b6040516001830192906001600160a01b038716906000907fddf252ad1be2c89b69c2b068fc378daa952ba7f163c4a11628f55a4df523b3ef908290a4808210611c0c5780611c586113be565b555061097a9050565b600080516020612b8683398151915254610100900460ff16611c955760405162461bcd60e51b81526004016108bf90612a83565b81611c9e6113be565b6002019080519060200190611cb4929190611e81565b5080611cbe6113be565b6003019080519060200190611cd4929190611e81565b506000611cdf6113be565b555050565b600054610100900460ff16611d0b5760405162461bcd60e51b81526004016108bf90612ad7565b610ba4336116a1565b611d1d81611a93565b6040516001600160a01b038216907fbc7cd75a20ee27fd9adebab32041f755214dbc6bffa90cc0225b39da2e5c2d3b90600090a250565b60606001600160a01b0383163b611dbc5760405162461bcd60e51b815260206004820152602660248201527f416464726573733a2064656c65676174652063616c6c20746f206e6f6e2d636f6044820152651b9d1c9858dd60d21b60648201526084016108bf565b600080846001600160a01b031684604051611dd79190612b22565b600060405180830381855af49150503d8060008114611e12576040519150601f19603f3d011682016040523d82523d6000602084013e611e17565b606091505b5091509150611e3f8282604051806060016040528060278152602001612b5f60279139611e48565b95945050505050565b60608315611e5757508161148a565b825115611e675782518084602001fd5b8160405162461bcd60e51b81526004016108bf9190612019565b828054611e8d906123a9565b90600052602060002090601f016020900481019282611eaf5760008555611ef5565b82601f10611ec857805160ff1916838001178555611ef5565b82800160010185558215611ef5579182015b82811115611ef5578251825591602001919060010190611eda565b50611f01929150611f79565b5090565b828054611f11906123a9565b90600052602060002090601f016020900481019282611f335760008555611ef5565b82601f10611f4c5782800160ff19823516178555611ef5565b82800160010185558215611ef5579182015b82811115611ef5578235825591602001919060010190611f5e565b5b80821115611f015760008155600101611f7a565b6001600160e01b03198116811461095c57600080fd5b600060208284031215611fb657600080fd5b813561148a81611f8e565b60005b83811015611fdc578181015183820152602001611fc4565b83811115610ca95750506000910152565b60008151808452612005816020860160208601611fc1565b601f01601f19169290920160200192915050565b60208152600061148a6020830184611fed565b60006020828403121561203e57600080fd5b5035919050565b80356001600160a01b038116811461205c57600080fd5b919050565b6000806040838503121561207457600080fd5b61207d83612045565b946020939093013593505050565b6000806000606084860312156120a057600080fd5b6120a984612045565b92506120b760208501612045565b9150604084013590509250925092565b6000602082840312156120d957600080fd5b61148a82612045565b634e487b7160e01b600052604160045260246000fd5b600067ffffffffffffffff80841115612113576121136120e2565b604051601f8501601f19908116603f0116810190828211818310171561213b5761213b6120e2565b8160405280935085815286868601111561215457600080fd5b858560208301376000602087830101525050509392505050565b600082601f83011261217f57600080fd5b61148a838335602085016120f8565b600080604083850312156121a157600080fd5b6121aa83612045565b9150602083013567ffffffffffffffff8111156121c657600080fd5b6121d28582860161216e565b9150509250929050565b6000602082840312156121ee57600080fd5b813567ffffffffffffffff81111561220557600080fd5b8201601f8101841361221657600080fd5b6117d4848235602084016120f8565b6000806040838503121561223857600080fd5b61224183612045565b91506020830135801515811461225657600080fd5b809150509250929050565b6000806000806080858703121561227757600080fd5b61228085612045565b935061228e60208601612045565b925060408501359150606085013567ffffffffffffffff8111156122b157600080fd5b6122bd8782880161216e565b91505092959194509250565b600080604083850312156122dc57600080fd5b6122e583612045565b91506122f360208401612045565b90509250929050565b60006020828403121561230e57600080fd5b813567ffffffffffffffff81111561232557600080fd5b820160e0818503121561148a57600080fd5b6000806020838503121561234a57600080fd5b823567ffffffffffffffff8082111561236257600080fd5b818501915085601f83011261237657600080fd5b81358181111561238557600080fd5b86602082850101111561239757600080fd5b60209290920196919550909350505050565b600181811c908216806123bd57607f821691505b602082108114156123de57634e487b7160e01b600052602260045260246000fd5b50919050565b8054600090600181811c90808316806123fe57607f831692505b602080841082141561242057634e487b7160e01b600052602260045260246000fd5b818015612434576001811461244557612472565b60ff19861689528489019650612472565b60008881526020902060005b8681101561246a5781548b820152908501908301612451565b505084890196505b50505050505092915050565b60008351612490818460208801611fc1565b6d73656c6563742b2a2b66726f6d2b60901b908301908152611e3f600e8201856123e4565b6020808252602c908201527f46756e6374696f6e206d7573742062652063616c6c6564207468726f7567682060408201526b19195b1959d85d1958d85b1b60a21b606082015260800190565b6020808252602c908201527f46756e6374696f6e206d7573742062652063616c6c6564207468726f7567682060408201526b6163746976652070726f787960a01b606082015260800190565b6673656c6563742b60c81b81527f6a736f6e5f6f626a656374253238253237696425323725324369642532436e6160078201527f6d652532432532376e616d65253237253243253237696d616765253237253243602782015268696d6167652532392b60b81b60478201526466726f6d2b60d81b605082015260006125d560558301846123e4565b6c0addda195c994ada590ac94cd1609a1b8152600d019392505050565b60008451612604818460208901611fc1565b845190830190612618818360208901611fc1565b845191019061262b818360208801611fc1565b0195945050505050565b6000808335601e1984360301811261264c57600080fd5b83018035915067ffffffffffffffff82111561266757600080fd5b60200191503681900382131561267c57600080fd5b9250929050565b6b024a729a2a92a1024a72a27960a51b815260006126a4600c8301896123e4565b7f202869642c206e616d652c20696d616765292056414c55455320280000000000815287516126da81601b840160208c01611fc1565b80820191505061016160f51b80601b8301528688601d840137601d918701918201528385601f830137602960f81b9301601f810193909352505060200195945050505050565b60018060a01b0384168152826020820152606060408201526000611e3f6060830184611fed565b60006020828403121561275957600080fd5b813560ff8116811461148a57600080fd5b60006020828403121561277c57600080fd5b813567ffffffffffffffff8116811461148a57600080fd5b6000602082840312156127a657600080fd5b81356001600160801b038116811461148a57600080fd5b81835281816020850137506000828201602090810191909152601f909101601f19169091010190565b60a0815260006127fa60a083018a8c6127bd565b828103602084015261280d81898b6127bd565b905082810360408401526128228187896127bd565b91505067ffffffffffffffff841660608301526001600160801b03831660808301529998505050505050505050565b6c021a922a0aa22902a20a126229609d1b81526000835161287981600d850160208801611fc1565b605f60f81b600d91840191820152835161289a81600e840160208801611fc1565b7f2028696420696e74656765722c206e616d6520746578742c20696d6167652074600e929091019182015264657874293b60d81b602e820152603301949350505050565b6001600160a01b03831681526040602082018190526000906117d490830184611fed565b60006020828403121561291457600080fd5b5051919050565b6000845161292d818460208901611fc1565b8083019050605f60f81b808252855161294d816001850160208a01611fc1565b60019201918201528351612968816002840160208801611fc1565b0160020195945050505050565b6001600160a01b03858116825284166020820152604081018390526080606082018190526000906129a890830184611fed565b9695505050505050565b6000602082840312156129c457600080fd5b815161148a81611f8e565b634e487b7160e01b600052601160045260246000fd5b60006000198214156129f9576129f96129cf565b5060010190565b634e487b7160e01b600052601260045260246000fd5b600082612a2557612a25612a00565b500490565b600082821015612a3c57612a3c6129cf565b500390565b600082612a5057612a50612a00565b500690565b60008219821115612a6857612a686129cf565b500190565b634e487b7160e01b600052603260045260246000fd5b60208082526034908201527f455243373231415f5f496e697469616c697a61626c653a20636f6e7472616374604082015273206973206e6f7420696e697469616c697a696e6760601b606082015260800190565b6020808252602b908201527f496e697469616c697a61626c653a20636f6e7472616374206973206e6f74206960408201526a6e697469616c697a696e6760a81b606082015260800190565b60008251612b34818460208701611fc1565b919091019291505056fe360894a13ba1a3210667c828492db98dca3e2076cc3735a920a3ca505d382bbc416464726573733a206c6f772d6c6576656c2064656c65676174652063616c6c206661696c6564ee151c8401928dc223602bb187aff91b9a56c7cae5476ef1b3287b085a16c85fa26469706673582212208108f963074ed80cfaf23f670352cdc2fa2603f4a926753112d1929d9029ec5764736f6c634300080c0033"
}