{
  "address": "0x6a7FAC49e473628063D2306B3D7614E02Ad7153A",
  "abi": [
    {
      "inputs": [],
      "name": "ApprovalCallerNotOwnerNorApproved",
      "type": "error"
    },
    {
      "inputs": [],
      "name": "ApprovalQueryForNonexistentToken",
      "type": "error"
    },
    {
      "inputs": [],
      "name": "ApproveToCaller",
      "type": "error"
    },
    {
      "inputs": [],
      "name": "BalanceQueryForZeroAddress",
      "type": "error"
    },
    {
      "inputs": [],
      "name": "CanNotTransfer",
      "type": "error"
    },
    {
      "inputs": [
        {
          "internalType": "uint256",
          "name": "chainid",
          "type": "uint256"
        }
      ],
      "name": "ChainNotSupported",
      "type": "error"
    },
    {
      "inputs": [],
      "name": "MintERC2309QuantityExceedsLimit",
      "type": "error"
    },
    {
      "inputs": [],
      "name": "MintToZeroAddress",
      "type": "error"
    },
    {
      "inputs": [],
      "name": "MintZeroQuantity",
      "type": "error"
    },
    {
      "inputs": [],
      "name": "NonExistentProfile",
      "type": "error"
    },
    {
      "inputs": [],
      "name": "OwnerQueryForNonexistentToken",
      "type": "error"
    },
    {
      "inputs": [],
      "name": "OwnershipNotInitializedForExtraData",
      "type": "error"
    },
    {
      "inputs": [],
      "name": "TransferCallerNotOwnerNorApproved",
      "type": "error"
    },
    {
      "inputs": [],
      "name": "TransferFromIncorrectOwner",
      "type": "error"
    },
    {
      "inputs": [],
      "name": "TransferToNonERC721ReceiverImplementer",
      "type": "error"
    },
    {
      "inputs": [],
      "name": "TransferToZeroAddress",
      "type": "error"
    },
    {
      "inputs": [],
      "name": "URIQueryForNonexistentToken",
      "type": "error"
    },
    {
      "anonymous": false,
      "inputs": [
        {
          "indexed": false,
          "internalType": "address",
          "name": "previousAdmin",
          "type": "address"
        },
        {
          "indexed": false,
          "internalType": "address",
          "name": "newAdmin",
          "type": "address"
        }
      ],
      "name": "AdminChanged",
      "type": "event"
    },
    {
      "anonymous": false,
      "inputs": [
        {
          "indexed": true,
          "internalType": "address",
          "name": "owner",
          "type": "address"
        },
        {
          "indexed": true,
          "internalType": "address",
          "name": "approved",
          "type": "address"
        },
        {
          "indexed": true,
          "internalType": "uint256",
          "name": "tokenId",
          "type": "uint256"
        }
      ],
      "name": "Approval",
      "type": "event"
    },
    {
      "anonymous": false,
      "inputs": [
        {
          "indexed": true,
          "internalType": "address",
          "name": "owner",
          "type": "address"
        },
        {
          "indexed": true,
          "internalType": "address",
          "name": "operator",
          "type": "address"
        },
        {
          "indexed": false,
          "internalType": "bool",
          "name": "approved",
          "type": "bool"
        }
      ],
      "name": "ApprovalForAll",
      "type": "event"
    },
    {
      "anonymous": false,
      "inputs": [
        {
          "indexed": true,
          "internalType": "address",
          "name": "beacon",
          "type": "address"
        }
      ],
      "name": "BeaconUpgraded",
      "type": "event"
    },
    {
      "anonymous": false,
      "inputs": [
        {
          "indexed": true,
          "internalType": "uint256",
          "name": "fromTokenId",
          "type": "uint256"
        },
        {
          "indexed": false,
          "internalType": "uint256",
          "name": "toTokenId",
          "type": "uint256"
        },
        {
          "indexed": true,
          "internalType": "address",
          "name": "from",
          "type": "address"
        },
        {
          "indexed": true,
          "internalType": "address",
          "name": "to",
          "type": "address"
        }
      ],
      "name": "ConsecutiveTransfer",
      "type": "event"
    },
    {
      "anonymous": false,
      "inputs": [
        {
          "indexed": true,
          "internalType": "uint256",
          "name": "tokenId",
          "type": "uint256"
        }
      ],
      "name": "DeleteProfile",
      "type": "event"
    },
    {
      "anonymous": false,
      "inputs": [
        {
          "indexed": false,
          "internalType": "uint8",
          "name": "version",
          "type": "uint8"
        }
      ],
      "name": "Initialized",
      "type": "event"
    },
    {
      "anonymous": false,
      "inputs": [
        {
          "indexed": true,
          "internalType": "uint256",
          "name": "tokenId",
          "type": "uint256"
        },
        {
          "indexed": false,
          "internalType": "string",
          "name": "name",
          "type": "string"
        },
        {
          "indexed": false,
          "internalType": "string",
          "name": "description",
          "type": "string"
        },
        {
          "indexed": false,
          "internalType": "string",
          "name": "image",
          "type": "string"
        }
      ],
      "name": "NewProfile",
      "type": "event"
    },
    {
      "anonymous": false,
      "inputs": [
        {
          "indexed": true,
          "internalType": "address",
          "name": "previousOwner",
          "type": "address"
        },
        {
          "indexed": true,
          "internalType": "address",
          "name": "newOwner",
          "type": "address"
        }
      ],
      "name": "OwnershipTransferred",
      "type": "event"
    },
    {
      "anonymous": false,
      "inputs": [
        {
          "indexed": true,
          "internalType": "address",
          "name": "from",
          "type": "address"
        },
        {
          "indexed": true,
          "internalType": "address",
          "name": "to",
          "type": "address"
        },
        {
          "indexed": true,
          "internalType": "uint256",
          "name": "tokenId",
          "type": "uint256"
        }
      ],
      "name": "Transfer",
      "type": "event"
    },
    {
      "anonymous": false,
      "inputs": [
        {
          "indexed": true,
          "internalType": "address",
          "name": "implementation",
          "type": "address"
        }
      ],
      "name": "Upgraded",
      "type": "event"
    },
    {
      "inputs": [
        {
          "internalType": "address",
          "name": "to",
          "type": "address"
        },
        {
          "internalType": "uint256",
          "name": "tokenId",
          "type": "uint256"
        }
      ],
      "name": "approve",
      "outputs": [],
      "stateMutability": "nonpayable",
      "type": "function"
    },
    {
      "inputs": [
        {
          "internalType": "address",
          "name": "owner",
          "type": "address"
        }
      ],
      "name": "balanceOf",
      "outputs": [
        {
          "internalType": "uint256",
          "name": "",
          "type": "uint256"
        }
      ],
      "stateMutability": "view",
      "type": "function"
    },
    {
      "inputs": [
        {
          "components": [
            {
              "internalType": "string",
              "name": "name",
              "type": "string"
            },
            {
              "internalType": "string",
              "name": "description",
              "type": "string"
            },
            {
              "internalType": "string",
              "name": "image",
              "type": "string"
            }
          ],
          "internalType": "struct Tind3rMembership.Tind3rProfile",
          "name": "userProfile",
          "type": "tuple"
        }
      ],
      "name": "createProfile",
      "outputs": [
        {
          "internalType": "uint256",
          "name": "",
          "type": "uint256"
        }
      ],
      "stateMutability": "nonpayable",
      "type": "function"
    },
    {
      "inputs": [],
      "name": "deleteProfile",
      "outputs": [],
      "stateMutability": "nonpayable",
      "type": "function"
    },
    {
      "inputs": [
        {
          "internalType": "uint256",
          "name": "tokenId",
          "type": "uint256"
        }
      ],
      "name": "getApproved",
      "outputs": [
        {
          "internalType": "address",
          "name": "",
          "type": "address"
        }
      ],
      "stateMutability": "view",
      "type": "function"
    },
    {
      "inputs": [
        {
          "internalType": "address",
          "name": "user",
          "type": "address"
        }
      ],
      "name": "getUserId",
      "outputs": [
        {
          "internalType": "uint256",
          "name": "",
          "type": "uint256"
        }
      ],
      "stateMutability": "view",
      "type": "function"
    },
    {
      "inputs": [
        {
          "internalType": "string",
          "name": "initBaseURI",
          "type": "string"
        }
      ],
      "name": "initialize",
      "outputs": [],
      "stateMutability": "nonpayable",
      "type": "function"
    },
    {
      "inputs": [
        {
          "internalType": "address",
          "name": "owner",
          "type": "address"
        },
        {
          "internalType": "address",
          "name": "operator",
          "type": "address"
        }
      ],
      "name": "isApprovedForAll",
      "outputs": [
        {
          "internalType": "bool",
          "name": "",
          "type": "bool"
        }
      ],
      "stateMutability": "view",
      "type": "function"
    },
    {
      "inputs": [],
      "name": "metadataURI",
      "outputs": [
        {
          "internalType": "string",
          "name": "",
          "type": "string"
        }
      ],
      "stateMutability": "view",
      "type": "function"
    },
    {
      "inputs": [],
      "name": "name",
      "outputs": [
        {
          "internalType": "string",
          "name": "",
          "type": "string"
        }
      ],
      "stateMutability": "view",
      "type": "function"
    },
    {
      "inputs": [],
      "name": "owner",
      "outputs": [
        {
          "internalType": "address",
          "name": "",
          "type": "address"
        }
      ],
      "stateMutability": "view",
      "type": "function"
    },
    {
      "inputs": [
        {
          "internalType": "uint256",
          "name": "tokenId",
          "type": "uint256"
        }
      ],
      "name": "ownerOf",
      "outputs": [
        {
          "internalType": "address",
          "name": "",
          "type": "address"
        }
      ],
      "stateMutability": "view",
      "type": "function"
    },
    {
      "inputs": [],
      "name": "proxiableUUID",
      "outputs": [
        {
          "internalType": "bytes32",
          "name": "",
          "type": "bytes32"
        }
      ],
      "stateMutability": "view",
      "type": "function"
    },
    {
      "inputs": [],
      "name": "renounceOwnership",
      "outputs": [],
      "stateMutability": "nonpayable",
      "type": "function"
    },
    {
      "inputs": [
        {
          "internalType": "address",
          "name": "from",
          "type": "address"
        },
        {
          "internalType": "address",
          "name": "to",
          "type": "address"
        },
        {
          "internalType": "uint256",
          "name": "tokenId",
          "type": "uint256"
        }
      ],
      "name": "safeTransferFrom",
      "outputs": [],
      "stateMutability": "nonpayable",
      "type": "function"
    },
    {
      "inputs": [
        {
          "internalType": "address",
          "name": "from",
          "type": "address"
        },
        {
          "internalType": "address",
          "name": "to",
          "type": "address"
        },
        {
          "internalType": "uint256",
          "name": "tokenId",
          "type": "uint256"
        },
        {
          "internalType": "bytes",
          "name": "_data",
          "type": "bytes"
        }
      ],
      "name": "safeTransferFrom",
      "outputs": [],
      "stateMutability": "nonpayable",
      "type": "function"
    },
    {
      "inputs": [
        {
          "internalType": "address",
          "name": "operator",
          "type": "address"
        },
        {
          "internalType": "bool",
          "name": "approved",
          "type": "bool"
        }
      ],
      "name": "setApprovalForAll",
      "outputs": [],
      "stateMutability": "nonpayable",
      "type": "function"
    },
    {
      "inputs": [
        {
          "internalType": "string",
          "name": "newBaseURI",
          "type": "string"
        }
      ],
      "name": "setBaseURI",
      "outputs": [],
      "stateMutability": "nonpayable",
      "type": "function"
    },
    {
      "inputs": [
        {
          "internalType": "address",
          "name": "newController",
          "type": "address"
        }
      ],
      "name": "setController",
      "outputs": [],
      "stateMutability": "nonpayable",
      "type": "function"
    },
    {
      "inputs": [
        {
          "internalType": "bytes4",
          "name": "interfaceId",
          "type": "bytes4"
        }
      ],
      "name": "supportsInterface",
      "outputs": [
        {
          "internalType": "bool",
          "name": "",
          "type": "bool"
        }
      ],
      "stateMutability": "view",
      "type": "function"
    },
    {
      "inputs": [],
      "name": "symbol",
      "outputs": [
        {
          "internalType": "string",
          "name": "",
          "type": "string"
        }
      ],
      "stateMutability": "view",
      "type": "function"
    },
    {
      "inputs": [
        {
          "internalType": "uint256",
          "name": "tokenId",
          "type": "uint256"
        }
      ],
      "name": "tokenURI",
      "outputs": [
        {
          "internalType": "string",
          "name": "",
          "type": "string"
        }
      ],
      "stateMutability": "view",
      "type": "function"
    },
    {
      "inputs": [],
      "name": "totalSupply",
      "outputs": [
        {
          "internalType": "uint256",
          "name": "",
          "type": "uint256"
        }
      ],
      "stateMutability": "view",
      "type": "function"
    },
    {
      "inputs": [
        {
          "internalType": "address",
          "name": "from",
          "type": "address"
        },
        {
          "internalType": "address",
          "name": "to",
          "type": "address"
        },
        {
          "internalType": "uint256",
          "name": "tokenId",
          "type": "uint256"
        }
      ],
      "name": "transferFrom",
      "outputs": [],
      "stateMutability": "nonpayable",
      "type": "function"
    },
    {
      "inputs": [
        {
          "internalType": "address",
          "name": "newOwner",
          "type": "address"
        }
      ],
      "name": "transferOwnership",
      "outputs": [],
      "stateMutability": "nonpayable",
      "type": "function"
    },
    {
      "inputs": [
        {
          "components": [
            {
              "internalType": "string",
              "name": "name",
              "type": "string"
            },
            {
              "internalType": "string",
              "name": "description",
              "type": "string"
            },
            {
              "internalType": "string",
              "name": "image",
              "type": "string"
            }
          ],
          "internalType": "struct Tind3rMembership.Tind3rProfile",
          "name": "newProfile",
          "type": "tuple"
        }
      ],
      "name": "updateProfile",
      "outputs": [
        {
          "internalType": "uint256",
          "name": "",
          "type": "uint256"
        }
      ],
      "stateMutability": "nonpayable",
      "type": "function"
    },
    {
      "inputs": [
        {
          "internalType": "address",
          "name": "newImplementation",
          "type": "address"
        }
      ],
      "name": "upgradeTo",
      "outputs": [],
      "stateMutability": "nonpayable",
      "type": "function"
    },
    {
      "inputs": [
        {
          "internalType": "address",
          "name": "newImplementation",
          "type": "address"
        },
        {
          "internalType": "bytes",
          "name": "data",
          "type": "bytes"
        }
      ],
      "name": "upgradeToAndCall",
      "outputs": [],
      "stateMutability": "payable",
      "type": "function"
    }
  ],
  "numDeployments": 7,
  "solcInputHash": "9a91736aa2e079e0c8f573f844cf2fec",
  "bytecode": "0x60a06040523060805234801561001457600080fd5b506080516132c361004c60003960008181610b2601528181610b6f01528181610c2f01528181610c6f0152610d0201526132c36000f3fe6080604052600436106101b75760003560e01c80636352211e116100ec578063a22cb4651161008a578063de9b059111610064578063de9b0591146104aa578063e985e9c5146104ca578063f2fde38b146104ea578063f62d18881461050a57600080fd5b8063a22cb4651461044a578063b88d4fde1461046a578063c87b56dd1461048a57600080fd5b8063715018a6116100c6578063715018a6146103e25780638da5cb5b146103f757806392eefe9b1461041557806395d89b411461043557600080fd5b80636352211e1461038d5780636d4540eb146103ad57806370a08231146103c257600080fd5b806323b872dd1161015957806342842e0e1161013357806342842e0e146103255780634f1ef2861461034557806352d1902d1461035857806355f804b31461036d57600080fd5b806323b872dd146102c55780632b956ff7146102e55780633659cfe61461030557600080fd5b8063081812fc11610195578063081812fc14610228578063095ea7b31461026057806318160ddd146102825780631e88e319146102a557600080fd5b806301ffc9a7146101bc57806303ee438c146101f157806306fdde0314610213575b600080fd5b3480156101c857600080fd5b506101dc6101d73660046125aa565b61052a565b60405190151581526020015b60405180910390f35b3480156101fd57600080fd5b5061020661057c565b6040516101e8919061261f565b34801561021f57600080fd5b506102066105d1565b34801561023457600080fd5b50610248610243366004612632565b61066c565b6040516001600160a01b0390911681526020016101e8565b34801561026c57600080fd5b5061028061027b366004612667565b6106b9565b005b34801561028e57600080fd5b50610297610767565b6040519081526020016101e8565b3480156102b157600080fd5b506102976102c0366004612691565b610786565b3480156102d157600080fd5b506102806102e03660046126cc565b6108de565b3480156102f157600080fd5b50610297610300366004612708565b610ada565b34801561031157600080fd5b50610280610320366004612708565b610b1b565b34801561033157600080fd5b506102806103403660046126cc565b610c04565b6102806103533660046127c6565b610c24565b34801561036457600080fd5b50610297610cf5565b34801561037957600080fd5b50610280610388366004612814565b610da8565b34801561039957600080fd5b506102486103a8366004612632565b610dbc565b3480156103b957600080fd5b50610280610dc7565b3480156103ce57600080fd5b506102976103dd366004612708565b610ed3565b3480156103ee57600080fd5b50610280610f3c565b34801561040357600080fd5b506097546001600160a01b0316610248565b34801561042157600080fd5b50610280610430366004612708565b610f50565b34801561044157600080fd5b50610206610fcb565b34801561045657600080fd5b50610280610465366004612886565b610fe3565b34801561047657600080fd5b506102806104853660046128c2565b61108a565b34801561049657600080fd5b506102066104a5366004612632565b6110d4565b3480156104b657600080fd5b506102976104c5366004612691565b61115d565b3480156104d657600080fd5b506101dc6104e536600461292a565b611290565b3480156104f657600080fd5b50610280610505366004612708565b6112cd565b34801561051657600080fd5b50610280610525366004612814565b611343565b60006301ffc9a760e01b6001600160e01b03198316148061055b57506380ac58cd60e01b6001600160e01b03198316145b806105765750635b5e139f60e01b6001600160e01b03198316145b92915050565b60606000610588611727565b90508051600014156105a857505060408051602081019091526000815290565b8060ca6040516020016105bc929190612a32565b60405160208183030381529060405291505090565b60606105db611736565b60020180546105e99061295d565b80601f01602080910402602001604051908101604052809291908181526020018280546106159061295d565b80156106625780601f1061063757610100808354040283529160200191610662565b820191906000526020600020905b81548152906001019060200180831161064557829003601f168201915b5050505050905090565b60006106778261175a565b610694576040516333d1c03960e21b815260040160405180910390fd5b61069c611736565b60009283526006016020525060409020546001600160a01b031690565b60006106c482610dbc565b9050336001600160a01b038216146106fd576106e08133611290565b6106fd576040516367d9dca160e11b815260040160405180910390fd5b82610706611736565b6000848152600691909101602052604080822080546001600160a01b0319166001600160a01b0394851617905551849286811692908516917f8c5be1e5ebec7d5bd14f71427d1e84f3dd0314c0f7b2291e5b200ac8c7c3b9259190a4505050565b600080610772611736565b6001015461077e611736565b540303919050565b60003381610792611796565b60c95460cb549192506001600160a01b03169063eaf5d04e90309060ca6107b8866117a6565b6107c28a80612a85565b6107cf60208d018d612a85565b6107dc60408f018f612a85565b6040516020016107f3989796959493929190612ad3565b6040516020818303038152906040526040518463ffffffff1660e01b815260040161082093929190612ba0565b600060405180830381600087803b15801561083a57600080fd5b505af115801561084e573d6000803e3d6000fd5b5050505061086d826001604051806020016040528060008152506118ac565b6108778282611922565b807f12225c2549977681619cd7fc7e95a20e224e85d912926c995db1b10ffb4cfdeb6108a38680612a85565b6108b06020890189612a85565b6108bd60408b018b612a85565b6040516108cf96959493929190612bf0565b60405180910390a29392505050565b60006108e98261198b565b9050836001600160a01b0316816001600160a01b03161461091c5760405162a1148160e81b815260040160405180910390fd5b60008061092884611a19565b9150915061094d81876109383390565b6001600160a01b039081169116811491141790565b6109785761095b8633611290565b61097857604051632ce44b5f60e11b815260040160405180910390fd5b6001600160a01b03851661099f57604051633a954ecd60e21b815260040160405180910390fd5b6109ac8686866001611a41565b80156109b757600082555b6109bf611736565b6001600160a01b03871660009081526005919091016020526040902080546000190190556109eb611736565b6001600160a01b03861660008181526005929092016020526040909120805460010190554260a01b17600160e11b17610a22611736565b60008681526004919091016020526040902055600160e11b8316610a915760018401610a4c611736565b60008281526004919091016020526040902054610a8f57610a6b611736565b548114610a8f5783610a7b611736565b600083815260049190910160205260409020555b505b83856001600160a01b0316876001600160a01b03167fddf252ad1be2c89b69c2b068fc378daa952ba7f163c4a11628f55a4df523b3ef60405160405180910390a4505050505050565b6000610ae582610ed3565b610b0257604051631dbbc24b60e21b815260040160405180910390fd5b610b0b82611a83565b67ffffffffffffffff1692915050565b306001600160a01b037f0000000000000000000000000000000000000000000000000000000000000000161415610b6d5760405162461bcd60e51b8152600401610b6490612c39565b60405180910390fd5b7f00000000000000000000000000000000000000000000000000000000000000006001600160a01b0316610bb6600080516020613227833981519152546001600160a01b031690565b6001600160a01b031614610bdc5760405162461bcd60e51b8152600401610b6490612c85565b610be581611ab6565b60408051600080825260208201909252610c0191839190611abe565b50565b610c1f8383836040518060200160405280600081525061108a565b505050565b306001600160a01b037f0000000000000000000000000000000000000000000000000000000000000000161415610c6d5760405162461bcd60e51b8152600401610b6490612c39565b7f00000000000000000000000000000000000000000000000000000000000000006001600160a01b0316610cb6600080516020613227833981519152546001600160a01b031690565b6001600160a01b031614610cdc5760405162461bcd60e51b8152600401610b6490612c85565b610ce582611ab6565b610cf182826001611abe565b5050565b6000306001600160a01b037f00000000000000000000000000000000000000000000000000000000000000001614610d955760405162461bcd60e51b815260206004820152603860248201527f555550535570677261646561626c653a206d757374206e6f742062652063616c60448201527f6c6564207468726f7567682064656c656761746563616c6c00000000000000006064820152608401610b64565b5060008051602061322783398151915290565b610db0611c29565b610c1f60cc8383612487565b60006105768261198b565b33610dd181610ed3565b610dee57604051631dbbc24b60e21b815260040160405180910390fd5b6000610df982611a83565b60c95460cb5467ffffffffffffffff9290921692506001600160a01b03169063eaf5d04e90309060ca610e2b866117a6565b604051602001610e3c929190612cd1565b6040516020818303038152906040526040518463ffffffff1660e01b8152600401610e6993929190612ba0565b600060405180830381600087803b158015610e8357600080fd5b505af1158015610e97573d6000803e3d6000fd5b50505050610ea481611c83565b60405181907fdb08c4b34f4351ee94fa8875be45bd4b528cba629ed087fe606b697f2b37148290600090a25050565b60006001600160a01b038216610efc576040516323d3ad8160e21b815260040160405180910390fd5b67ffffffffffffffff610f0d611736565b6005016000846001600160a01b03166001600160a01b0316815260200190815260200160002054169050919050565b610f44611c29565b610f4e6000611c8e565b565b610f58611c29565b60c95460cb54604051638bb0ab9760e01b815230600482015260248101919091526001600160a01b03838116604483015290911690638bb0ab9790606401600060405180830381600087803b158015610fb057600080fd5b505af1158015610fc4573d6000803e3d6000fd5b5050505050565b6060610fd5611736565b60030180546105e99061295d565b6001600160a01b03821633141561100d5760405163b06307db60e01b815260040160405180910390fd5b80611016611736565b336000818152600792909201602090815260408084206001600160a01b03881680865290835293819020805460ff19169515159590951790945592518415158152919290917f17307eab39ab6107e8899845ad3d59bd9653f200f220920489ca2b5937696c31910160405180910390a35050565b6110958484846108de565b6001600160a01b0383163b156110ce576110b184848484611ce0565b6110ce576040516368d2bf6b60e11b815260040160405180910390fd5b50505050565b60606110df8261175a565b6110fc57604051630a14c4b560e41b815260040160405180910390fd5b6000611106611727565b9050805160001415611128575050604080516020810190915260008152919050565b8060ca611134856117a6565b60405160200161114693929190612d2f565b604051602081830303815290604052915050919050565b600033600161116b82610ed3565b101561118a57604051631dbbc24b60e21b815260040160405180910390fd5b600061119582611a83565b60c95460cb5467ffffffffffffffff9290921692506001600160a01b03169063eaf5d04e90309060ca6111c88980612a85565b6111d560208c018c612a85565b6111e260408e018e612a85565b6111eb8c6117a6565b604051602001611202989796959493929190612e60565b6040516020818303038152906040526040518463ffffffff1660e01b815260040161122f93929190612ba0565b600060405180830381600087803b15801561124957600080fd5b505af115801561125d573d6000803e3d6000fd5b508392507f12225c2549977681619cd7fc7e95a20e224e85d912926c995db1b10ffb4cfdeb91506108a390508680612a85565b600061129a611736565b6001600160a01b039384166000908152600791909101602090815260408083209490951682529290925250205460ff1690565b6112d5611c29565b6001600160a01b03811661133a5760405162461bcd60e51b815260206004820152602660248201527f4f776e61626c653a206e6577206f776e657220697320746865207a65726f206160448201526564647265737360d01b6064820152608401610b64565b610c0181611c8e565b60008051602061326e83398151915254610100900460ff166113785760008051602061326e8339815191525460ff161561137c565b303b155b6113ee5760405162461bcd60e51b815260206004820152603760248201527f455243373231415f5f496e697469616c697a61626c653a20636f6e747261637460448201527f20697320616c726561647920696e697469616c697a65640000000000000000006064820152608401610b64565b60008051602061326e83398151915254610100900460ff1615801561142a5760008051602061326e833981519152805461ffff19166101011790555b600054610100900460ff161580801561144a5750600054600160ff909116105b806114645750303b158015611464575060005460ff166001145b6114c75760405162461bcd60e51b815260206004820152602e60248201527f496e697469616c697a61626c653a20636f6e747261637420697320616c72656160448201526d191e481a5b9a5d1a585b1a5e995960921b6064820152608401610b64565b6000805460ff1916600117905580156114ea576000805461ff0019166101001790555b6115376040518060400160405280601081526020016f054696e6433724d656d626572736869760841b8152506040518060400160405280600381526020016254334d60e81b815250611dc8565b61153f611e06565b611547611e35565b61154f611e5c565b60c980546001600160a01b0319166001600160a01b0392909216919091179055600061157a466117a6565b60c9546040805180820182526011815270074696e6433725f6d656d6265727368697607c1b60208083019190915291519394506001600160a01b0390921692633a9151b09230926115cd92879101612f21565b6040516020818303038152906040526040518363ffffffff1660e01b81526004016115f9929190612fc6565b6020604051808303816000875af1158015611618573d6000803e3d6000fd5b505050506040513d601f19601f8201168201806040525081019061163c9190612fea565b60cb8190555060405180604001604052806011815260200170074696e6433725f6d656d6265727368697607c1b8152508161167860cb546117a6565b60405160200161168a93929190613003565b60405160208183030381529060405260ca90805190602001906116ae92919061250b565b506116bb60cc8686612487565b50508015611703576000805461ff0019169055604051600181527f7f26b83ff96e1f2b6a682f133852f6798a09c465da95921460cefb38474024989060200160405180910390a15b508015610c1f57505060008051602061326e833981519152805461ff001916905550565b606060cc80546105e99061295d565b7f2569078dfb4b0305704d3008e7403993ae9601b85f7ae5e742de3de8f8011c4090565b6000611764611736565b54821080156105765750600160e01b61177b611736565b60008481526004919091016020526040902054161592915050565b60006117a0611736565b54919050565b6060816117ca5750506040805180820190915260018152600360fc1b602082015290565b8160005b81156117f457806117de81613073565b91506117ed9050600a836130a4565b91506117ce565b60008167ffffffffffffffff81111561180f5761180f612723565b6040519080825280601f01601f191660200182016040528015611839576020820181803683370190505b5090505b84156118a45761184e6001836130b8565b915061185b600a866130cf565b6118669060306130e3565b60f81b81838151811061187b5761187b6130fb565b60200101906001600160f81b031916908160001a90535061189d600a866130a4565b945061183d565b949350505050565b6118b68383611f04565b6001600160a01b0383163b15610c1f5760006118d0611736565b5490508281035b6118ea6000868380600101945086611ce0565b611907576040516368d2bf6b60e11b815260040160405180910390fd5b8181106118d75781611917611736565b5414610fc457600080fd5b600061192c611736565b6001600160a01b038416600090815260059190910160205260409020546001600160c01b031660c083901b1790508181611964611736565b6001600160a01b039095166000908152600595909501602052604090942093909355505050565b600081611996611736565b54811015611a005760006119a8611736565b600083815260049190910160205260409020549050600160e01b81166119fe575b806119f7576119d6611736565b600019909201600081815260049390930160205260409092205490506119c9565b9392505050565b505b604051636f96cda160e11b815260040160405180910390fd5b6000806000611a26611736565b60009485526006016020525050604090912080549092909150565b6001600160a01b038416151580611a6057506001600160a01b03831615155b15611a7e57604051631b5722f560e01b815260040160405180910390fd5b6110ce565b600060c0611a8f611736565b6001600160a01b03909316600090815260059390930160205260409092205490911c919050565b610c01611c29565b7f4910fdfa16fed3260ed0e7147f7cc6da11a60208b5b9406d12a635614ffd91435460ff1615611af157610c1f8361201e565b826001600160a01b03166352d1902d6040518163ffffffff1660e01b8152600401602060405180830381865afa925050508015611b4b575060408051601f3d908101601f19168201909252611b4891810190612fea565b60015b611bae5760405162461bcd60e51b815260206004820152602e60248201527f45524331393637557067726164653a206e657720696d706c656d656e7461746960448201526d6f6e206973206e6f74205555505360901b6064820152608401610b64565b6000805160206132278339815191528114611c1d5760405162461bcd60e51b815260206004820152602960248201527f45524331393637557067726164653a20756e737570706f727465642070726f786044820152681a58589b195555525160ba1b6064820152608401610b64565b50610c1f8383836120ba565b6097546001600160a01b03163314610f4e5760405162461bcd60e51b815260206004820181905260248201527f4f776e61626c653a2063616c6c6572206973206e6f7420746865206f776e65726044820152606401610b64565b610c018160006120df565b609780546001600160a01b038381166001600160a01b0319831681179093556040519116919082907f8be0079c531659141344cd1fd0a4f28419497f9722a3daafe3b4186f6b6457e090600090a35050565b604051630a85bd0160e11b81526000906001600160a01b0385169063150b7a0290611d15903390899088908890600401613111565b6020604051808303816000875af1925050508015611d50575060408051601f3d908101601f19168201909252611d4d9181019061314e565b60015b611dab573d808015611d7e576040519150601f19603f3d011682016040523d82523d6000602084013e611d83565b606091505b508051611da3576040516368d2bf6b60e11b815260040160405180910390fd5b805181602001fd5b6001600160e01b031916630a85bd0160e11b149050949350505050565b60008051602061326e83398151915254610100900460ff16611dfc5760405162461bcd60e51b8152600401610b649061316b565b610cf18282612267565b600054610100900460ff16611e2d5760405162461bcd60e51b8152600401610b64906131bf565b610f4e6122ea565b600054610100900460ff16610f4e5760405162461bcd60e51b8152600401610b64906131bf565b60004660051415611e80575073da8ea22d092307874f30a1f277d1388dca0ba97a90565b4660451415611ea2575073f2c9fc73884a9c6e6db58778176ab67989139d0690565b46620138811415611ec65750734b48841d4b32c4650e4abc117a03fe8b51f38f6890565b46617a691415611ee9575073e7f1725e7734ce288f8367e1bb143e90bb3f051290565b60405163264e42cf60e01b8152466004820152602401610b64565b6000611f0e611736565b5490506001600160a01b038316611f3757604051622e076360e81b815260040160405180910390fd5b81611f555760405163b562e8dd60e01b815260040160405180910390fd5b611f626000848385611a41565b680100000000000000018202611f76611736565b6001600160a01b038516600081815260059290920160205260409091208054929092019091554260a01b6001841460e11b1717611fb1611736565b60008381526004919091016020526040902055808281015b6040516001830192906001600160a01b038716906000907fddf252ad1be2c89b69c2b068fc378daa952ba7f163c4a11628f55a4df523b3ef908290a4808210611fc95780612015611736565b5550610c1f9050565b6001600160a01b0381163b61208b5760405162461bcd60e51b815260206004820152602d60248201527f455243313936373a206e657720696d706c656d656e746174696f6e206973206e60448201526c1bdd08184818dbdb9d1c9858dd609a1b6064820152608401610b64565b60008051602061322783398151915280546001600160a01b0319166001600160a01b0392909216919091179055565b6120c38361231a565b6000825111806120d05750805b15610c1f576110ce838361235a565b60006120ea8361198b565b9050806000806120f986611a19565b9150915084156121395761210e818433610938565b6121395761211c8333611290565b61213957604051632ce44b5f60e11b815260040160405180910390fd5b612147836000886001611a41565b801561215257600082555b6fffffffffffffffffffffffffffffffff61216b611736565b6001600160a01b038516600081815260059290920160205260409091208054929092019091554260a01b17600360e01b176121a4611736565b60008881526004919091016020526040902055600160e11b841661221357600186016121ce611736565b60008281526004919091016020526040902054612211576121ed611736565b54811461221157846121fd611736565b600083815260049190910160205260409020555b505b60405186906000906001600160a01b038616907fddf252ad1be2c89b69c2b068fc378daa952ba7f163c4a11628f55a4df523b3ef908390a4612253611736565b600190810180549091019055505050505050565b60008051602061326e83398151915254610100900460ff1661229b5760405162461bcd60e51b8152600401610b649061316b565b816122a4611736565b60020190805190602001906122ba92919061250b565b50806122c4611736565b60030190805190602001906122da92919061250b565b5060006122e5611736565b555050565b600054610100900460ff166123115760405162461bcd60e51b8152600401610b64906131bf565b610f4e33611c8e565b6123238161201e565b6040516001600160a01b038216907fbc7cd75a20ee27fd9adebab32041f755214dbc6bffa90cc0225b39da2e5c2d3b90600090a250565b60606001600160a01b0383163b6123c25760405162461bcd60e51b815260206004820152602660248201527f416464726573733a2064656c65676174652063616c6c20746f206e6f6e2d636f6044820152651b9d1c9858dd60d21b6064820152608401610b64565b600080846001600160a01b0316846040516123dd919061320a565b600060405180830381855af49150503d8060008114612418576040519150601f19603f3d011682016040523d82523d6000602084013e61241d565b606091505b509150915061244582826040518060600160405280602781526020016132476027913961244e565b95945050505050565b6060831561245d5750816119f7565b82511561246d5782518084602001fd5b8160405162461bcd60e51b8152600401610b64919061261f565b8280546124939061295d565b90600052602060002090601f0160209004810192826124b557600085556124fb565b82601f106124ce5782800160ff198235161785556124fb565b828001600101855582156124fb579182015b828111156124fb5782358255916020019190600101906124e0565b5061250792915061257f565b5090565b8280546125179061295d565b90600052602060002090601f01602090048101928261253957600085556124fb565b82601f1061255257805160ff19168380011785556124fb565b828001600101855582156124fb579182015b828111156124fb578251825591602001919060010190612564565b5b808211156125075760008155600101612580565b6001600160e01b031981168114610c0157600080fd5b6000602082840312156125bc57600080fd5b81356119f781612594565b60005b838110156125e25781810151838201526020016125ca565b838111156110ce5750506000910152565b6000815180845261260b8160208601602086016125c7565b601f01601f19169290920160200192915050565b6020815260006119f760208301846125f3565b60006020828403121561264457600080fd5b5035919050565b80356001600160a01b038116811461266257600080fd5b919050565b6000806040838503121561267a57600080fd5b6126838361264b565b946020939093013593505050565b6000602082840312156126a357600080fd5b813567ffffffffffffffff8111156126ba57600080fd5b8201606081850312156119f757600080fd5b6000806000606084860312156126e157600080fd5b6126ea8461264b565b92506126f86020850161264b565b9150604084013590509250925092565b60006020828403121561271a57600080fd5b6119f78261264b565b634e487b7160e01b600052604160045260246000fd5b600082601f83011261274a57600080fd5b813567ffffffffffffffff8082111561276557612765612723565b604051601f8301601f19908116603f0116810190828211818310171561278d5761278d612723565b816040528381528660208588010111156127a657600080fd5b836020870160208301376000602085830101528094505050505092915050565b600080604083850312156127d957600080fd5b6127e28361264b565b9150602083013567ffffffffffffffff8111156127fe57600080fd5b61280a85828601612739565b9150509250929050565b6000806020838503121561282757600080fd5b823567ffffffffffffffff8082111561283f57600080fd5b818501915085601f83011261285357600080fd5b81358181111561286257600080fd5b86602082850101111561287457600080fd5b60209290920196919550909350505050565b6000806040838503121561289957600080fd5b6128a28361264b565b9150602083013580151581146128b757600080fd5b809150509250929050565b600080600080608085870312156128d857600080fd5b6128e18561264b565b93506128ef6020860161264b565b925060408501359150606085013567ffffffffffffffff81111561291257600080fd5b61291e87828801612739565b91505092959194509250565b6000806040838503121561293d57600080fd5b6129468361264b565b91506129546020840161264b565b90509250929050565b600181811c9082168061297157607f821691505b6020821081141561299257634e487b7160e01b600052602260045260246000fd5b50919050565b8054600090600181811c90808316806129b257607f831692505b60208084108214156129d457634e487b7160e01b600052602260045260246000fd5b8180156129e857600181146129f957612a26565b60ff19861689528489019650612a26565b60008881526020902060005b86811015612a1e5781548b820152908501908301612a05565b505084890196505b50505050505092915050565b60008351612a448184602088016125c7565b6d53454c4543542b2a2b46524f4d2b60901b908301908152612a69600e820185612998565b69099b5bd9194f5b1a5cdd60b21b8152600a0195945050505050565b6000808335601e19843603018112612a9c57600080fd5b83018035915067ffffffffffffffff821115612ab757600080fd5b602001915036819003821315612acc57600080fd5b9250929050565b6b024a729a2a92a1024a72a27960a51b81526000612af4600c83018b612998565b7f202869642c206e616d652c206465736372697074696f6e2c20696d61676529208152670ac8298aa8aa640560c31b60208201528951612b3b816028840160208e016125c7565b622c202760e81b602892909101918201528789602b83013763272c202760e01b602b918901918201818152908789602f850137602f9288019283015250838560338301376227293b60e81b930160338101939093525050603601979650505050505050565b60018060a01b038416815282602082015260606040820152600061244560608301846125f3565b81835281816020850137506000828201602090810191909152601f909101601f19169091010190565b606081526000612c0460608301888a612bc7565b8281036020840152612c17818789612bc7565b90508281036040840152612c2c818587612bc7565b9998505050505050505050565b6020808252602c908201527f46756e6374696f6e206d7573742062652063616c6c6564207468726f7567682060408201526b19195b1959d85d1958d85b1b60a21b606082015260800190565b6020808252602c908201527f46756e6374696f6e206d7573742062652063616c6c6564207468726f7567682060408201526b6163746976652070726f787960a01b606082015260800190565b6b02222a622aa2290232927a6960a51b81526000612cf2600c830185612998565b692057484552452069643d60b01b81528351612d1581600a8401602088016125c7565b603b60f81b600a9290910191820152600b01949350505050565b60008451612d418184602089016125c7565b6653454c4543542b60c81b9083019081526d0d4e6dedcbedec4d4cac6e84a64760931b60078201526f2532376964253237253243696425324360801b6015820152732532376e616d652532372532436e616d6525324360601b60258201527f2532376465736372697074696f6e2532372532436465736372697074696f6e25603982015261324360f01b60598201527f253237696d616765253237253243696d6167652532392b000000000000000000605b8201526446524f4d2b60d81b6072820152612e116077820186612998565b9050692b57484552452b69643d60b01b81528351612e3681600a8401602088016125c7565b612e55600a8284010169099b5bd9194f5b1a5cdd60b21b8152600a0190565b979650505050505050565b6602aa82220aa22960cd1b81526000612e7c600783018b612998565b6a20534554206e616d653d2760a81b8152888a600b8301376f272c206465736372697074696f6e3d2760801b600b918a01918201528688601b83013769272c20696d6167653d2760b01b601b91880191820152848660258301376a272057484552452069643d60a81b6025918601918201528351612f018160308401602088016125c7565b603b60f81b603092909101918201526031019a9950505050505050505050565b6c021a922a0aa22902a20a126229609d1b815260008351612f4981600d8501602088016125c7565b605f60f81b600d918401918201528351612f6a81600e8401602088016125c7565b7f2028696420696e74656765722c206e616d6520746578742c2064657363726970600e92909101918201527f74696f6e20746578742c20696d6167652074657874293b000000000000000000602e820152604501949350505050565b6001600160a01b03831681526040602082018190526000906118a4908301846125f3565b600060208284031215612ffc57600080fd5b5051919050565b600084516130158184602089016125c7565b8083019050605f60f81b8082528551613035816001850160208a016125c7565b600192019182015283516130508160028401602088016125c7565b0160020195945050505050565b634e487b7160e01b600052601160045260246000fd5b60006000198214156130875761308761305d565b5060010190565b634e487b7160e01b600052601260045260246000fd5b6000826130b3576130b361308e565b500490565b6000828210156130ca576130ca61305d565b500390565b6000826130de576130de61308e565b500690565b600082198211156130f6576130f661305d565b500190565b634e487b7160e01b600052603260045260246000fd5b6001600160a01b0385811682528416602082015260408101839052608060608201819052600090613144908301846125f3565b9695505050505050565b60006020828403121561316057600080fd5b81516119f781612594565b60208082526034908201527f455243373231415f5f496e697469616c697a61626c653a20636f6e7472616374604082015273206973206e6f7420696e697469616c697a696e6760601b606082015260800190565b6020808252602b908201527f496e697469616c697a61626c653a20636f6e7472616374206973206e6f74206960408201526a6e697469616c697a696e6760a81b606082015260800190565b6000825161321c8184602087016125c7565b919091019291505056fe360894a13ba1a3210667c828492db98dca3e2076cc3735a920a3ca505d382bbc416464726573733a206c6f772d6c6576656c2064656c65676174652063616c6c206661696c6564ee151c8401928dc223602bb187aff91b9a56c7cae5476ef1b3287b085a16c85fa2646970667358221220e1b2047a3f6d2da547242f03803757c8688a7ebadb1fc356cea4860afe8b336364736f6c634300080c0033",
  "devdoc": {
    "kind": "dev",
    "methods": {
      "approve(address,uint256)": {
        "details": "See {IERC721-approve}."
      },
      "balanceOf(address)": {
        "details": "See {IERC721-balanceOf}."
      },
      "createProfile((string,string,string))": {
        "details": "create Tind3r profile with name and image"
      },
      "deleteProfile()": {
        "details": "delete tind3r profile"
      },
      "getApproved(uint256)": {
        "details": "See {IERC721-getApproved}."
      },
      "getUserId(address)": {
        "details": "Get tokenId own by certain user"
      },
      "initialize(string)": {
        "details": "initialization function for upgradeable contract"
      },
      "isApprovedForAll(address,address)": {
        "details": "See {IERC721-isApprovedForAll}."
      },
      "metadataURI()": {
        "details": "get whole data of table"
      },
      "name()": {
        "details": "See {IERC721Metadata-name}."
      },
      "owner()": {
        "details": "Returns the address of the current owner."
      },
      "ownerOf(uint256)": {
        "details": "See {IERC721-ownerOf}."
      },
      "proxiableUUID()": {
        "details": "Implementation of the ERC1822 {proxiableUUID} function. This returns the storage slot used by the implementation. It is used to validate that the this implementation remains valid after an upgrade. IMPORTANT: A proxy pointing at a proxiable contract should not be considered proxiable itself, because this risks bricking a proxy that upgrades to it, by delegating to itself until out of gas. Thus it is critical that this function revert if invoked through a proxy. This is guaranteed by the `notDelegated` modifier."
      },
      "renounceOwnership()": {
        "details": "Leaves the contract without owner. It will not be possible to call `onlyOwner` functions anymore. Can only be called by the current owner. NOTE: Renouncing ownership will leave the contract without an owner, thereby removing any functionality that is only available to the owner."
      },
      "safeTransferFrom(address,address,uint256)": {
        "details": "See {IERC721-safeTransferFrom}."
      },
      "safeTransferFrom(address,address,uint256,bytes)": {
        "details": "See {IERC721-safeTransferFrom}."
      },
      "setApprovalForAll(address,bool)": {
        "details": "See {IERC721-setApprovalForAll}."
      },
      "setBaseURI(string)": {
        "details": "Set baseURI"
      },
      "setController(address)": {
        "details": "Set controller"
      },
      "supportsInterface(bytes4)": {
        "details": "See {IERC165-supportsInterface}."
      },
      "symbol()": {
        "details": "See {IERC721Metadata-symbol}."
      },
      "tokenURI(uint256)": {
        "details": "tokenURI is an example of how to turn a row in your table back into erc721 compliant metadata JSON. Here, we do a simple SELECT statement with function that converts the result into json."
      },
      "totalSupply()": {
        "details": "Returns the total number of tokens in existence. Burned tokens will reduce the count. To get the total number of tokens minted, please see `_totalMinted`."
      },
      "transferFrom(address,address,uint256)": {
        "details": "Transfers `tokenId` from `from` to `to`. Requirements: - `to` cannot be the zero address. - `tokenId` token must be owned by `from`. Emits a {Transfer} event."
      },
      "transferOwnership(address)": {
        "details": "Transfers ownership of the contract to a new account (`newOwner`). Can only be called by the current owner."
      },
      "updateProfile((string,string,string))": {
        "details": "update Tind3r profile with name and image"
      },
      "upgradeTo(address)": {
        "details": "Upgrade the implementation of the proxy to `newImplementation`. Calls {_authorizeUpgrade}. Emits an {Upgraded} event."
      },
      "upgradeToAndCall(address,bytes)": {
        "details": "Upgrade the implementation of the proxy to `newImplementation`, and subsequently execute the function call encoded in `data`. Calls {_authorizeUpgrade}. Emits an {Upgraded} event."
      }
    },
    "version": 1
  },
  "userdoc": {
    "errors": {
      "ApprovalCallerNotOwnerNorApproved()": [
        {
          "notice": "The caller must own the token or be an approved operator."
        }
      ],
      "ApprovalQueryForNonexistentToken()": [
        {
          "notice": "The token does not exist."
        }
      ],
      "ApproveToCaller()": [
        {
          "notice": "The caller cannot approve to their own address."
        }
      ],
      "BalanceQueryForZeroAddress()": [
        {
          "notice": "Cannot query the balance for the zero address."
        }
      ],
      "ChainNotSupported(uint256)": [
        {
          "notice": "Current chain does not have a TablelandTables deployment."
        }
      ],
      "MintERC2309QuantityExceedsLimit()": [
        {
          "notice": "The `quantity` minted with ERC2309 exceeds the safety limit."
        }
      ],
      "MintToZeroAddress()": [
        {
          "notice": "Cannot mint to the zero address."
        }
      ],
      "MintZeroQuantity()": [
        {
          "notice": "The quantity of tokens minted must be more than zero."
        }
      ],
      "OwnerQueryForNonexistentToken()": [
        {
          "notice": "The token does not exist."
        }
      ],
      "OwnershipNotInitializedForExtraData()": [
        {
          "notice": "The `extraData` cannot be set on an unintialized ownership slot."
        }
      ],
      "TransferCallerNotOwnerNorApproved()": [
        {
          "notice": "The caller must own the token or be an approved operator."
        }
      ],
      "TransferFromIncorrectOwner()": [
        {
          "notice": "The token must be owned by `from`."
        }
      ],
      "TransferToNonERC721ReceiverImplementer()": [
        {
          "notice": "Cannot safely transfer to a contract that does not implement the ERC721Receiver interface."
        }
      ],
      "TransferToZeroAddress()": [
        {
          "notice": "Cannot transfer to the zero address."
        }
      ],
      "URIQueryForNonexistentToken()": [
        {
          "notice": "The token does not exist."
        }
      ]
    },
    "kind": "user",
    "methods": {},
    "version": 1
  },
  "storageLayout": {
    "storage": [
      {
        "astId": 527,
        "contract": "contracts/Tind3rMembership.sol:Tind3rMembership",
        "label": "_initialized",
        "offset": 0,
        "slot": "0",
        "type": "t_uint8"
      },
      {
        "astId": 530,
        "contract": "contracts/Tind3rMembership.sol:Tind3rMembership",
        "label": "_initializing",
        "offset": 1,
        "slot": "0",
        "type": "t_bool"
      },
      {
        "astId": 509,
        "contract": "contracts/Tind3rMembership.sol:Tind3rMembership",
        "label": "__gap",
        "offset": 0,
        "slot": "1",
        "type": "t_array(t_uint256)50_storage"
      },
      {
        "astId": 806,
        "contract": "contracts/Tind3rMembership.sol:Tind3rMembership",
        "label": "__gap",
        "offset": 0,
        "slot": "51",
        "type": "t_array(t_uint256)50_storage"
      },
      {
        "astId": 1091,
        "contract": "contracts/Tind3rMembership.sol:Tind3rMembership",
        "label": "__gap",
        "offset": 0,
        "slot": "101",
        "type": "t_array(t_uint256)50_storage"
      },
      {
        "astId": 10,
        "contract": "contracts/Tind3rMembership.sol:Tind3rMembership",
        "label": "_owner",
        "offset": 0,
        "slot": "151",
        "type": "t_address"
      },
      {
        "astId": 130,
        "contract": "contracts/Tind3rMembership.sol:Tind3rMembership",
        "label": "__gap",
        "offset": 0,
        "slot": "152",
        "type": "t_array(t_uint256)49_storage"
      },
      {
        "astId": 1629,
        "contract": "contracts/Tind3rMembership.sol:Tind3rMembership",
        "label": "_tableland",
        "offset": 0,
        "slot": "201",
        "type": "t_contract(ITablelandTables)1519"
      },
      {
        "astId": 1631,
        "contract": "contracts/Tind3rMembership.sol:Tind3rMembership",
        "label": "_metadataTable",
        "offset": 0,
        "slot": "202",
        "type": "t_string_storage"
      },
      {
        "astId": 1633,
        "contract": "contracts/Tind3rMembership.sol:Tind3rMembership",
        "label": "_metadataTableId",
        "offset": 0,
        "slot": "203",
        "type": "t_uint256"
      },
      {
        "astId": 1635,
        "contract": "contracts/Tind3rMembership.sol:Tind3rMembership",
        "label": "_baseURIString",
        "offset": 0,
        "slot": "204",
        "type": "t_string_storage"
      }
    ],
    "types": {
      "t_address": {
        "encoding": "inplace",
        "label": "address",
        "numberOfBytes": "20"
      },
      "t_array(t_uint256)49_storage": {
        "base": "t_uint256",
        "encoding": "inplace",
        "label": "uint256[49]",
        "numberOfBytes": "1568"
      },
      "t_array(t_uint256)50_storage": {
        "base": "t_uint256",
        "encoding": "inplace",
        "label": "uint256[50]",
        "numberOfBytes": "1600"
      },
      "t_bool": {
        "encoding": "inplace",
        "label": "bool",
        "numberOfBytes": "1"
      },
      "t_contract(ITablelandTables)1519": {
        "encoding": "inplace",
        "label": "contract ITablelandTables",
        "numberOfBytes": "20"
      },
      "t_string_storage": {
        "encoding": "bytes",
        "label": "string",
        "numberOfBytes": "32"
      },
      "t_uint256": {
        "encoding": "inplace",
        "label": "uint256",
        "numberOfBytes": "32"
      },
      "t_uint8": {
        "encoding": "inplace",
        "label": "uint8",
        "numberOfBytes": "1"
      }
    }
  }
}