{
  "address": "0xa6D514ceE32d661CAEd3A7415acEa98B717f698e",
  "abi": [
    {
      "inputs": [],
      "name": "ApprovalCallerNotOwnerNorApproved",
      "type": "error"
    },
    {
      "inputs": [],
      "name": "ApprovalQueryForNonexistentToken",
      "type": "error"
    },
    {
      "inputs": [],
      "name": "ApproveToCaller",
      "type": "error"
    },
    {
      "inputs": [],
      "name": "BalanceQueryForZeroAddress",
      "type": "error"
    },
    {
      "inputs": [],
      "name": "CanNotTransferOrBurn",
      "type": "error"
    },
    {
      "inputs": [
        {
          "internalType": "uint256",
          "name": "chainid",
          "type": "uint256"
        }
      ],
      "name": "ChainNotSupported",
      "type": "error"
    },
    {
      "inputs": [
        {
          "internalType": "uint64",
          "name": "",
          "type": "uint64"
        }
      ],
      "name": "ExistentProfile",
      "type": "error"
    },
    {
      "inputs": [],
      "name": "MintERC2309QuantityExceedsLimit",
      "type": "error"
    },
    {
      "inputs": [],
      "name": "MintToZeroAddress",
      "type": "error"
    },
    {
      "inputs": [],
      "name": "MintZeroQuantity",
      "type": "error"
    },
    {
      "inputs": [],
      "name": "NonExistentProfile",
      "type": "error"
    },
    {
      "inputs": [],
      "name": "OwnerQueryForNonexistentToken",
      "type": "error"
    },
    {
      "inputs": [],
      "name": "OwnershipNotInitializedForExtraData",
      "type": "error"
    },
    {
      "inputs": [],
      "name": "TransferCallerNotOwnerNorApproved",
      "type": "error"
    },
    {
      "inputs": [],
      "name": "TransferFromIncorrectOwner",
      "type": "error"
    },
    {
      "inputs": [],
      "name": "TransferToNonERC721ReceiverImplementer",
      "type": "error"
    },
    {
      "inputs": [],
      "name": "TransferToZeroAddress",
      "type": "error"
    },
    {
      "inputs": [],
      "name": "URIQueryForNonexistentToken",
      "type": "error"
    },
    {
      "anonymous": false,
      "inputs": [
        {
          "indexed": false,
          "internalType": "address",
          "name": "previousAdmin",
          "type": "address"
        },
        {
          "indexed": false,
          "internalType": "address",
          "name": "newAdmin",
          "type": "address"
        }
      ],
      "name": "AdminChanged",
      "type": "event"
    },
    {
      "anonymous": false,
      "inputs": [
        {
          "indexed": true,
          "internalType": "address",
          "name": "owner",
          "type": "address"
        },
        {
          "indexed": true,
          "internalType": "address",
          "name": "approved",
          "type": "address"
        },
        {
          "indexed": true,
          "internalType": "uint256",
          "name": "tokenId",
          "type": "uint256"
        }
      ],
      "name": "Approval",
      "type": "event"
    },
    {
      "anonymous": false,
      "inputs": [
        {
          "indexed": true,
          "internalType": "address",
          "name": "owner",
          "type": "address"
        },
        {
          "indexed": true,
          "internalType": "address",
          "name": "operator",
          "type": "address"
        },
        {
          "indexed": false,
          "internalType": "bool",
          "name": "approved",
          "type": "bool"
        }
      ],
      "name": "ApprovalForAll",
      "type": "event"
    },
    {
      "anonymous": false,
      "inputs": [
        {
          "indexed": true,
          "internalType": "address",
          "name": "beacon",
          "type": "address"
        }
      ],
      "name": "BeaconUpgraded",
      "type": "event"
    },
    {
      "anonymous": false,
      "inputs": [
        {
          "indexed": true,
          "internalType": "uint256",
          "name": "fromTokenId",
          "type": "uint256"
        },
        {
          "indexed": false,
          "internalType": "uint256",
          "name": "toTokenId",
          "type": "uint256"
        },
        {
          "indexed": true,
          "internalType": "address",
          "name": "from",
          "type": "address"
        },
        {
          "indexed": true,
          "internalType": "address",
          "name": "to",
          "type": "address"
        }
      ],
      "name": "ConsecutiveTransfer",
      "type": "event"
    },
    {
      "anonymous": false,
      "inputs": [
        {
          "indexed": false,
          "internalType": "uint8",
          "name": "version",
          "type": "uint8"
        }
      ],
      "name": "Initialized",
      "type": "event"
    },
    {
      "anonymous": false,
      "inputs": [
        {
          "indexed": true,
          "internalType": "uint256",
          "name": "tokenId",
          "type": "uint256"
        },
        {
          "indexed": false,
          "internalType": "string",
          "name": "name",
          "type": "string"
        },
        {
          "indexed": false,
          "internalType": "string",
          "name": "description",
          "type": "string"
        },
        {
          "indexed": false,
          "internalType": "string",
          "name": "image",
          "type": "string"
        },
        {
          "indexed": false,
          "internalType": "uint64",
          "name": "dateOfBirth",
          "type": "uint64"
        },
        {
          "indexed": true,
          "internalType": "uint8",
          "name": "gender",
          "type": "uint8"
        },
        {
          "indexed": true,
          "internalType": "uint8",
          "name": "sexOrientation",
          "type": "uint8"
        },
        {
          "indexed": false,
          "internalType": "uint64",
          "name": "insteretVector",
          "type": "uint64"
        }
      ],
      "name": "NewProfile",
      "type": "event"
    },
    {
      "anonymous": false,
      "inputs": [
        {
          "indexed": true,
          "internalType": "address",
          "name": "previousOwner",
          "type": "address"
        },
        {
          "indexed": true,
          "internalType": "address",
          "name": "newOwner",
          "type": "address"
        }
      ],
      "name": "OwnershipTransferred",
      "type": "event"
    },
    {
      "anonymous": false,
      "inputs": [
        {
          "indexed": true,
          "internalType": "address",
          "name": "from",
          "type": "address"
        },
        {
          "indexed": true,
          "internalType": "address",
          "name": "to",
          "type": "address"
        },
        {
          "indexed": true,
          "internalType": "uint256",
          "name": "tokenId",
          "type": "uint256"
        }
      ],
      "name": "Transfer",
      "type": "event"
    },
    {
      "anonymous": false,
      "inputs": [
        {
          "indexed": true,
          "internalType": "address",
          "name": "implementation",
          "type": "address"
        }
      ],
      "name": "Upgraded",
      "type": "event"
    },
    {
      "inputs": [
        {
          "internalType": "address",
          "name": "to",
          "type": "address"
        },
        {
          "internalType": "uint256",
          "name": "tokenId",
          "type": "uint256"
        }
      ],
      "name": "approve",
      "outputs": [],
      "stateMutability": "nonpayable",
      "type": "function"
    },
    {
      "inputs": [
        {
          "internalType": "address",
          "name": "owner",
          "type": "address"
        }
      ],
      "name": "balanceOf",
      "outputs": [
        {
          "internalType": "uint256",
          "name": "",
          "type": "uint256"
        }
      ],
      "stateMutability": "view",
      "type": "function"
    },
    {
      "inputs": [
        {
          "internalType": "string",
          "name": "name",
          "type": "string"
        },
        {
          "internalType": "string",
          "name": "description",
          "type": "string"
        },
        {
          "internalType": "string",
          "name": "image",
          "type": "string"
        }
      ],
      "name": "createProfile",
      "outputs": [
        {
          "internalType": "uint256",
          "name": "",
          "type": "uint256"
        }
      ],
      "stateMutability": "nonpayable",
      "type": "function"
    },
    {
      "inputs": [],
      "name": "deleteProfile",
      "outputs": [],
      "stateMutability": "nonpayable",
      "type": "function"
    },
    {
      "inputs": [
        {
          "internalType": "uint256",
          "name": "tokenId",
          "type": "uint256"
        }
      ],
      "name": "getApproved",
      "outputs": [
        {
          "internalType": "address",
          "name": "",
          "type": "address"
        }
      ],
      "stateMutability": "view",
      "type": "function"
    },
    {
      "inputs": [
        {
          "internalType": "address",
          "name": "user",
          "type": "address"
        }
      ],
      "name": "getUserId",
      "outputs": [
        {
          "internalType": "uint256",
          "name": "",
          "type": "uint256"
        }
      ],
      "stateMutability": "view",
      "type": "function"
    },
    {
      "inputs": [
        {
          "internalType": "string",
          "name": "initBaseURI",
          "type": "string"
        }
      ],
      "name": "initialize",
      "outputs": [],
      "stateMutability": "nonpayable",
      "type": "function"
    },
    {
      "inputs": [
        {
          "internalType": "address",
          "name": "owner",
          "type": "address"
        },
        {
          "internalType": "address",
          "name": "operator",
          "type": "address"
        }
      ],
      "name": "isApprovedForAll",
      "outputs": [
        {
          "internalType": "bool",
          "name": "",
          "type": "bool"
        }
      ],
      "stateMutability": "view",
      "type": "function"
    },
    {
      "inputs": [],
      "name": "metadataURI",
      "outputs": [
        {
          "internalType": "string",
          "name": "",
          "type": "string"
        }
      ],
      "stateMutability": "view",
      "type": "function"
    },
    {
      "inputs": [],
      "name": "name",
      "outputs": [
        {
          "internalType": "string",
          "name": "",
          "type": "string"
        }
      ],
      "stateMutability": "view",
      "type": "function"
    },
    {
      "inputs": [],
      "name": "owner",
      "outputs": [
        {
          "internalType": "address",
          "name": "",
          "type": "address"
        }
      ],
      "stateMutability": "view",
      "type": "function"
    },
    {
      "inputs": [
        {
          "internalType": "uint256",
          "name": "tokenId",
          "type": "uint256"
        }
      ],
      "name": "ownerOf",
      "outputs": [
        {
          "internalType": "address",
          "name": "",
          "type": "address"
        }
      ],
      "stateMutability": "view",
      "type": "function"
    },
    {
      "inputs": [],
      "name": "proxiableUUID",
      "outputs": [
        {
          "internalType": "bytes32",
          "name": "",
          "type": "bytes32"
        }
      ],
      "stateMutability": "view",
      "type": "function"
    },
    {
      "inputs": [],
      "name": "renounceOwnership",
      "outputs": [],
      "stateMutability": "nonpayable",
      "type": "function"
    },
    {
      "inputs": [
        {
          "internalType": "address",
          "name": "from",
          "type": "address"
        },
        {
          "internalType": "address",
          "name": "to",
          "type": "address"
        },
        {
          "internalType": "uint256",
          "name": "tokenId",
          "type": "uint256"
        }
      ],
      "name": "safeTransferFrom",
      "outputs": [],
      "stateMutability": "nonpayable",
      "type": "function"
    },
    {
      "inputs": [
        {
          "internalType": "address",
          "name": "from",
          "type": "address"
        },
        {
          "internalType": "address",
          "name": "to",
          "type": "address"
        },
        {
          "internalType": "uint256",
          "name": "tokenId",
          "type": "uint256"
        },
        {
          "internalType": "bytes",
          "name": "_data",
          "type": "bytes"
        }
      ],
      "name": "safeTransferFrom",
      "outputs": [],
      "stateMutability": "nonpayable",
      "type": "function"
    },
    {
      "inputs": [
        {
          "internalType": "address",
          "name": "operator",
          "type": "address"
        },
        {
          "internalType": "bool",
          "name": "approved",
          "type": "bool"
        }
      ],
      "name": "setApprovalForAll",
      "outputs": [],
      "stateMutability": "nonpayable",
      "type": "function"
    },
    {
      "inputs": [
        {
          "internalType": "string",
          "name": "newBaseURI",
          "type": "string"
        }
      ],
      "name": "setBaseURI",
      "outputs": [],
      "stateMutability": "nonpayable",
      "type": "function"
    },
    {
      "inputs": [
        {
          "internalType": "address",
          "name": "newController",
          "type": "address"
        }
      ],
      "name": "setController",
      "outputs": [],
      "stateMutability": "nonpayable",
      "type": "function"
    },
    {
      "inputs": [
        {
          "internalType": "bytes4",
          "name": "interfaceId",
          "type": "bytes4"
        }
      ],
      "name": "supportsInterface",
      "outputs": [
        {
          "internalType": "bool",
          "name": "",
          "type": "bool"
        }
      ],
      "stateMutability": "view",
      "type": "function"
    },
    {
      "inputs": [],
      "name": "symbol",
      "outputs": [
        {
          "internalType": "string",
          "name": "",
          "type": "string"
        }
      ],
      "stateMutability": "view",
      "type": "function"
    },
    {
      "inputs": [
        {
          "internalType": "uint256",
          "name": "tokenId",
          "type": "uint256"
        }
      ],
      "name": "tokenURI",
      "outputs": [
        {
          "internalType": "string",
          "name": "",
          "type": "string"
        }
      ],
      "stateMutability": "view",
      "type": "function"
    },
    {
      "inputs": [],
      "name": "totalSupply",
      "outputs": [
        {
          "internalType": "uint256",
          "name": "",
          "type": "uint256"
        }
      ],
      "stateMutability": "view",
      "type": "function"
    },
    {
      "inputs": [
        {
          "internalType": "address",
          "name": "from",
          "type": "address"
        },
        {
          "internalType": "address",
          "name": "to",
          "type": "address"
        },
        {
          "internalType": "uint256",
          "name": "tokenId",
          "type": "uint256"
        }
      ],
      "name": "transferFrom",
      "outputs": [],
      "stateMutability": "nonpayable",
      "type": "function"
    },
    {
      "inputs": [
        {
          "internalType": "address",
          "name": "newOwner",
          "type": "address"
        }
      ],
      "name": "transferOwnership",
      "outputs": [],
      "stateMutability": "nonpayable",
      "type": "function"
    },
    {
      "inputs": [
        {
          "internalType": "string",
          "name": "name",
          "type": "string"
        },
        {
          "internalType": "string",
          "name": "description",
          "type": "string"
        },
        {
          "internalType": "string",
          "name": "image",
          "type": "string"
        }
      ],
      "name": "updateProfile",
      "outputs": [
        {
          "internalType": "uint256",
          "name": "",
          "type": "uint256"
        }
      ],
      "stateMutability": "nonpayable",
      "type": "function"
    },
    {
      "inputs": [
        {
          "internalType": "address",
          "name": "newImplementation",
          "type": "address"
        }
      ],
      "name": "upgradeTo",
      "outputs": [],
      "stateMutability": "nonpayable",
      "type": "function"
    },
    {
      "inputs": [
        {
          "internalType": "address",
          "name": "newImplementation",
          "type": "address"
        },
        {
          "internalType": "bytes",
          "name": "data",
          "type": "bytes"
        }
      ],
      "name": "upgradeToAndCall",
      "outputs": [],
      "stateMutability": "payable",
      "type": "function"
    }
  ],
  "numDeployments": 5,
  "bytecode": "0x60a06040523060805234801561001457600080fd5b506080516131ce61004c60003960008181610ac001528181610b0901528181610bc901528181610c090152610c9c01526131ce6000f3fe6080604052600436106101b75760003560e01c80636352211e116100ec5780639841c82c1161008a578063c87b56dd11610064578063c87b56dd146104aa578063e985e9c5146104ca578063f2fde38b146104ea578063f62d18881461050a57600080fd5b80639841c82c1461044a578063a22cb4651461046a578063b88d4fde1461048a57600080fd5b8063715018a6116100c6578063715018a6146103e25780638da5cb5b146103f757806392eefe9b1461041557806395d89b411461043557600080fd5b80636352211e1461038d5780636d4540eb146103ad57806370a08231146103c257600080fd5b806323b872dd1161015957806342842e0e1161013357806342842e0e146103255780634f1ef2861461034557806352d1902d1461035857806355f804b31461036d57600080fd5b806323b872dd146102c55780632b956ff7146102e55780633659cfe61461030557600080fd5b8063081812fc11610195578063081812fc14610228578063095ea7b3146102605780631105a5eb1461028257806318160ddd146102b057600080fd5b806301ffc9a7146101bc57806303ee438c146101f157806306fdde0314610213575b600080fd5b3480156101c857600080fd5b506101dc6101d73660046124fd565b61052a565b60405190151581526020015b60405180910390f35b3480156101fd57600080fd5b5061020661057c565b6040516101e89190612572565b34801561021f57600080fd5b506102066105d1565b34801561023457600080fd5b50610248610243366004612585565b61066c565b6040516001600160a01b0390911681526020016101e8565b34801561026c57600080fd5b5061028061027b3660046125ba565b6106b9565b005b34801561028e57600080fd5b506102a261029d36600461262d565b610767565b6040519081526020016101e8565b3480156102bc57600080fd5b506102a2610859565b3480156102d157600080fd5b506102806102e03660046126c7565b610878565b3480156102f157600080fd5b506102a2610300366004612703565b610a74565b34801561031157600080fd5b50610280610320366004612703565b610ab5565b34801561033157600080fd5b506102806103403660046126c7565b610b9e565b6102806103533660046127c1565b610bbe565b34801561036457600080fd5b506102a2610c8f565b34801561037957600080fd5b5061028061038836600461280f565b610d42565b34801561039957600080fd5b506102486103a8366004612585565b610d56565b3480156103b957600080fd5b50610280610d61565b3480156103ce57600080fd5b506102a26103dd366004612703565b610e3e565b3480156103ee57600080fd5b50610280610ea7565b34801561040357600080fd5b506097546001600160a01b0316610248565b34801561042157600080fd5b50610280610430366004612703565b610ebb565b34801561044157600080fd5b50610206610f36565b34801561045657600080fd5b506102a261046536600461262d565b610f4e565b34801561047657600080fd5b50610280610485366004612851565b61106d565b34801561049657600080fd5b506102806104a536600461288d565b611114565b3480156104b657600080fd5b506102066104c5366004612585565b61115e565b3480156104d657600080fd5b506101dc6104e53660046128f5565b6111e7565b3480156104f657600080fd5b50610280610505366004612703565b611224565b34801561051657600080fd5b5061028061052536600461280f565b61129a565b60006301ffc9a760e01b6001600160e01b03198316148061055b57506380ac58cd60e01b6001600160e01b03198316145b806105765750635b5e139f60e01b6001600160e01b03198316145b92915050565b60606000610588611672565b90508051600014156105a857505060408051602081019091526000815290565b8060ca6040516020016105bc9291906129fd565b60405160208183030381529060405291505090565b60606105db611681565b60020180546105e990612928565b80601f016020809104026020016040519081016040528092919081815260200182805461061590612928565b80156106625780601f1061063757610100808354040283529160200191610662565b820191906000526020600020905b81548152906001019060200180831161064557829003601f168201915b5050505050905090565b6000610677826116a5565b610694576040516333d1c03960e21b815260040160405180910390fd5b61069c611681565b60009283526006016020525060409020546001600160a01b031690565b60006106c482610d56565b9050336001600160a01b038216146106fd576106e081336111e7565b6106fd576040516367d9dca160e11b815260040160405180910390fd5b82610706611681565b6000848152600691909101602052604080822080546001600160a01b0319166001600160a01b0394851617905551849286811692908516917f8c5be1e5ebec7d5bd14f71427d1e84f3dd0314c0f7b2291e5b200ac8c7c3b9259190a4505050565b60003361077381610e3e565b60011461079357604051631dbbc24b60e21b815260040160405180910390fd5b600061079e826116e1565b60c95460cb5467ffffffffffffffff9290921692506001600160a01b03169063eaf5d04e90309060ca8d8d8d8d8d8d6107d68c611714565b6040516020016107ed989796959493929190612a50565b6040516020818303038152906040526040518463ffffffff1660e01b815260040161081a93929190612b11565b600060405180830381600087803b15801561083457600080fd5b505af1158015610848573d6000803e3d6000fd5b50929b9a5050505050505050505050565b600080610864611681565b60010154610870611681565b540303919050565b60006108838261181a565b9050836001600160a01b0316816001600160a01b0316146108b65760405162a1148160e81b815260040160405180910390fd5b6000806108c2846118a8565b915091506108e781876108d23390565b6001600160a01b039081169116811491141790565b610912576108f586336111e7565b61091257604051632ce44b5f60e11b815260040160405180910390fd5b6001600160a01b03851661093957604051633a954ecd60e21b815260040160405180910390fd5b61094686868660016118d0565b801561095157600082555b610959611681565b6001600160a01b0387166000908152600591909101602052604090208054600019019055610985611681565b6001600160a01b03861660008181526005929092016020526040909120805460010190554260a01b17600160e11b176109bc611681565b60008681526004919091016020526040902055600160e11b8316610a2b57600184016109e6611681565b60008281526004919091016020526040902054610a2957610a05611681565b548114610a295783610a15611681565b600083815260049190910160205260409020555b505b83856001600160a01b0316876001600160a01b03167fddf252ad1be2c89b69c2b068fc378daa952ba7f163c4a11628f55a4df523b3ef60405160405180910390a4505050505050565b6000610a7f82610e3e565b610a9c57604051631dbbc24b60e21b815260040160405180910390fd5b610aa5826116e1565b67ffffffffffffffff1692915050565b306001600160a01b037f0000000000000000000000000000000000000000000000000000000000000000161415610b075760405162461bcd60e51b8152600401610afe90612b38565b60405180910390fd5b7f00000000000000000000000000000000000000000000000000000000000000006001600160a01b0316610b50600080516020613132833981519152546001600160a01b031690565b6001600160a01b031614610b765760405162461bcd60e51b8152600401610afe90612b84565b610b7f8161191a565b60408051600080825260208201909252610b9b91839190611922565b50565b610bb983838360405180602001604052806000815250611114565b505050565b306001600160a01b037f0000000000000000000000000000000000000000000000000000000000000000161415610c075760405162461bcd60e51b8152600401610afe90612b38565b7f00000000000000000000000000000000000000000000000000000000000000006001600160a01b0316610c50600080516020613132833981519152546001600160a01b031690565b6001600160a01b031614610c765760405162461bcd60e51b8152600401610afe90612b84565b610c7f8261191a565b610c8b82826001611922565b5050565b6000306001600160a01b037f00000000000000000000000000000000000000000000000000000000000000001614610d2f5760405162461bcd60e51b815260206004820152603860248201527f555550535570677261646561626c653a206d757374206e6f742062652063616c60448201527f6c6564207468726f7567682064656c656761746563616c6c00000000000000006064820152608401610afe565b5060008051602061313283398151915290565b610d4a611a8d565b610bb960cc83836123da565b60006105768261181a565b33610d6b81610e3e565b610d8857604051631dbbc24b60e21b815260040160405180910390fd5b6000610d93826116e1565b60c95460cb5467ffffffffffffffff9290921692506001600160a01b03169063eaf5d04e90309060ca610dc586611714565b604051602001610dd6929190612bd0565b6040516020818303038152906040526040518463ffffffff1660e01b8152600401610e0393929190612b11565b600060405180830381600087803b158015610e1d57600080fd5b505af1158015610e31573d6000803e3d6000fd5b50505050610c8b81611ae7565b60006001600160a01b038216610e67576040516323d3ad8160e21b815260040160405180910390fd5b67ffffffffffffffff610e78611681565b6005016000846001600160a01b03166001600160a01b0316815260200190815260200160002054169050919050565b610eaf611a8d565b610eb96000611af2565b565b610ec3611a8d565b60c95460cb54604051638bb0ab9760e01b815230600482015260248101919091526001600160a01b03838116604483015290911690638bb0ab9790606401600060405180830381600087803b158015610f1b57600080fd5b505af1158015610f2f573d6000803e3d6000fd5b5050505050565b6060610f40611681565b60030180546105e990612928565b60003381610f5b82610e3e565b1115610f9057610f6a816116e1565b604051634c5c1d7760e01b815267ffffffffffffffff9091166004820152602401610afe565b6000610f9a611b44565b60c95460cb549192506001600160a01b03169063eaf5d04e90309060ca610fc086611714565b8e8e8e8e8e8e604051602001610fdd989796959493929190612c2e565b6040516020818303038152906040526040518463ffffffff1660e01b815260040161100a93929190612b11565b600060405180830381600087803b15801561102457600080fd5b505af1158015611038573d6000803e3d6000fd5b5050505061105782600160405180602001604052806000815250611b54565b6110618282611bca565b98975050505050505050565b6001600160a01b0382163314156110975760405163b06307db60e01b815260040160405180910390fd5b806110a0611681565b336000818152600792909201602090815260408084206001600160a01b03881680865290835293819020805460ff19169515159590951790945592518415158152919290917f17307eab39ab6107e8899845ad3d59bd9653f200f220920489ca2b5937696c31910160405180910390a35050565b61111f848484610878565b6001600160a01b0383163b156111585761113b84848484611c33565b611158576040516368d2bf6b60e11b815260040160405180910390fd5b50505050565b6060611169826116a5565b61118657604051630a14c4b560e41b815260040160405180910390fd5b6000611190611672565b90508051600014156111b2575050604080516020810190915260008152919050565b8060ca6111be85611714565b6040516020016111d093929190612cfb565b604051602081830303815290604052915050919050565b60006111f1611681565b6001600160a01b039384166000908152600791909101602090815260408083209490951682529290925250205460ff1690565b61122c611a8d565b6001600160a01b0381166112915760405162461bcd60e51b815260206004820152602660248201527f4f776e61626c653a206e6577206f776e657220697320746865207a65726f206160448201526564647265737360d01b6064820152608401610afe565b610b9b81611af2565b60008051602061317983398151915254610100900460ff166112cf576000805160206131798339815191525460ff16156112d3565b303b155b6113455760405162461bcd60e51b815260206004820152603760248201527f455243373231415f5f496e697469616c697a61626c653a20636f6e747261637460448201527f20697320616c726561647920696e697469616c697a65640000000000000000006064820152608401610afe565b60008051602061317983398151915254610100900460ff1615801561138157600080516020613179833981519152805461ffff19166101011790555b600054610100900460ff16158080156113a15750600054600160ff909116105b806113bb5750303b1580156113bb575060005460ff166001145b61141e5760405162461bcd60e51b815260206004820152602e60248201527f496e697469616c697a61626c653a20636f6e747261637420697320616c72656160448201526d191e481a5b9a5d1a585b1a5e995960921b6064820152608401610afe565b6000805460ff191660011790558015611441576000805461ff0019166101001790555b61148e6040518060400160405280601081526020016f054696e6433724d656d626572736869760841b8152506040518060400160405280600381526020016254334d60e81b815250611d1b565b611496611d59565b61149e611d88565b6114a6611daf565b60c980546001600160a01b0319166001600160a01b039290921691909117905560006114d146611714565b60c954604080518082018252600b81526a1d1a5b990cdc97dd195cdd60aa1b60208083019190915291519394506001600160a01b0390921692633a9151b092309261151e92879101612e2c565b6040516020818303038152906040526040518363ffffffff1660e01b815260040161154a929190612ed1565b6020604051808303816000875af1158015611569573d6000803e3d6000fd5b505050506040513d601f19601f8201168201806040525081019061158d9190612ef5565b60cb819055506040518060400160405280600b81526020016a1d1a5b990cdc97dd195cdd60aa1b815250816115c360cb54611714565b6040516020016115d593929190612f0e565b60405160208183030381529060405260ca90805190602001906115f992919061245e565b5061160660cc86866123da565b5050801561164e576000805461ff0019169055604051600181527f7f26b83ff96e1f2b6a682f133852f6798a09c465da95921460cefb38474024989060200160405180910390a15b508015610bb9575050600080516020613179833981519152805461ff001916905550565b606060cc80546105e990612928565b7f2569078dfb4b0305704d3008e7403993ae9601b85f7ae5e742de3de8f8011c4090565b60006116af611681565b54821080156105765750600160e01b6116c6611681565b60008481526004919091016020526040902054161592915050565b600060c06116ed611681565b6001600160a01b03909316600090815260059390930160205260409092205490911c919050565b6060816117385750506040805180820190915260018152600360fc1b602082015290565b8160005b8115611762578061174c81612f7e565b915061175b9050600a83612faf565b915061173c565b60008167ffffffffffffffff81111561177d5761177d61271e565b6040519080825280601f01601f1916602001820160405280156117a7576020820181803683370190505b5090505b8415611812576117bc600183612fc3565b91506117c9600a86612fda565b6117d4906030612fee565b60f81b8183815181106117e9576117e9613006565b60200101906001600160f81b031916908160001a90535061180b600a86612faf565b94506117ab565b949350505050565b600081611825611681565b5481101561188f576000611837611681565b600083815260049190910160205260409020549050600160e01b811661188d575b8061188657611865611681565b60001990920160008181526004939093016020526040909220549050611858565b9392505050565b505b604051636f96cda160e11b815260040160405180910390fd5b60008060006118b5611681565b60009485526006016020525050604090912080549092909150565b336001600160a01b038516158015906118f757506097546001600160a01b03828116911614155b156119155760405163e5a0b96360e01b815260040160405180910390fd5b610f2f565b610b9b611a8d565b7f4910fdfa16fed3260ed0e7147f7cc6da11a60208b5b9406d12a635614ffd91435460ff161561195557610bb983611e57565b826001600160a01b03166352d1902d6040518163ffffffff1660e01b8152600401602060405180830381865afa9250505080156119af575060408051601f3d908101601f191682019092526119ac91810190612ef5565b60015b611a125760405162461bcd60e51b815260206004820152602e60248201527f45524331393637557067726164653a206e657720696d706c656d656e7461746960448201526d6f6e206973206e6f74205555505360901b6064820152608401610afe565b6000805160206131328339815191528114611a815760405162461bcd60e51b815260206004820152602960248201527f45524331393637557067726164653a20756e737570706f727465642070726f786044820152681a58589b195555525160ba1b6064820152608401610afe565b50610bb9838383611ef3565b6097546001600160a01b03163314610eb95760405162461bcd60e51b815260206004820181905260248201527f4f776e61626c653a2063616c6c6572206973206e6f7420746865206f776e65726044820152606401610afe565b610b9b816000611f18565b609780546001600160a01b038381166001600160a01b0319831681179093556040519116919082907f8be0079c531659141344cd1fd0a4f28419497f9722a3daafe3b4186f6b6457e090600090a35050565b6000611b4e611681565b54919050565b611b5e83836120a0565b6001600160a01b0383163b15610bb9576000611b78611681565b5490508281035b611b926000868380600101945086611c33565b611baf576040516368d2bf6b60e11b815260040160405180910390fd5b818110611b7f5781611bbf611681565b5414610f2f57600080fd5b6000611bd4611681565b6001600160a01b038416600090815260059190910160205260409020546001600160c01b031660c083901b1790508181611c0c611681565b6001600160a01b039095166000908152600595909501602052604090942093909355505050565b604051630a85bd0160e11b81526000906001600160a01b0385169063150b7a0290611c6890339089908890889060040161301c565b6020604051808303816000875af1925050508015611ca3575060408051601f3d908101601f19168201909252611ca091810190613059565b60015b611cfe573d808015611cd1576040519150601f19603f3d011682016040523d82523d6000602084013e611cd6565b606091505b508051611cf6576040516368d2bf6b60e11b815260040160405180910390fd5b805181602001fd5b6001600160e01b031916630a85bd0160e11b149050949350505050565b60008051602061317983398151915254610100900460ff16611d4f5760405162461bcd60e51b8152600401610afe90613076565b610c8b82826121ba565b600054610100900460ff16611d805760405162461bcd60e51b8152600401610afe906130ca565b610eb961223d565b600054610100900460ff16610eb95760405162461bcd60e51b8152600401610afe906130ca565b60004660051415611dd3575073da8ea22d092307874f30a1f277d1388dca0ba97a90565b4660451415611df5575073f2c9fc73884a9c6e6db58778176ab67989139d0690565b46620138811415611e195750734b48841d4b32c4650e4abc117a03fe8b51f38f6890565b46617a691415611e3c575073e7f1725e7734ce288f8367e1bb143e90bb3f051290565b60405163264e42cf60e01b8152466004820152602401610afe565b6001600160a01b0381163b611ec45760405162461bcd60e51b815260206004820152602d60248201527f455243313936373a206e657720696d706c656d656e746174696f6e206973206e60448201526c1bdd08184818dbdb9d1c9858dd609a1b6064820152608401610afe565b60008051602061313283398151915280546001600160a01b0319166001600160a01b0392909216919091179055565b611efc8361226d565b600082511180611f095750805b15610bb95761115883836122ad565b6000611f238361181a565b905080600080611f32866118a8565b915091508415611f7257611f478184336108d2565b611f7257611f5583336111e7565b611f7257604051632ce44b5f60e11b815260040160405180910390fd5b611f808360008860016118d0565b8015611f8b57600082555b6fffffffffffffffffffffffffffffffff611fa4611681565b6001600160a01b038516600081815260059290920160205260409091208054929092019091554260a01b17600360e01b17611fdd611681565b60008881526004919091016020526040902055600160e11b841661204c5760018601612007611681565b6000828152600491909101602052604090205461204a57612026611681565b54811461204a5784612036611681565b600083815260049190910160205260409020555b505b60405186906000906001600160a01b038616907fddf252ad1be2c89b69c2b068fc378daa952ba7f163c4a11628f55a4df523b3ef908390a461208c611681565b600190810180549091019055505050505050565b60006120aa611681565b5490506001600160a01b0383166120d357604051622e076360e81b815260040160405180910390fd5b816120f15760405163b562e8dd60e01b815260040160405180910390fd5b6120fe60008483856118d0565b680100000000000000018202612112611681565b6001600160a01b038516600081815260059290920160205260409091208054929092019091554260a01b6001841460e11b171761214d611681565b60008381526004919091016020526040902055808281015b6040516001830192906001600160a01b038716906000907fddf252ad1be2c89b69c2b068fc378daa952ba7f163c4a11628f55a4df523b3ef908290a480821061216557806121b1611681565b5550610bb99050565b60008051602061317983398151915254610100900460ff166121ee5760405162461bcd60e51b8152600401610afe90613076565b816121f7611681565b600201908051906020019061220d92919061245e565b5080612217611681565b600301908051906020019061222d92919061245e565b506000612238611681565b555050565b600054610100900460ff166122645760405162461bcd60e51b8152600401610afe906130ca565b610eb933611af2565b61227681611e57565b6040516001600160a01b038216907fbc7cd75a20ee27fd9adebab32041f755214dbc6bffa90cc0225b39da2e5c2d3b90600090a250565b60606001600160a01b0383163b6123155760405162461bcd60e51b815260206004820152602660248201527f416464726573733a2064656c65676174652063616c6c20746f206e6f6e2d636f6044820152651b9d1c9858dd60d21b6064820152608401610afe565b600080846001600160a01b0316846040516123309190613115565b600060405180830381855af49150503d806000811461236b576040519150601f19603f3d011682016040523d82523d6000602084013e612370565b606091505b50915091506123988282604051806060016040528060278152602001613152602791396123a1565b95945050505050565b606083156123b0575081611886565b8251156123c05782518084602001fd5b8160405162461bcd60e51b8152600401610afe9190612572565b8280546123e690612928565b90600052602060002090601f016020900481019282612408576000855561244e565b82601f106124215782800160ff1982351617855561244e565b8280016001018555821561244e579182015b8281111561244e578235825591602001919060010190612433565b5061245a9291506124d2565b5090565b82805461246a90612928565b90600052602060002090601f01602090048101928261248c576000855561244e565b82601f106124a557805160ff191683800117855561244e565b8280016001018555821561244e579182015b8281111561244e5782518255916020019190600101906124b7565b5b8082111561245a57600081556001016124d3565b6001600160e01b031981168114610b9b57600080fd5b60006020828403121561250f57600080fd5b8135611886816124e7565b60005b8381101561253557818101518382015260200161251d565b838111156111585750506000910152565b6000815180845261255e81602086016020860161251a565b601f01601f19169290920160200192915050565b6020815260006118866020830184612546565b60006020828403121561259757600080fd5b5035919050565b80356001600160a01b03811681146125b557600080fd5b919050565b600080604083850312156125cd57600080fd5b6125d68361259e565b946020939093013593505050565b60008083601f8401126125f657600080fd5b50813567ffffffffffffffff81111561260e57600080fd5b60208301915083602082850101111561262657600080fd5b9250929050565b6000806000806000806060878903121561264657600080fd5b863567ffffffffffffffff8082111561265e57600080fd5b61266a8a838b016125e4565b9098509650602089013591508082111561268357600080fd5b61268f8a838b016125e4565b909650945060408901359150808211156126a857600080fd5b506126b589828a016125e4565b979a9699509497509295939492505050565b6000806000606084860312156126dc57600080fd5b6126e58461259e565b92506126f36020850161259e565b9150604084013590509250925092565b60006020828403121561271557600080fd5b6118868261259e565b634e487b7160e01b600052604160045260246000fd5b600082601f83011261274557600080fd5b813567ffffffffffffffff808211156127605761276061271e565b604051601f8301601f19908116603f011681019082821181831017156127885761278861271e565b816040528381528660208588010111156127a157600080fd5b836020870160208301376000602085830101528094505050505092915050565b600080604083850312156127d457600080fd5b6127dd8361259e565b9150602083013567ffffffffffffffff8111156127f957600080fd5b61280585828601612734565b9150509250929050565b6000806020838503121561282257600080fd5b823567ffffffffffffffff81111561283957600080fd5b612845858286016125e4565b90969095509350505050565b6000806040838503121561286457600080fd5b61286d8361259e565b91506020830135801515811461288257600080fd5b809150509250929050565b600080600080608085870312156128a357600080fd5b6128ac8561259e565b93506128ba6020860161259e565b925060408501359150606085013567ffffffffffffffff8111156128dd57600080fd5b6128e987828801612734565b91505092959194509250565b6000806040838503121561290857600080fd5b6129118361259e565b915061291f6020840161259e565b90509250929050565b600181811c9082168061293c57607f821691505b6020821081141561295d57634e487b7160e01b600052602260045260246000fd5b50919050565b8054600090600181811c908083168061297d57607f831692505b602080841082141561299f57634e487b7160e01b600052602260045260246000fd5b8180156129b357600181146129c4576129f1565b60ff198616895284890196506129f1565b60008881526020902060005b868110156129e95781548b8201529085019083016129d0565b505084890196505b50505050505092915050565b60008351612a0f81846020880161251a565b6d53454c4543542b2a2b46524f4d2b60901b908301908152612a34600e820185612963565b69099b5bd9194f5b1a5cdd60b21b8152600a0195945050505050565b6602aa82220aa22960cd1b81526000612a6c600783018b612963565b6a20534554206e616d653d2760a81b8152888a600b8301376f272c206465736372697074696f6e3d2760801b600b918a01918201528688601b83013769272c20696d6167653d2760b01b601b91880191820152848660258301376a272057484552452069643d60a81b6025918601918201528351612af181603084016020880161251a565b603b60f81b603092909101918201526031019a9950505050505050505050565b60018060a01b03841681528260208201526060604082015260006123986060830184612546565b6020808252602c908201527f46756e6374696f6e206d7573742062652063616c6c6564207468726f7567682060408201526b19195b1959d85d1958d85b1b60a21b606082015260800190565b6020808252602c908201527f46756e6374696f6e206d7573742062652063616c6c6564207468726f7567682060408201526b6163746976652070726f787960a01b606082015260800190565b6b02222a622aa2290232927a6960a51b81526000612bf1600c830185612963565b692057484552452069643d60b01b81528351612c1481600a84016020880161251a565b603b60f81b600a9290910191820152600b01949350505050565b6b024a729a2a92a1024a72a27960a51b81526000612c4f600c83018b612963565b7f202869642c206e616d652c206465736372697074696f6e2c20696d61676529208152670ac8298aa8aa640560c31b60208201528951612c96816028840160208e0161251a565b622c202760e81b602892909101918201528789602b83013763272c202760e01b602b918901918201818152908789602f850137602f9288019283015250838560338301376227293b60e81b930160338101939093525050603601979650505050505050565b60008451612d0d81846020890161251a565b6653454c4543542b60c81b9083019081526d0d4e6dedcbedec4d4cac6e84a64760931b60078201526f2532376964253237253243696425324360801b6015820152732532376e616d652532372532436e616d6525324360601b60258201527f2532376465736372697074696f6e2532372532436465736372697074696f6e25603982015261324360f01b60598201527f253237696d616765253237253243696d6167652532392b000000000000000000605b8201526446524f4d2b60d81b6072820152612ddd6077820186612963565b9050692b57484552452b69643d60b01b81528351612e0281600a84016020880161251a565b612e21600a8284010169099b5bd9194f5b1a5cdd60b21b8152600a0190565b979650505050505050565b6c021a922a0aa22902a20a126229609d1b815260008351612e5481600d85016020880161251a565b605f60f81b600d918401918201528351612e7581600e84016020880161251a565b7f2028696420696e74656765722c206e616d6520746578742c2064657363726970600e92909101918201527f74696f6e20746578742c20696d6167652074657874293b000000000000000000602e820152604501949350505050565b6001600160a01b038316815260406020820181905260009061181290830184612546565b600060208284031215612f0757600080fd5b5051919050565b60008451612f2081846020890161251a565b8083019050605f60f81b8082528551612f40816001850160208a0161251a565b60019201918201528351612f5b81600284016020880161251a565b0160020195945050505050565b634e487b7160e01b600052601160045260246000fd5b6000600019821415612f9257612f92612f68565b5060010190565b634e487b7160e01b600052601260045260246000fd5b600082612fbe57612fbe612f99565b500490565b600082821015612fd557612fd5612f68565b500390565b600082612fe957612fe9612f99565b500690565b6000821982111561300157613001612f68565b500190565b634e487b7160e01b600052603260045260246000fd5b6001600160a01b038581168252841660208201526040810183905260806060820181905260009061304f90830184612546565b9695505050505050565b60006020828403121561306b57600080fd5b8151611886816124e7565b60208082526034908201527f455243373231415f5f496e697469616c697a61626c653a20636f6e7472616374604082015273206973206e6f7420696e697469616c697a696e6760601b606082015260800190565b6020808252602b908201527f496e697469616c697a61626c653a20636f6e7472616374206973206e6f74206960408201526a6e697469616c697a696e6760a81b606082015260800190565b6000825161312781846020870161251a565b919091019291505056fe360894a13ba1a3210667c828492db98dca3e2076cc3735a920a3ca505d382bbc416464726573733a206c6f772d6c6576656c2064656c65676174652063616c6c206661696c6564ee151c8401928dc223602bb187aff91b9a56c7cae5476ef1b3287b085a16c85fa26469706673582212205f209e9c3222f0fd7ff881bd5314ec8b7042b7f97653bee4f15ee17e3f826fb564736f6c634300080c0033"
}