{
  "address": "0x56cE40160AfFcc35aD4eB5Bb0f4Ac9ea65325de0",
  "abi": [
    {
      "inputs": [],
      "name": "NotCallByMembershipContract",
      "type": "error"
    },
    {
      "anonymous": false,
      "inputs": [
        {
          "indexed": false,
          "internalType": "address",
          "name": "previousAdmin",
          "type": "address"
        },
        {
          "indexed": false,
          "internalType": "address",
          "name": "newAdmin",
          "type": "address"
        }
      ],
      "name": "AdminChanged",
      "type": "event"
    },
    {
      "anonymous": false,
      "inputs": [
        {
          "indexed": true,
          "internalType": "address",
          "name": "account",
          "type": "address"
        },
        {
          "indexed": true,
          "internalType": "address",
          "name": "operator",
          "type": "address"
        },
        {
          "indexed": false,
          "internalType": "bool",
          "name": "approved",
          "type": "bool"
        }
      ],
      "name": "ApprovalForAll",
      "type": "event"
    },
    {
      "anonymous": false,
      "inputs": [
        {
          "indexed": true,
          "internalType": "address",
          "name": "beacon",
          "type": "address"
        }
      ],
      "name": "BeaconUpgraded",
      "type": "event"
    },
    {
      "anonymous": false,
      "inputs": [
        {
          "indexed": false,
          "internalType": "uint256",
          "name": "aUserId",
          "type": "uint256"
        },
        {
          "indexed": false,
          "internalType": "uint256",
          "name": "bUserId",
          "type": "uint256"
        }
      ],
      "name": "Block",
      "type": "event"
    },
    {
      "anonymous": false,
      "inputs": [
        {
          "indexed": false,
          "internalType": "uint8",
          "name": "version",
          "type": "uint8"
        }
      ],
      "name": "Initialized",
      "type": "event"
    },
    {
      "anonymous": false,
      "inputs": [
        {
          "indexed": false,
          "internalType": "uint256",
          "name": "aUserId",
          "type": "uint256"
        },
        {
          "indexed": false,
          "internalType": "uint256",
          "name": "bUserId",
          "type": "uint256"
        }
      ],
      "name": "Match",
      "type": "event"
    },
    {
      "anonymous": false,
      "inputs": [
        {
          "indexed": true,
          "internalType": "address",
          "name": "previousOwner",
          "type": "address"
        },
        {
          "indexed": true,
          "internalType": "address",
          "name": "newOwner",
          "type": "address"
        }
      ],
      "name": "OwnershipTransferred",
      "type": "event"
    },
    {
      "anonymous": false,
      "inputs": [
        {
          "indexed": true,
          "internalType": "address",
          "name": "operator",
          "type": "address"
        },
        {
          "indexed": true,
          "internalType": "address",
          "name": "from",
          "type": "address"
        },
        {
          "indexed": true,
          "internalType": "address",
          "name": "to",
          "type": "address"
        },
        {
          "indexed": false,
          "internalType": "uint256[]",
          "name": "ids",
          "type": "uint256[]"
        },
        {
          "indexed": false,
          "internalType": "uint256[]",
          "name": "values",
          "type": "uint256[]"
        }
      ],
      "name": "TransferBatch",
      "type": "event"
    },
    {
      "anonymous": false,
      "inputs": [
        {
          "indexed": true,
          "internalType": "address",
          "name": "operator",
          "type": "address"
        },
        {
          "indexed": true,
          "internalType": "address",
          "name": "from",
          "type": "address"
        },
        {
          "indexed": true,
          "internalType": "address",
          "name": "to",
          "type": "address"
        },
        {
          "indexed": false,
          "internalType": "uint256",
          "name": "id",
          "type": "uint256"
        },
        {
          "indexed": false,
          "internalType": "uint256",
          "name": "value",
          "type": "uint256"
        }
      ],
      "name": "TransferSingle",
      "type": "event"
    },
    {
      "anonymous": false,
      "inputs": [
        {
          "indexed": false,
          "internalType": "string",
          "name": "value",
          "type": "string"
        },
        {
          "indexed": true,
          "internalType": "uint256",
          "name": "id",
          "type": "uint256"
        }
      ],
      "name": "URI",
      "type": "event"
    },
    {
      "anonymous": false,
      "inputs": [
        {
          "indexed": true,
          "internalType": "address",
          "name": "implementation",
          "type": "address"
        }
      ],
      "name": "Upgraded",
      "type": "event"
    },
    {
      "inputs": [
        {
          "internalType": "address",
          "name": "account",
          "type": "address"
        },
        {
          "internalType": "uint256",
          "name": "id",
          "type": "uint256"
        }
      ],
      "name": "balanceOf",
      "outputs": [
        {
          "internalType": "uint256",
          "name": "",
          "type": "uint256"
        }
      ],
      "stateMutability": "view",
      "type": "function"
    },
    {
      "inputs": [
        {
          "internalType": "address[]",
          "name": "accounts",
          "type": "address[]"
        },
        {
          "internalType": "uint256[]",
          "name": "ids",
          "type": "uint256[]"
        }
      ],
      "name": "balanceOfBatch",
      "outputs": [
        {
          "internalType": "uint256[]",
          "name": "",
          "type": "uint256[]"
        }
      ],
      "stateMutability": "view",
      "type": "function"
    },
    {
      "inputs": [
        {
          "internalType": "uint256",
          "name": "id",
          "type": "uint256"
        }
      ],
      "name": "exists",
      "outputs": [
        {
          "internalType": "bool",
          "name": "",
          "type": "bool"
        }
      ],
      "stateMutability": "view",
      "type": "function"
    },
    {
      "inputs": [
        {
          "internalType": "contract T3M",
          "name": "t3mContract",
          "type": "address"
        }
      ],
      "name": "initialize",
      "outputs": [],
      "stateMutability": "nonpayable",
      "type": "function"
    },
    {
      "inputs": [
        {
          "internalType": "address",
          "name": "account",
          "type": "address"
        },
        {
          "internalType": "address",
          "name": "operator",
          "type": "address"
        }
      ],
      "name": "isApprovedForAll",
      "outputs": [
        {
          "internalType": "bool",
          "name": "",
          "type": "bool"
        }
      ],
      "stateMutability": "view",
      "type": "function"
    },
    {
      "inputs": [
        {
          "internalType": "address",
          "name": "aUser",
          "type": "address"
        },
        {
          "internalType": "uint256",
          "name": "aUserId",
          "type": "uint256"
        },
        {
          "internalType": "address",
          "name": "bUser",
          "type": "address"
        },
        {
          "internalType": "uint256",
          "name": "bUserId",
          "type": "uint256"
        }
      ],
      "name": "mint",
      "outputs": [],
      "stateMutability": "nonpayable",
      "type": "function"
    },
    {
      "inputs": [],
      "name": "owner",
      "outputs": [
        {
          "internalType": "address",
          "name": "",
          "type": "address"
        }
      ],
      "stateMutability": "view",
      "type": "function"
    },
    {
      "inputs": [],
      "name": "proxiableUUID",
      "outputs": [
        {
          "internalType": "bytes32",
          "name": "",
          "type": "bytes32"
        }
      ],
      "stateMutability": "view",
      "type": "function"
    },
    {
      "inputs": [],
      "name": "renounceOwnership",
      "outputs": [],
      "stateMutability": "nonpayable",
      "type": "function"
    },
    {
      "inputs": [
        {
          "internalType": "address",
          "name": "from",
          "type": "address"
        },
        {
          "internalType": "address",
          "name": "to",
          "type": "address"
        },
        {
          "internalType": "uint256[]",
          "name": "ids",
          "type": "uint256[]"
        },
        {
          "internalType": "uint256[]",
          "name": "amounts",
          "type": "uint256[]"
        },
        {
          "internalType": "bytes",
          "name": "data",
          "type": "bytes"
        }
      ],
      "name": "safeBatchTransferFrom",
      "outputs": [],
      "stateMutability": "nonpayable",
      "type": "function"
    },
    {
      "inputs": [
        {
          "internalType": "address",
          "name": "from",
          "type": "address"
        },
        {
          "internalType": "address",
          "name": "to",
          "type": "address"
        },
        {
          "internalType": "uint256",
          "name": "id",
          "type": "uint256"
        },
        {
          "internalType": "uint256",
          "name": "amount",
          "type": "uint256"
        },
        {
          "internalType": "bytes",
          "name": "data",
          "type": "bytes"
        }
      ],
      "name": "safeTransferFrom",
      "outputs": [],
      "stateMutability": "nonpayable",
      "type": "function"
    },
    {
      "inputs": [
        {
          "internalType": "address",
          "name": "operator",
          "type": "address"
        },
        {
          "internalType": "bool",
          "name": "approved",
          "type": "bool"
        }
      ],
      "name": "setApprovalForAll",
      "outputs": [],
      "stateMutability": "nonpayable",
      "type": "function"
    },
    {
      "inputs": [
        {
          "internalType": "bytes4",
          "name": "interfaceId",
          "type": "bytes4"
        }
      ],
      "name": "supportsInterface",
      "outputs": [
        {
          "internalType": "bool",
          "name": "",
          "type": "bool"
        }
      ],
      "stateMutability": "view",
      "type": "function"
    },
    {
      "inputs": [
        {
          "internalType": "uint256",
          "name": "id",
          "type": "uint256"
        }
      ],
      "name": "totalSupply",
      "outputs": [
        {
          "internalType": "uint256",
          "name": "",
          "type": "uint256"
        }
      ],
      "stateMutability": "view",
      "type": "function"
    },
    {
      "inputs": [
        {
          "internalType": "address",
          "name": "newOwner",
          "type": "address"
        }
      ],
      "name": "transferOwnership",
      "outputs": [],
      "stateMutability": "nonpayable",
      "type": "function"
    },
    {
      "inputs": [
        {
          "internalType": "address",
          "name": "newImplementation",
          "type": "address"
        }
      ],
      "name": "upgradeTo",
      "outputs": [],
      "stateMutability": "nonpayable",
      "type": "function"
    },
    {
      "inputs": [
        {
          "internalType": "address",
          "name": "newImplementation",
          "type": "address"
        },
        {
          "internalType": "bytes",
          "name": "data",
          "type": "bytes"
        }
      ],
      "name": "upgradeToAndCall",
      "outputs": [],
      "stateMutability": "payable",
      "type": "function"
    },
    {
      "inputs": [
        {
          "internalType": "uint256",
          "name": "",
          "type": "uint256"
        }
      ],
      "name": "uri",
      "outputs": [
        {
          "internalType": "string",
          "name": "",
          "type": "string"
        }
      ],
      "stateMutability": "view",
      "type": "function"
    }
  ],
  "numDeployments": 1,
  "solcInputHash": "24d74928a6de552cd2b1d1800fda7d01",
  "bytecode": "0x60a06040523060805234801561001457600080fd5b5060805161274f61004c60003960008181610591015281816105d10152818161083e0152818161087e0152610911015261274f6000f3fe6080604052600436106101085760003560e01c806352d1902d11610095578063bd85b03911610064578063bd85b039146102e1578063c4d66de81461030e578063e985e9c51461032e578063f242432a14610377578063f2fde38b1461039757600080fd5b806352d1902d1461026e578063715018a6146102835780638da5cb5b14610298578063a22cb465146102c157600080fd5b80633659cfe6116100dc5780633659cfe6146101bf5780633c173a4f146101df5780634e1273f4146101ff5780634f1ef2861461022c5780634f558e791461023f57600080fd5b8062fdd58e1461010d57806301ffc9a7146101405780630e89341c146101705780632eb2c2d61461019d575b600080fd5b34801561011957600080fd5b5061012d610128366004611c5c565b6103b7565b6040519081526020015b60405180910390f35b34801561014c57600080fd5b5061016061015b366004611c9e565b61044f565b6040519015158152602001610137565b34801561017c57600080fd5b5061019061018b366004611cbb565b6104a1565b6040516101379190611d2c565b3480156101a957600080fd5b506101bd6101b8366004611e9b565b61053a565b005b3480156101cb57600080fd5b506101bd6101da366004611f49565b610586565b3480156101eb57600080fd5b506101bd6101fa366004611f66565b610666565b34801561020b57600080fd5b5061021f61021a366004611fae565b610709565b60405161013791906120b6565b6101bd61023a3660046120c9565b610833565b34801561024b57600080fd5b5061016061025a366004611cbb565b600090815260fb6020526040902054151590565b34801561027a57600080fd5b5061012d610904565b34801561028f57600080fd5b506101bd6109b8565b3480156102a457600080fd5b5061012d546040516001600160a01b039091168152602001610137565b3480156102cd57600080fd5b506101bd6102dc36600461210f565b6109cc565b3480156102ed57600080fd5b5061012d6102fc366004611cbb565b600090815260fb602052604090205490565b34801561031a57600080fd5b506101bd610329366004611f49565b6109d7565b34801561033a57600080fd5b5061016061034936600461214d565b6001600160a01b03918216600090815260ca6020908152604080832093909416825291909152205460ff1690565b34801561038357600080fd5b506101bd61039236600461217b565b610b14565b3480156103a357600080fd5b506101bd6103b2366004611f49565b610b59565b60006001600160a01b0383166104275760405162461bcd60e51b815260206004820152602a60248201527f455243313135353a2061646472657373207a65726f206973206e6f742061207660448201526930b634b21037bbb732b960b11b60648201526084015b60405180910390fd5b50600090815260c9602090815260408083206001600160a01b03949094168352929052205490565b60006001600160e01b03198216636cdb3d1360e11b148061048057506001600160e01b031982166303a24d0760e21b145b8061049b57506301ffc9a760e01b6001600160e01b03198316145b92915050565b61015f5460408051631418a80f60e31b815290516060926001600160a01b03169163a0c540789160048083019260009291908290030181865afa1580156104ec573d6000803e3d6000fd5b505050506040513d6000823e601f3d908101601f1916820160405261051491908101906121e4565b6040516020016105249190612266565b6040516020818303038152906040529050919050565b6001600160a01b03851633148061055657506105568533610349565b6105725760405162461bcd60e51b815260040161041e9061228e565b61057f8585858585610bcf565b5050505050565b306001600160a01b037f00000000000000000000000000000000000000000000000000000000000000001614156105cf5760405162461bcd60e51b815260040161041e906122dd565b7f00000000000000000000000000000000000000000000000000000000000000006001600160a01b03166106186000805160206126d3833981519152546001600160a01b031690565b6001600160a01b03161461063e5760405162461bcd60e51b815260040161041e90612329565b61064781610dcb565b6040805160008082526020820190925261066391839190610dd3565b50565b61015f546001600160a01b031633146106925760405163062b759160e21b815260040160405180910390fd5b6106ae8482600160405180602001604052806000815250610f43565b6106ca8284600160405180602001604052806000815250610f43565b60408051848152602081018390527ff7f3111fa896b22b4c2b4d808aba59e9fab4e40a697881d951f4ba91011b9df6910160405180910390a150505050565b6060815183511461076e5760405162461bcd60e51b815260206004820152602960248201527f455243313135353a206163636f756e747320616e6420696473206c656e677468604482015268040dad2e6dac2e8c6d60bb1b606482015260840161041e565b6000835167ffffffffffffffff81111561078a5761078a611d3f565b6040519080825280602002602001820160405280156107b3578160200160208202803683370190505b50905060005b845181101561082b576107fe8582815181106107d7576107d7612375565b60200260200101518583815181106107f1576107f1612375565b60200260200101516103b7565b82828151811061081057610810612375565b6020908102919091010152610824816123a1565b90506107b9565b509392505050565b306001600160a01b037f000000000000000000000000000000000000000000000000000000000000000016141561087c5760405162461bcd60e51b815260040161041e906122dd565b7f00000000000000000000000000000000000000000000000000000000000000006001600160a01b03166108c56000805160206126d3833981519152546001600160a01b031690565b6001600160a01b0316146108eb5760405162461bcd60e51b815260040161041e90612329565b6108f482610dcb565b61090082826001610dd3565b5050565b6000306001600160a01b037f000000000000000000000000000000000000000000000000000000000000000016146109a45760405162461bcd60e51b815260206004820152603860248201527f555550535570677261646561626c653a206d757374206e6f742062652063616c60448201527f6c6564207468726f7567682064656c656761746563616c6c0000000000000000606482015260840161041e565b506000805160206126d38339815191525b90565b6109c0611077565b6109ca60006110d2565b565b610900338383611125565b600054610100900460ff16158080156109f75750600054600160ff909116105b80610a115750303b158015610a11575060005460ff166001145b610a745760405162461bcd60e51b815260206004820152602e60248201527f496e697469616c697a61626c653a20636f6e747261637420697320616c72656160448201526d191e481a5b9a5d1a585b1a5e995960921b606482015260840161041e565b6000805460ff191660011790558015610a97576000805461ff0019166101001790555b610a9f611206565b610aa761122d565b610aaf611206565b61015f80546001600160a01b0319166001600160a01b0384161790558015610900576000805461ff0019169055604051600181527f7f26b83ff96e1f2b6a682f133852f6798a09c465da95921460cefb38474024989060200160405180910390a15050565b6001600160a01b038516331480610b305750610b308533610349565b610b4c5760405162461bcd60e51b815260040161041e9061228e565b61057f858585858561125c565b610b61611077565b6001600160a01b038116610bc65760405162461bcd60e51b815260206004820152602660248201527f4f776e61626c653a206e6577206f776e657220697320746865207a65726f206160448201526564647265737360d01b606482015260840161041e565b610663816110d2565b8151835114610c315760405162461bcd60e51b815260206004820152602860248201527f455243313135353a2069647320616e6420616d6f756e7473206c656e677468206044820152670dad2e6dac2e8c6d60c31b606482015260840161041e565b6001600160a01b038416610c575760405162461bcd60e51b815260040161041e906123bc565b33610c668187878787876113a6565b60005b8451811015610d4f576000858281518110610c8657610c86612375565b602002602001015190506000858381518110610ca457610ca4612375565b602090810291909101810151600084815260c9835260408082206001600160a01b038e168352909352919091205490915081811015610cf55760405162461bcd60e51b815260040161041e90612401565b600083815260c9602090815260408083206001600160a01b038e8116855292528083208585039055908b16825281208054849290610d3490849061244b565b9250508190555050505080610d48906123a1565b9050610c69565b50846001600160a01b0316866001600160a01b0316826001600160a01b03167f4a39dc06d4c0dbc64b70af90fd698a233a518aa5d07e595d983b8c0526c8f7fb8787604051610d9f929190612463565b60405180910390a4610db581878787878761151f565b610dc381878787878761177a565b505050505050565b610663611077565b7f4910fdfa16fed3260ed0e7147f7cc6da11a60208b5b9406d12a635614ffd91435460ff1615610e0b57610e06836118d6565b505050565b826001600160a01b03166352d1902d6040518163ffffffff1660e01b8152600401602060405180830381865afa925050508015610e65575060408051601f3d908101601f19168201909252610e6291810190612488565b60015b610ec85760405162461bcd60e51b815260206004820152602e60248201527f45524331393637557067726164653a206e657720696d706c656d656e7461746960448201526d6f6e206973206e6f74205555505360901b606482015260840161041e565b6000805160206126d38339815191528114610f375760405162461bcd60e51b815260206004820152602960248201527f45524331393637557067726164653a20756e737570706f727465642070726f786044820152681a58589b195555525160ba1b606482015260840161041e565b50610e06838383611972565b6001600160a01b038416610fa35760405162461bcd60e51b815260206004820152602160248201527f455243313135353a206d696e7420746f20746865207a65726f206164647265736044820152607360f81b606482015260840161041e565b336000610faf8561199d565b90506000610fbc8561199d565b9050610fcd836000898585896113a6565b600086815260c9602090815260408083206001600160a01b038b16845290915281208054879290610fff90849061244b565b909155505060408051878152602081018790526001600160a01b03808a1692600092918716917fc3d58168c5ae7397731d063d5bbf3d657854427343f4c083240f7aacaa2d0f62910160405180910390a461105f8360008985858961151f565b61106e836000898989896119e8565b50505050505050565b61012d546001600160a01b031633146109ca5760405162461bcd60e51b815260206004820181905260248201527f4f776e61626c653a2063616c6c6572206973206e6f7420746865206f776e6572604482015260640161041e565b61012d80546001600160a01b038381166001600160a01b0319831681179093556040519116919082907f8be0079c531659141344cd1fd0a4f28419497f9722a3daafe3b4186f6b6457e090600090a35050565b816001600160a01b0316836001600160a01b031614156111995760405162461bcd60e51b815260206004820152602960248201527f455243313135353a2073657474696e6720617070726f76616c20737461747573604482015268103337b91039b2b63360b91b606482015260840161041e565b6001600160a01b03838116600081815260ca6020908152604080832094871680845294825291829020805460ff191686151590811790915591519182527f17307eab39ab6107e8899845ad3d59bd9653f200f220920489ca2b5937696c31910160405180910390a3505050565b600054610100900460ff166109ca5760405162461bcd60e51b815260040161041e906124a1565b600054610100900460ff166112545760405162461bcd60e51b815260040161041e906124a1565b6109ca611aa3565b6001600160a01b0384166112825760405162461bcd60e51b815260040161041e906123bc565b33600061128e8561199d565b9050600061129b8561199d565b90506112ab8389898585896113a6565b600086815260c9602090815260408083206001600160a01b038c168452909152902054858110156112ee5760405162461bcd60e51b815260040161041e90612401565b600087815260c9602090815260408083206001600160a01b038d8116855292528083208985039055908a1682528120805488929061132d90849061244b565b909155505060408051888152602081018890526001600160a01b03808b16928c821692918816917fc3d58168c5ae7397731d063d5bbf3d657854427343f4c083240f7aacaa2d0f62910160405180910390a461138d848a8a86868a61151f565b61139b848a8a8a8a8a6119e8565b505050505050505050565b6001600160a01b03851661142d5760005b835181101561142b578281815181106113d2576113d2612375565b602002602001015160fb60008684815181106113f0576113f0612375565b602002602001015181526020019081526020016000206000828254611415919061244b565b909155506114249050816123a1565b90506113b7565b505b6001600160a01b038416610dc35760005b835181101561106e57600084828151811061145b5761145b612375565b60200260200101519050600084838151811061147957611479612375565b60200260200101519050600060fb6000848152602001908152602001600020549050818110156114fc5760405162461bcd60e51b815260206004820152602860248201527f455243313135353a206275726e20616d6f756e74206578636565647320746f74604482015267616c537570706c7960c01b606482015260840161041e565b600092835260fb602052604090922091039055611518816123a1565b905061143e565b825161015f54604051632b956ff760e01b81526001600160a01b0388811660048301526000921690632b956ff790602401602060405180830381865afa15801561156d573d6000803e3d6000fd5b505050506040513d601f19601f820116820180604052508101906115919190612488565b61015f54604051632b956ff760e01b81526001600160a01b03898116600483015292935060009290911690632b956ff790602401602060405180830381865afa1580156115e2573d6000803e3d6000fd5b505050506040513d601f19601f820116820180604052508101906116069190612488565b905060005b8381101561177457600087828151811061162757611627612375565b602090810291909101015161015f546040516331a9108f60e11b8152600481018390529192506000916001600160a01b0390911690636352211e90602401602060405180830381865afa158015611682573d6000803e3d6000fd5b505050506040513d601f19601f820116820180604052508101906116a691906124ec565b90506116b28b836103b7565b6116f05760408051868152602081018490527f58444cf86e8468177c22c16e3ba6fcb8aec0ac7875febb7625760f9d2f6a3f35910160405180910390a15b60006116fc82866103b7565b1180156117225750600088848151811061171857611718612375565b6020026020010151115b156117615760408051858152602081018490527ff7f3111fa896b22b4c2b4d808aba59e9fab4e40a697881d951f4ba91011b9df6910160405180910390a15b50508061176d906123a1565b905061160b565b5061139b565b6001600160a01b0384163b15610dc35760405163bc197c8160e01b81526001600160a01b0385169063bc197c81906117be9089908990889088908890600401612509565b6020604051808303816000875af19250505080156117f9575060408051601f3d908101601f191682019092526117f691810190612567565b60015b6118a657611805612584565b806308c379a0141561183f575061181a61259f565b806118255750611841565b8060405162461bcd60e51b815260040161041e9190611d2c565b505b60405162461bcd60e51b815260206004820152603460248201527f455243313135353a207472616e7366657220746f206e6f6e20455243313135356044820152732932b1b2b4bb32b91034b6b83632b6b2b73a32b960611b606482015260840161041e565b6001600160e01b0319811663bc197c8160e01b1461106e5760405162461bcd60e51b815260040161041e90612629565b6001600160a01b0381163b6119435760405162461bcd60e51b815260206004820152602d60248201527f455243313936373a206e657720696d706c656d656e746174696f6e206973206e60448201526c1bdd08184818dbdb9d1c9858dd609a1b606482015260840161041e565b6000805160206126d383398151915280546001600160a01b0319166001600160a01b0392909216919091179055565b61197b83611ad3565b6000825111806119885750805b15610e06576119978383611b13565b50505050565b604080516001808252818301909252606091600091906020808301908036833701905050905082816000815181106119d7576119d7612375565b602090810291909101015292915050565b6001600160a01b0384163b15610dc35760405163f23a6e6160e01b81526001600160a01b0385169063f23a6e6190611a2c9089908990889088908890600401612671565b6020604051808303816000875af1925050508015611a67575060408051601f3d908101601f19168201909252611a6491810190612567565b60015b611a7357611805612584565b6001600160e01b0319811663f23a6e6160e01b1461106e5760405162461bcd60e51b815260040161041e90612629565b600054610100900460ff16611aca5760405162461bcd60e51b815260040161041e906124a1565b6109ca336110d2565b611adc816118d6565b6040516001600160a01b038216907fbc7cd75a20ee27fd9adebab32041f755214dbc6bffa90cc0225b39da2e5c2d3b90600090a250565b60606001600160a01b0383163b611b7b5760405162461bcd60e51b815260206004820152602660248201527f416464726573733a2064656c65676174652063616c6c20746f206e6f6e2d636f6044820152651b9d1c9858dd60d21b606482015260840161041e565b600080846001600160a01b031684604051611b9691906126b6565b600060405180830381855af49150503d8060008114611bd1576040519150601f19603f3d011682016040523d82523d6000602084013e611bd6565b606091505b5091509150611bfe82826040518060600160405280602781526020016126f360279139611c07565b95945050505050565b60608315611c16575081611c40565b825115611c265782518084602001fd5b8160405162461bcd60e51b815260040161041e9190611d2c565b9392505050565b6001600160a01b038116811461066357600080fd5b60008060408385031215611c6f57600080fd5b8235611c7a81611c47565b946020939093013593505050565b6001600160e01b03198116811461066357600080fd5b600060208284031215611cb057600080fd5b8135611c4081611c88565b600060208284031215611ccd57600080fd5b5035919050565b60005b83811015611cef578181015183820152602001611cd7565b838111156119975750506000910152565b60008151808452611d18816020860160208601611cd4565b601f01601f19169290920160200192915050565b602081526000611c406020830184611d00565b634e487b7160e01b600052604160045260246000fd5b601f8201601f1916810167ffffffffffffffff81118282101715611d7b57611d7b611d3f565b6040525050565b600067ffffffffffffffff821115611d9c57611d9c611d3f565b5060051b60200190565b600082601f830112611db757600080fd5b81356020611dc482611d82565b604051611dd18282611d55565b83815260059390931b8501820192828101915086841115611df157600080fd5b8286015b84811015611e0c5780358352918301918301611df5565b509695505050505050565b600067ffffffffffffffff821115611e3157611e31611d3f565b50601f01601f191660200190565b600082601f830112611e5057600080fd5b8135611e5b81611e17565b604051611e688282611d55565b828152856020848701011115611e7d57600080fd5b82602086016020830137600092810160200192909252509392505050565b600080600080600060a08688031215611eb357600080fd5b8535611ebe81611c47565b94506020860135611ece81611c47565b9350604086013567ffffffffffffffff80821115611eeb57600080fd5b611ef789838a01611da6565b94506060880135915080821115611f0d57600080fd5b611f1989838a01611da6565b93506080880135915080821115611f2f57600080fd5b50611f3c88828901611e3f565b9150509295509295909350565b600060208284031215611f5b57600080fd5b8135611c4081611c47565b60008060008060808587031215611f7c57600080fd5b8435611f8781611c47565b9350602085013592506040850135611f9e81611c47565b9396929550929360600135925050565b60008060408385031215611fc157600080fd5b823567ffffffffffffffff80821115611fd957600080fd5b818501915085601f830112611fed57600080fd5b81356020611ffa82611d82565b6040516120078282611d55565b83815260059390931b850182019282810191508984111561202757600080fd5b948201945b8386101561204e57853561203f81611c47565b8252948201949082019061202c565b9650508601359250508082111561206457600080fd5b5061207185828601611da6565b9150509250929050565b600081518084526020808501945080840160005b838110156120ab5781518752958201959082019060010161208f565b509495945050505050565b602081526000611c40602083018461207b565b600080604083850312156120dc57600080fd5b82356120e781611c47565b9150602083013567ffffffffffffffff81111561210357600080fd5b61207185828601611e3f565b6000806040838503121561212257600080fd5b823561212d81611c47565b91506020830135801515811461214257600080fd5b809150509250929050565b6000806040838503121561216057600080fd5b823561216b81611c47565b9150602083013561214281611c47565b600080600080600060a0868803121561219357600080fd5b853561219e81611c47565b945060208601356121ae81611c47565b93506040860135925060608601359150608086013567ffffffffffffffff8111156121d857600080fd5b611f3c88828901611e3f565b6000602082840312156121f657600080fd5b815167ffffffffffffffff81111561220d57600080fd5b8201601f8101841361221e57600080fd5b805161222981611e17565b6040516122368282611d55565b82815286602084860101111561224b57600080fd5b61225c836020830160208701611cd4565b9695505050505050565b60008251612278818460208701611cd4565b637b69647d60e01b920191825250600401919050565b6020808252602f908201527f455243313135353a2063616c6c6572206973206e6f7420746f6b656e206f776e60408201526e195c881b9bdc88185c1c1c9bdd9959608a1b606082015260800190565b6020808252602c908201527f46756e6374696f6e206d7573742062652063616c6c6564207468726f7567682060408201526b19195b1959d85d1958d85b1b60a21b606082015260800190565b6020808252602c908201527f46756e6374696f6e206d7573742062652063616c6c6564207468726f7567682060408201526b6163746976652070726f787960a01b606082015260800190565b634e487b7160e01b600052603260045260246000fd5b634e487b7160e01b600052601160045260246000fd5b60006000198214156123b5576123b561238b565b5060010190565b60208082526025908201527f455243313135353a207472616e7366657220746f20746865207a65726f206164604082015264647265737360d81b606082015260800190565b6020808252602a908201527f455243313135353a20696e73756666696369656e742062616c616e636520666f60408201526939103a3930b739b332b960b11b606082015260800190565b6000821982111561245e5761245e61238b565b500190565b604081526000612476604083018561207b565b8281036020840152611bfe818561207b565b60006020828403121561249a57600080fd5b5051919050565b6020808252602b908201527f496e697469616c697a61626c653a20636f6e7472616374206973206e6f74206960408201526a6e697469616c697a696e6760a81b606082015260800190565b6000602082840312156124fe57600080fd5b8151611c4081611c47565b6001600160a01b0386811682528516602082015260a0604082018190526000906125359083018661207b565b8281036060840152612547818661207b565b9050828103608084015261255b8185611d00565b98975050505050505050565b60006020828403121561257957600080fd5b8151611c4081611c88565b600060033d11156109b55760046000803e5060005160e01c90565b600060443d10156125ad5790565b6040516003193d81016004833e81513d67ffffffffffffffff81602484011181841117156125dd57505050505090565b82850191508151818111156125f55750505050505090565b843d870101602082850101111561260f5750505050505090565b61261e60208286010187611d55565b509095945050505050565b60208082526028908201527f455243313135353a204552433131353552656365697665722072656a656374656040820152676420746f6b656e7360c01b606082015260800190565b6001600160a01b03868116825285166020820152604081018490526060810183905260a0608082018190526000906126ab90830184611d00565b979650505050505050565b600082516126c8818460208701611cd4565b919091019291505056fe360894a13ba1a3210667c828492db98dca3e2076cc3735a920a3ca505d382bbc416464726573733a206c6f772d6c6576656c2064656c65676174652063616c6c206661696c6564a26469706673582212205e543aae3f2c451eec59e0ddfed7692bf3d71c2f1fea26a5463a92a90418922264736f6c634300080c0033",
  "devdoc": {
    "kind": "dev",
    "methods": {
      "balanceOf(address,uint256)": {
        "details": "See {IERC1155-balanceOf}. Requirements: - `account` cannot be the zero address."
      },
      "balanceOfBatch(address[],uint256[])": {
        "details": "See {IERC1155-balanceOfBatch}. Requirements: - `accounts` and `ids` must have the same length."
      },
      "exists(uint256)": {
        "details": "Indicates whether any token exist with a given id, or not."
      },
      "initialize(address)": {
        "details": "initialization function for upgradeable contract"
      },
      "isApprovedForAll(address,address)": {
        "details": "See {IERC1155-isApprovedForAll}."
      },
      "mint(address,uint256,address,uint256)": {
        "details": "Mint A's token to B and B's to A"
      },
      "owner()": {
        "details": "Returns the address of the current owner."
      },
      "proxiableUUID()": {
        "details": "Implementation of the ERC1822 {proxiableUUID} function. This returns the storage slot used by the implementation. It is used to validate that the this implementation remains valid after an upgrade. IMPORTANT: A proxy pointing at a proxiable contract should not be considered proxiable itself, because this risks bricking a proxy that upgrades to it, by delegating to itself until out of gas. Thus it is critical that this function revert if invoked through a proxy. This is guaranteed by the `notDelegated` modifier."
      },
      "renounceOwnership()": {
        "details": "Leaves the contract without owner. It will not be possible to call `onlyOwner` functions anymore. Can only be called by the current owner. NOTE: Renouncing ownership will leave the contract without an owner, thereby removing any functionality that is only available to the owner."
      },
      "safeBatchTransferFrom(address,address,uint256[],uint256[],bytes)": {
        "details": "See {IERC1155-safeBatchTransferFrom}."
      },
      "safeTransferFrom(address,address,uint256,uint256,bytes)": {
        "details": "See {IERC1155-safeTransferFrom}."
      },
      "setApprovalForAll(address,bool)": {
        "details": "See {IERC1155-setApprovalForAll}."
      },
      "supportsInterface(bytes4)": {
        "details": "See {IERC165-supportsInterface}."
      },
      "totalSupply(uint256)": {
        "details": "Total amount of tokens in with a given id."
      },
      "transferOwnership(address)": {
        "details": "Transfers ownership of the contract to a new account (`newOwner`). Can only be called by the current owner."
      },
      "upgradeTo(address)": {
        "details": "Upgrade the implementation of the proxy to `newImplementation`. Calls {_authorizeUpgrade}. Emits an {Upgraded} event."
      },
      "upgradeToAndCall(address,bytes)": {
        "details": "Upgrade the implementation of the proxy to `newImplementation`, and subsequently execute the function call encoded in `data`. Calls {_authorizeUpgrade}. Emits an {Upgraded} event."
      },
      "uri(uint256)": {
        "details": "Override ERC1155-uri"
      }
    },
    "version": 1
  },
  "userdoc": {
    "kind": "user",
    "methods": {},
    "version": 1
  },
  "storageLayout": {
    "storage": [
      {
        "astId": 527,
        "contract": "contracts/Tind3rMatching.sol:Tind3rMatching",
        "label": "_initialized",
        "offset": 0,
        "slot": "0",
        "type": "t_uint8"
      },
      {
        "astId": 530,
        "contract": "contracts/Tind3rMatching.sol:Tind3rMatching",
        "label": "_initializing",
        "offset": 1,
        "slot": "0",
        "type": "t_bool"
      },
      {
        "astId": 509,
        "contract": "contracts/Tind3rMatching.sol:Tind3rMatching",
        "label": "__gap",
        "offset": 0,
        "slot": "1",
        "type": "t_array(t_uint256)50_storage"
      },
      {
        "astId": 806,
        "contract": "contracts/Tind3rMatching.sol:Tind3rMatching",
        "label": "__gap",
        "offset": 0,
        "slot": "51",
        "type": "t_array(t_uint256)50_storage"
      },
      {
        "astId": 2691,
        "contract": "contracts/Tind3rMatching.sol:Tind3rMatching",
        "label": "__gap",
        "offset": 0,
        "slot": "101",
        "type": "t_array(t_uint256)50_storage"
      },
      {
        "astId": 3021,
        "contract": "contracts/Tind3rMatching.sol:Tind3rMatching",
        "label": "__gap",
        "offset": 0,
        "slot": "151",
        "type": "t_array(t_uint256)50_storage"
      },
      {
        "astId": 836,
        "contract": "contracts/Tind3rMatching.sol:Tind3rMatching",
        "label": "_balances",
        "offset": 0,
        "slot": "201",
        "type": "t_mapping(t_uint256,t_mapping(t_address,t_uint256))"
      },
      {
        "astId": 842,
        "contract": "contracts/Tind3rMatching.sol:Tind3rMatching",
        "label": "_operatorApprovals",
        "offset": 0,
        "slot": "202",
        "type": "t_mapping(t_address,t_mapping(t_address,t_bool))"
      },
      {
        "astId": 844,
        "contract": "contracts/Tind3rMatching.sol:Tind3rMatching",
        "label": "_uri",
        "offset": 0,
        "slot": "203",
        "type": "t_string_storage"
      },
      {
        "astId": 2051,
        "contract": "contracts/Tind3rMatching.sol:Tind3rMatching",
        "label": "__gap",
        "offset": 0,
        "slot": "204",
        "type": "t_array(t_uint256)47_storage"
      },
      {
        "astId": 2240,
        "contract": "contracts/Tind3rMatching.sol:Tind3rMatching",
        "label": "_totalSupply",
        "offset": 0,
        "slot": "251",
        "type": "t_mapping(t_uint256,t_uint256)"
      },
      {
        "astId": 2391,
        "contract": "contracts/Tind3rMatching.sol:Tind3rMatching",
        "label": "__gap",
        "offset": 0,
        "slot": "252",
        "type": "t_array(t_uint256)49_storage"
      },
      {
        "astId": 10,
        "contract": "contracts/Tind3rMatching.sol:Tind3rMatching",
        "label": "_owner",
        "offset": 0,
        "slot": "301",
        "type": "t_address"
      },
      {
        "astId": 130,
        "contract": "contracts/Tind3rMatching.sol:Tind3rMatching",
        "label": "__gap",
        "offset": 0,
        "slot": "302",
        "type": "t_array(t_uint256)49_storage"
      },
      {
        "astId": 3293,
        "contract": "contracts/Tind3rMatching.sol:Tind3rMatching",
        "label": "_t3mContract",
        "offset": 0,
        "slot": "351",
        "type": "t_contract(T3M)3280"
      }
    ],
    "types": {
      "t_address": {
        "encoding": "inplace",
        "label": "address",
        "numberOfBytes": "20"
      },
      "t_array(t_uint256)47_storage": {
        "base": "t_uint256",
        "encoding": "inplace",
        "label": "uint256[47]",
        "numberOfBytes": "1504"
      },
      "t_array(t_uint256)49_storage": {
        "base": "t_uint256",
        "encoding": "inplace",
        "label": "uint256[49]",
        "numberOfBytes": "1568"
      },
      "t_array(t_uint256)50_storage": {
        "base": "t_uint256",
        "encoding": "inplace",
        "label": "uint256[50]",
        "numberOfBytes": "1600"
      },
      "t_bool": {
        "encoding": "inplace",
        "label": "bool",
        "numberOfBytes": "1"
      },
      "t_contract(T3M)3280": {
        "encoding": "inplace",
        "label": "contract T3M",
        "numberOfBytes": "20"
      },
      "t_mapping(t_address,t_bool)": {
        "encoding": "mapping",
        "key": "t_address",
        "label": "mapping(address => bool)",
        "numberOfBytes": "32",
        "value": "t_bool"
      },
      "t_mapping(t_address,t_mapping(t_address,t_bool))": {
        "encoding": "mapping",
        "key": "t_address",
        "label": "mapping(address => mapping(address => bool))",
        "numberOfBytes": "32",
        "value": "t_mapping(t_address,t_bool)"
      },
      "t_mapping(t_address,t_uint256)": {
        "encoding": "mapping",
        "key": "t_address",
        "label": "mapping(address => uint256)",
        "numberOfBytes": "32",
        "value": "t_uint256"
      },
      "t_mapping(t_uint256,t_mapping(t_address,t_uint256))": {
        "encoding": "mapping",
        "key": "t_uint256",
        "label": "mapping(uint256 => mapping(address => uint256))",
        "numberOfBytes": "32",
        "value": "t_mapping(t_address,t_uint256)"
      },
      "t_mapping(t_uint256,t_uint256)": {
        "encoding": "mapping",
        "key": "t_uint256",
        "label": "mapping(uint256 => uint256)",
        "numberOfBytes": "32",
        "value": "t_uint256"
      },
      "t_string_storage": {
        "encoding": "bytes",
        "label": "string",
        "numberOfBytes": "32"
      },
      "t_uint256": {
        "encoding": "inplace",
        "label": "uint256",
        "numberOfBytes": "32"
      },
      "t_uint8": {
        "encoding": "inplace",
        "label": "uint8",
        "numberOfBytes": "1"
      }
    }
  }
}