{
  "address": "0x19D8522846c1934E877cC2BdE9C46a5b78D5c8e5",
  "abi": [
    {
      "inputs": [],
      "name": "NotCallByMembershipContract",
      "type": "error"
    },
    {
      "anonymous": false,
      "inputs": [
        {
          "indexed": false,
          "internalType": "address",
          "name": "previousAdmin",
          "type": "address"
        },
        {
          "indexed": false,
          "internalType": "address",
          "name": "newAdmin",
          "type": "address"
        }
      ],
      "name": "AdminChanged",
      "type": "event"
    },
    {
      "anonymous": false,
      "inputs": [
        {
          "indexed": true,
          "internalType": "address",
          "name": "account",
          "type": "address"
        },
        {
          "indexed": true,
          "internalType": "address",
          "name": "operator",
          "type": "address"
        },
        {
          "indexed": false,
          "internalType": "bool",
          "name": "approved",
          "type": "bool"
        }
      ],
      "name": "ApprovalForAll",
      "type": "event"
    },
    {
      "anonymous": false,
      "inputs": [
        {
          "indexed": true,
          "internalType": "address",
          "name": "beacon",
          "type": "address"
        }
      ],
      "name": "BeaconUpgraded",
      "type": "event"
    },
    {
      "anonymous": false,
      "inputs": [
        {
          "indexed": false,
          "internalType": "uint256",
          "name": "aUserId",
          "type": "uint256"
        },
        {
          "indexed": false,
          "internalType": "uint256",
          "name": "bUserId",
          "type": "uint256"
        }
      ],
      "name": "Block",
      "type": "event"
    },
    {
      "anonymous": false,
      "inputs": [
        {
          "indexed": false,
          "internalType": "uint8",
          "name": "version",
          "type": "uint8"
        }
      ],
      "name": "Initialized",
      "type": "event"
    },
    {
      "anonymous": false,
      "inputs": [
        {
          "indexed": false,
          "internalType": "uint256",
          "name": "aUserId",
          "type": "uint256"
        },
        {
          "indexed": false,
          "internalType": "uint256",
          "name": "bUserId",
          "type": "uint256"
        }
      ],
      "name": "Match",
      "type": "event"
    },
    {
      "anonymous": false,
      "inputs": [
        {
          "indexed": true,
          "internalType": "address",
          "name": "previousOwner",
          "type": "address"
        },
        {
          "indexed": true,
          "internalType": "address",
          "name": "newOwner",
          "type": "address"
        }
      ],
      "name": "OwnershipTransferred",
      "type": "event"
    },
    {
      "anonymous": false,
      "inputs": [
        {
          "indexed": true,
          "internalType": "address",
          "name": "operator",
          "type": "address"
        },
        {
          "indexed": true,
          "internalType": "address",
          "name": "from",
          "type": "address"
        },
        {
          "indexed": true,
          "internalType": "address",
          "name": "to",
          "type": "address"
        },
        {
          "indexed": false,
          "internalType": "uint256[]",
          "name": "ids",
          "type": "uint256[]"
        },
        {
          "indexed": false,
          "internalType": "uint256[]",
          "name": "values",
          "type": "uint256[]"
        }
      ],
      "name": "TransferBatch",
      "type": "event"
    },
    {
      "anonymous": false,
      "inputs": [
        {
          "indexed": true,
          "internalType": "address",
          "name": "operator",
          "type": "address"
        },
        {
          "indexed": true,
          "internalType": "address",
          "name": "from",
          "type": "address"
        },
        {
          "indexed": true,
          "internalType": "address",
          "name": "to",
          "type": "address"
        },
        {
          "indexed": false,
          "internalType": "uint256",
          "name": "id",
          "type": "uint256"
        },
        {
          "indexed": false,
          "internalType": "uint256",
          "name": "value",
          "type": "uint256"
        }
      ],
      "name": "TransferSingle",
      "type": "event"
    },
    {
      "anonymous": false,
      "inputs": [
        {
          "indexed": false,
          "internalType": "string",
          "name": "value",
          "type": "string"
        },
        {
          "indexed": true,
          "internalType": "uint256",
          "name": "id",
          "type": "uint256"
        }
      ],
      "name": "URI",
      "type": "event"
    },
    {
      "anonymous": false,
      "inputs": [
        {
          "indexed": true,
          "internalType": "address",
          "name": "implementation",
          "type": "address"
        }
      ],
      "name": "Upgraded",
      "type": "event"
    },
    {
      "inputs": [
        {
          "internalType": "address",
          "name": "account",
          "type": "address"
        },
        {
          "internalType": "uint256",
          "name": "id",
          "type": "uint256"
        }
      ],
      "name": "balanceOf",
      "outputs": [
        {
          "internalType": "uint256",
          "name": "",
          "type": "uint256"
        }
      ],
      "stateMutability": "view",
      "type": "function"
    },
    {
      "inputs": [
        {
          "internalType": "address[]",
          "name": "accounts",
          "type": "address[]"
        },
        {
          "internalType": "uint256[]",
          "name": "ids",
          "type": "uint256[]"
        }
      ],
      "name": "balanceOfBatch",
      "outputs": [
        {
          "internalType": "uint256[]",
          "name": "",
          "type": "uint256[]"
        }
      ],
      "stateMutability": "view",
      "type": "function"
    },
    {
      "inputs": [
        {
          "internalType": "uint256",
          "name": "id",
          "type": "uint256"
        }
      ],
      "name": "exists",
      "outputs": [
        {
          "internalType": "bool",
          "name": "",
          "type": "bool"
        }
      ],
      "stateMutability": "view",
      "type": "function"
    },
    {
      "inputs": [
        {
          "internalType": "address",
          "name": "user",
          "type": "address"
        }
      ],
      "name": "getMatches",
      "outputs": [
        {
          "internalType": "uint32[]",
          "name": "matchedIds",
          "type": "uint32[]"
        }
      ],
      "stateMutability": "view",
      "type": "function"
    },
    {
      "inputs": [
        {
          "internalType": "contract T3M",
          "name": "t3mContract",
          "type": "address"
        }
      ],
      "name": "initialize",
      "outputs": [],
      "stateMutability": "nonpayable",
      "type": "function"
    },
    {
      "inputs": [
        {
          "internalType": "address",
          "name": "account",
          "type": "address"
        },
        {
          "internalType": "address",
          "name": "operator",
          "type": "address"
        }
      ],
      "name": "isApprovedForAll",
      "outputs": [
        {
          "internalType": "bool",
          "name": "",
          "type": "bool"
        }
      ],
      "stateMutability": "view",
      "type": "function"
    },
    {
      "inputs": [],
      "name": "membershipContract",
      "outputs": [
        {
          "internalType": "address",
          "name": "",
          "type": "address"
        }
      ],
      "stateMutability": "view",
      "type": "function"
    },
    {
      "inputs": [
        {
          "internalType": "address",
          "name": "aUser",
          "type": "address"
        },
        {
          "internalType": "uint256",
          "name": "aUserId",
          "type": "uint256"
        },
        {
          "internalType": "address",
          "name": "bUser",
          "type": "address"
        },
        {
          "internalType": "uint256",
          "name": "bUserId",
          "type": "uint256"
        }
      ],
      "name": "mint",
      "outputs": [],
      "stateMutability": "nonpayable",
      "type": "function"
    },
    {
      "inputs": [],
      "name": "owner",
      "outputs": [
        {
          "internalType": "address",
          "name": "",
          "type": "address"
        }
      ],
      "stateMutability": "view",
      "type": "function"
    },
    {
      "inputs": [],
      "name": "proxiableUUID",
      "outputs": [
        {
          "internalType": "bytes32",
          "name": "",
          "type": "bytes32"
        }
      ],
      "stateMutability": "view",
      "type": "function"
    },
    {
      "inputs": [],
      "name": "renounceOwnership",
      "outputs": [],
      "stateMutability": "nonpayable",
      "type": "function"
    },
    {
      "inputs": [
        {
          "internalType": "address",
          "name": "from",
          "type": "address"
        },
        {
          "internalType": "address",
          "name": "to",
          "type": "address"
        },
        {
          "internalType": "uint256[]",
          "name": "ids",
          "type": "uint256[]"
        },
        {
          "internalType": "uint256[]",
          "name": "amounts",
          "type": "uint256[]"
        },
        {
          "internalType": "bytes",
          "name": "data",
          "type": "bytes"
        }
      ],
      "name": "safeBatchTransferFrom",
      "outputs": [],
      "stateMutability": "nonpayable",
      "type": "function"
    },
    {
      "inputs": [
        {
          "internalType": "address",
          "name": "from",
          "type": "address"
        },
        {
          "internalType": "address",
          "name": "to",
          "type": "address"
        },
        {
          "internalType": "uint256",
          "name": "id",
          "type": "uint256"
        },
        {
          "internalType": "uint256",
          "name": "amount",
          "type": "uint256"
        },
        {
          "internalType": "bytes",
          "name": "data",
          "type": "bytes"
        }
      ],
      "name": "safeTransferFrom",
      "outputs": [],
      "stateMutability": "nonpayable",
      "type": "function"
    },
    {
      "inputs": [
        {
          "internalType": "address",
          "name": "operator",
          "type": "address"
        },
        {
          "internalType": "bool",
          "name": "approved",
          "type": "bool"
        }
      ],
      "name": "setApprovalForAll",
      "outputs": [],
      "stateMutability": "nonpayable",
      "type": "function"
    },
    {
      "inputs": [
        {
          "internalType": "bytes4",
          "name": "interfaceId",
          "type": "bytes4"
        }
      ],
      "name": "supportsInterface",
      "outputs": [
        {
          "internalType": "bool",
          "name": "",
          "type": "bool"
        }
      ],
      "stateMutability": "view",
      "type": "function"
    },
    {
      "inputs": [
        {
          "internalType": "uint256",
          "name": "id",
          "type": "uint256"
        }
      ],
      "name": "totalSupply",
      "outputs": [
        {
          "internalType": "uint256",
          "name": "",
          "type": "uint256"
        }
      ],
      "stateMutability": "view",
      "type": "function"
    },
    {
      "inputs": [
        {
          "internalType": "address",
          "name": "newOwner",
          "type": "address"
        }
      ],
      "name": "transferOwnership",
      "outputs": [],
      "stateMutability": "nonpayable",
      "type": "function"
    },
    {
      "inputs": [
        {
          "internalType": "address",
          "name": "newImplementation",
          "type": "address"
        }
      ],
      "name": "upgradeTo",
      "outputs": [],
      "stateMutability": "nonpayable",
      "type": "function"
    },
    {
      "inputs": [
        {
          "internalType": "address",
          "name": "newImplementation",
          "type": "address"
        },
        {
          "internalType": "bytes",
          "name": "data",
          "type": "bytes"
        }
      ],
      "name": "upgradeToAndCall",
      "outputs": [],
      "stateMutability": "payable",
      "type": "function"
    },
    {
      "inputs": [
        {
          "internalType": "uint256",
          "name": "",
          "type": "uint256"
        }
      ],
      "name": "uri",
      "outputs": [
        {
          "internalType": "string",
          "name": "",
          "type": "string"
        }
      ],
      "stateMutability": "view",
      "type": "function"
    }
  ],
  "numDeployments": 2,
  "solcInputHash": "e6f92e0a86d879cb21ce0f3ae62e3895",
  "bytecode": "0x60a06040523060805234801561001457600080fd5b50608051612ba561004c600039600081816105fe0152818161063e015281816108f30152818161093301526109c60152612ba56000f3fe60806040526004361061011e5760003560e01c806352d1902d116100a0578063bd85b03911610064578063bd85b0391461034d578063c4d66de81461037a578063e985e9c51461039a578063f242432a146103e3578063f2fde38b1461040357600080fd5b806352d1902d146102b7578063715018a6146102cc57806377795778146102e15780638da5cb5b1461030e578063a22cb4651461032d57600080fd5b80633c173a4f116100e75780633c173a4f146101f55780634e1273f4146102155780634f1ef286146102425780634f558e791461025557806351ec8d1e1461028457600080fd5b8062fdd58e1461012357806301ffc9a7146101565780630e89341c146101865780632eb2c2d6146101b35780633659cfe6146101d5575b600080fd5b34801561012f57600080fd5b5061014361013e36600461203b565b610423565b6040519081526020015b60405180910390f35b34801561016257600080fd5b5061017661017136600461207d565b6104be565b604051901515815260200161014d565b34801561019257600080fd5b506101a66101a136600461209a565b61050e565b60405161014d919061210b565b3480156101bf57600080fd5b506101d36101ce36600461227a565b6105a7565b005b3480156101e157600080fd5b506101d36101f0366004612328565b6105f3565b34801561020157600080fd5b506101d3610210366004612345565b6106d3565b34801561022157600080fd5b5061023561023036600461238d565b6107be565b60405161014d9190612495565b6101d36102503660046124a8565b6108e8565b34801561026157600080fd5b5061017661027036600461209a565b600090815260fb6020526040902054151590565b34801561029057600080fd5b5061015f546001600160a01b03165b6040516001600160a01b03909116815260200161014d565b3480156102c357600080fd5b506101436109b9565b3480156102d857600080fd5b506101d3610a6d565b3480156102ed57600080fd5b506103016102fc366004612328565b610a81565b60405161014d91906124ee565b34801561031a57600080fd5b5061012d546001600160a01b031661029f565b34801561033957600080fd5b506101d3610348366004612538565b610b5a565b34801561035957600080fd5b5061014361036836600461209a565b600090815260fb602052604090205490565b34801561038657600080fd5b506101d3610395366004612328565b610b65565b3480156103a657600080fd5b506101766103b5366004612576565b6001600160a01b03918216600090815260ca6020908152604080832093909416825291909152205460ff1690565b3480156103ef57600080fd5b506101d36103fe3660046125a4565b610ca2565b34801561040f57600080fd5b506101d361041e366004612328565b610ce7565b60006001600160a01b0383166104935760405162461bcd60e51b815260206004820152602a60248201527f455243313135353a2061646472657373207a65726f206973206e6f742061207660448201526930b634b21037bbb732b960b11b60648201526084015b60405180910390fd5b50600081815260c9602090815260408083206001600160a01b03861684529091529020545b92915050565b60006001600160e01b03198216636cdb3d1360e11b14806104ef57506001600160e01b031982166303a24d0760e21b145b806104b857506301ffc9a760e01b6001600160e01b03198316146104b8565b61015f5460408051631418a80f60e31b815290516060926001600160a01b03169163a0c540789160048083019260009291908290030181865afa158015610559573d6000803e3d6000fd5b505050506040513d6000823e601f3d908101601f19168201604052610581919081019061260d565b604051602001610591919061268f565b6040516020818303038152906040529050919050565b6001600160a01b0385163314806105c357506105c385336103b5565b6105df5760405162461bcd60e51b815260040161048a906126b7565b6105ec8585858585610d5d565b5050505050565b306001600160a01b037f000000000000000000000000000000000000000000000000000000000000000016141561063c5760405162461bcd60e51b815260040161048a90612706565b7f00000000000000000000000000000000000000000000000000000000000000006001600160a01b0316610685600080516020612b29833981519152546001600160a01b031690565b6001600160a01b0316146106ab5760405162461bcd60e51b815260040161048a90612752565b6106b481610f59565b604080516000808252602082019092526106d091839190610f61565b50565b61015f546001600160a01b031633146106ff5760405163062b759160e21b815260040160405180910390fd5b61071b84826001604051806020016040528060008152506110d1565b61073782846001604051806020016040528060008152506110d1565b6001600160a01b03841660009081526101606020526040902061075a9082611205565b506001600160a01b03821660009081526101606020526040902061077e9084611205565b5060408051848152602081018390527ff7f3111fa896b22b4c2b4d808aba59e9fab4e40a697881d951f4ba91011b9df6910160405180910390a150505050565b606081518351146108235760405162461bcd60e51b815260206004820152602960248201527f455243313135353a206163636f756e747320616e6420696473206c656e677468604482015268040dad2e6dac2e8c6d60bb1b606482015260840161048a565b6000835167ffffffffffffffff81111561083f5761083f61211e565b604051908082528060200260200182016040528015610868578160200160208202803683370190505b50905060005b84518110156108e0576108b385828151811061088c5761088c61279e565b60200260200101518583815181106108a6576108a661279e565b6020026020010151610423565b8282815181106108c5576108c561279e565b60209081029190910101526108d9816127ca565b905061086e565b509392505050565b306001600160a01b037f00000000000000000000000000000000000000000000000000000000000000001614156109315760405162461bcd60e51b815260040161048a90612706565b7f00000000000000000000000000000000000000000000000000000000000000006001600160a01b031661097a600080516020612b29833981519152546001600160a01b031690565b6001600160a01b0316146109a05760405162461bcd60e51b815260040161048a90612752565b6109a982610f59565b6109b582826001610f61565b5050565b6000306001600160a01b037f00000000000000000000000000000000000000000000000000000000000000001614610a595760405162461bcd60e51b815260206004820152603860248201527f555550535570677261646561626c653a206d757374206e6f742062652063616c60448201527f6c6564207468726f7567682064656c656761746563616c6c0000000000000000606482015260840161048a565b50600080516020612b298339815191525b90565b610a75611218565b610a7f6000611273565b565b6001600160a01b03811660009081526101606020526040812060609190610aa7906112c6565b90508067ffffffffffffffff811115610ac257610ac261211e565b604051908082528060200260200182016040528015610aeb578160200160208202803683370190505b50915060005b81811015610b53576001600160a01b038416600090815261016060205260409020610b1c90826112d0565b838281518110610b2e57610b2e61279e565b63ffffffff90921660209283029190910190910152610b4c816127ca565b9050610af1565b5050919050565b6109b53383836112dc565b600054610100900460ff1615808015610b855750600054600160ff909116105b80610b9f5750303b158015610b9f575060005460ff166001145b610c025760405162461bcd60e51b815260206004820152602e60248201527f496e697469616c697a61626c653a20636f6e747261637420697320616c72656160448201526d191e481a5b9a5d1a585b1a5e995960921b606482015260840161048a565b6000805460ff191660011790558015610c25576000805461ff0019166101001790555b610c2d6113bd565b610c356113e4565b610c3d6113bd565b61015f80546001600160a01b0319166001600160a01b03841617905580156109b5576000805461ff0019169055604051600181527f7f26b83ff96e1f2b6a682f133852f6798a09c465da95921460cefb38474024989060200160405180910390a15050565b6001600160a01b038516331480610cbe5750610cbe85336103b5565b610cda5760405162461bcd60e51b815260040161048a906126b7565b6105ec8585858585611413565b610cef611218565b6001600160a01b038116610d545760405162461bcd60e51b815260206004820152602660248201527f4f776e61626c653a206e6577206f776e657220697320746865207a65726f206160448201526564647265737360d01b606482015260840161048a565b6106d081611273565b8151835114610dbf5760405162461bcd60e51b815260206004820152602860248201527f455243313135353a2069647320616e6420616d6f756e7473206c656e677468206044820152670dad2e6dac2e8c6d60c31b606482015260840161048a565b6001600160a01b038416610de55760405162461bcd60e51b815260040161048a906127e5565b33610df481878787878761155d565b60005b8451811015610edd576000858281518110610e1457610e1461279e565b602002602001015190506000858381518110610e3257610e3261279e565b602090810291909101810151600084815260c9835260408082206001600160a01b038e168352909352919091205490915081811015610e835760405162461bcd60e51b815260040161048a9061282a565b600083815260c9602090815260408083206001600160a01b038e8116855292528083208585039055908b16825281208054849290610ec2908490612874565b9250508190555050505080610ed6906127ca565b9050610df7565b50846001600160a01b0316866001600160a01b0316826001600160a01b03167f4a39dc06d4c0dbc64b70af90fd698a233a518aa5d07e595d983b8c0526c8f7fb8787604051610f2d92919061288c565b60405180910390a4610f438187878787876116d6565b610f518187878787876119e8565b505050505050565b6106d0611218565b7f4910fdfa16fed3260ed0e7147f7cc6da11a60208b5b9406d12a635614ffd91435460ff1615610f9957610f9483611b44565b505050565b826001600160a01b03166352d1902d6040518163ffffffff1660e01b8152600401602060405180830381865afa925050508015610ff3575060408051601f3d908101601f19168201909252610ff0918101906128b1565b60015b6110565760405162461bcd60e51b815260206004820152602e60248201527f45524331393637557067726164653a206e657720696d706c656d656e7461746960448201526d6f6e206973206e6f74205555505360901b606482015260840161048a565b600080516020612b2983398151915281146110c55760405162461bcd60e51b815260206004820152602960248201527f45524331393637557067726164653a20756e737570706f727465642070726f786044820152681a58589b195555525160ba1b606482015260840161048a565b50610f94838383611be0565b6001600160a01b0384166111315760405162461bcd60e51b815260206004820152602160248201527f455243313135353a206d696e7420746f20746865207a65726f206164647265736044820152607360f81b606482015260840161048a565b33600061113d85611c0b565b9050600061114a85611c0b565b905061115b8360008985858961155d565b600086815260c9602090815260408083206001600160a01b038b1684529091528120805487929061118d908490612874565b909155505060408051878152602081018790526001600160a01b03808a1692600092918716917fc3d58168c5ae7397731d063d5bbf3d657854427343f4c083240f7aacaa2d0f62910160405180910390a46111ed836000898585896116d6565b6111fc83600089898989611c56565b50505050505050565b60006112118383611d11565b9392505050565b61012d546001600160a01b03163314610a7f5760405162461bcd60e51b815260206004820181905260248201527f4f776e61626c653a2063616c6c6572206973206e6f7420746865206f776e6572604482015260640161048a565b61012d80546001600160a01b038381166001600160a01b0319831681179093556040519116919082907f8be0079c531659141344cd1fd0a4f28419497f9722a3daafe3b4186f6b6457e090600090a35050565b60006104b8825490565b60006112118383611d60565b816001600160a01b0316836001600160a01b031614156113505760405162461bcd60e51b815260206004820152602960248201527f455243313135353a2073657474696e6720617070726f76616c20737461747573604482015268103337b91039b2b63360b91b606482015260840161048a565b6001600160a01b03838116600081815260ca6020908152604080832094871680845294825291829020805460ff191686151590811790915591519182527f17307eab39ab6107e8899845ad3d59bd9653f200f220920489ca2b5937696c31910160405180910390a3505050565b600054610100900460ff16610a7f5760405162461bcd60e51b815260040161048a906128ca565b600054610100900460ff1661140b5760405162461bcd60e51b815260040161048a906128ca565b610a7f611d8a565b6001600160a01b0384166114395760405162461bcd60e51b815260040161048a906127e5565b33600061144585611c0b565b9050600061145285611c0b565b905061146283898985858961155d565b600086815260c9602090815260408083206001600160a01b038c168452909152902054858110156114a55760405162461bcd60e51b815260040161048a9061282a565b600087815260c9602090815260408083206001600160a01b038d8116855292528083208985039055908a168252812080548892906114e4908490612874565b909155505060408051888152602081018890526001600160a01b03808b16928c821692918816917fc3d58168c5ae7397731d063d5bbf3d657854427343f4c083240f7aacaa2d0f62910160405180910390a4611544848a8a86868a6116d6565b611552848a8a8a8a8a611c56565b505050505050505050565b6001600160a01b0385166115e45760005b83518110156115e2578281815181106115895761158961279e565b602002602001015160fb60008684815181106115a7576115a761279e565b6020026020010151815260200190815260200160002060008282546115cc9190612874565b909155506115db9050816127ca565b905061156e565b505b6001600160a01b038416610f515760005b83518110156111fc5760008482815181106116125761161261279e565b6020026020010151905060008483815181106116305761163061279e565b60200260200101519050600060fb6000848152602001908152602001600020549050818110156116b35760405162461bcd60e51b815260206004820152602860248201527f455243313135353a206275726e20616d6f756e74206578636565647320746f74604482015267616c537570706c7960c01b606482015260840161048a565b600092835260fb6020526040909220910390556116cf816127ca565b90506115f5565b6001600160a01b03851615806116f357506001600160a01b038416155b156116fd57610f51565b825161015f54604051632b956ff760e01b81526001600160a01b0388811660048301526000921690632b956ff790602401602060405180830381865afa15801561174b573d6000803e3d6000fd5b505050506040513d601f19601f8201168201806040525081019061176f91906128b1565b61015f54604051632b956ff760e01b81526001600160a01b03898116600483015292935060009290911690632b956ff790602401602060405180830381865afa1580156117c0573d6000803e3d6000fd5b505050506040513d601f19601f820116820180604052508101906117e491906128b1565b905060005b838110156119e25760008782815181106118055761180561279e565b602090810291909101015161015f546040516331a9108f60e11b8152600481018390529192506000916001600160a01b0390911690636352211e90602401602060405180830381865afa158015611860573d6000803e3d6000fd5b505050506040513d601f19601f820116820180604052508101906118849190612915565b90506118908b83610423565b6119165760408051868152602081018490527f58444cf86e8468177c22c16e3ba6fcb8aec0ac7875febb7625760f9d2f6a3f35910160405180910390a16001600160a01b038b166000908152610160602052604090206118f09083611dba565b506001600160a01b0381166000908152610160602052604090206119149086611dba565b505b60006119228286610423565b1180156119485750600088848151811061193e5761193e61279e565b6020026020010151115b156119cf5760408051858152602081018490527ff7f3111fa896b22b4c2b4d808aba59e9fab4e40a697881d951f4ba91011b9df6910160405180910390a16001600160a01b038a166000908152610160602052604090206119a99083611205565b506001600160a01b0381166000908152610160602052604090206119cd9085611205565b505b5050806119db906127ca565b90506117e9565b50611552565b6001600160a01b0384163b15610f515760405163bc197c8160e01b81526001600160a01b0385169063bc197c8190611a2c9089908990889088908890600401612932565b6020604051808303816000875af1925050508015611a67575060408051601f3d908101601f19168201909252611a6491810190612990565b60015b611b1457611a736129ad565b806308c379a01415611aad5750611a886129c8565b80611a935750611aaf565b8060405162461bcd60e51b815260040161048a919061210b565b505b60405162461bcd60e51b815260206004820152603460248201527f455243313135353a207472616e7366657220746f206e6f6e20455243313135356044820152732932b1b2b4bb32b91034b6b83632b6b2b73a32b960611b606482015260840161048a565b6001600160e01b0319811663bc197c8160e01b146111fc5760405162461bcd60e51b815260040161048a90612a52565b6001600160a01b0381163b611bb15760405162461bcd60e51b815260206004820152602d60248201527f455243313936373a206e657720696d706c656d656e746174696f6e206973206e60448201526c1bdd08184818dbdb9d1c9858dd609a1b606482015260840161048a565b600080516020612b2983398151915280546001600160a01b0319166001600160a01b0392909216919091179055565b611be983611dc6565b600082511180611bf65750805b15610f9457611c058383611e06565b50505050565b60408051600180825281830190925260609160009190602080830190803683370190505090508281600081518110611c4557611c4561279e565b602090810291909101015292915050565b6001600160a01b0384163b15610f515760405163f23a6e6160e01b81526001600160a01b0385169063f23a6e6190611c9a9089908990889088908890600401612a9a565b6020604051808303816000875af1925050508015611cd5575060408051601f3d908101601f19168201909252611cd291810190612990565b60015b611ce157611a736129ad565b6001600160e01b0319811663f23a6e6160e01b146111fc5760405162461bcd60e51b815260040161048a90612a52565b6000818152600183016020526040812054611d58575081546001818101845560008481526020808220909301849055845484825282860190935260409020919091556104b8565b5060006104b8565b6000826000018281548110611d7757611d7761279e565b9060005260206000200154905092915050565b600054610100900460ff16611db15760405162461bcd60e51b815260040161048a906128ca565b610a7f33611273565b60006112118383611efa565b611dcf81611b44565b6040516001600160a01b038216907fbc7cd75a20ee27fd9adebab32041f755214dbc6bffa90cc0225b39da2e5c2d3b90600090a250565b60606001600160a01b0383163b611e6e5760405162461bcd60e51b815260206004820152602660248201527f416464726573733a2064656c65676174652063616c6c20746f206e6f6e2d636f6044820152651b9d1c9858dd60d21b606482015260840161048a565b600080846001600160a01b031684604051611e899190612adf565b600060405180830381855af49150503d8060008114611ec4576040519150601f19603f3d011682016040523d82523d6000602084013e611ec9565b606091505b5091509150611ef18282604051806060016040528060278152602001612b4960279139611fed565b95945050505050565b60008181526001830160205260408120548015611fe3576000611f1e600183612afb565b8554909150600090611f3290600190612afb565b9050818114611f97576000866000018281548110611f5257611f5261279e565b9060005260206000200154905080876000018481548110611f7557611f7561279e565b6000918252602080832090910192909255918252600188019052604090208390555b8554869080611fa857611fa8612b12565b6001900381819060005260206000200160009055905585600101600086815260200190815260200160002060009055600193505050506104b8565b60009150506104b8565b60608315611ffc575081611211565b82511561200c5782518084602001fd5b8160405162461bcd60e51b815260040161048a919061210b565b6001600160a01b03811681146106d057600080fd5b6000806040838503121561204e57600080fd5b823561205981612026565b946020939093013593505050565b6001600160e01b0319811681146106d057600080fd5b60006020828403121561208f57600080fd5b813561121181612067565b6000602082840312156120ac57600080fd5b5035919050565b60005b838110156120ce5781810151838201526020016120b6565b83811115611c055750506000910152565b600081518084526120f78160208601602086016120b3565b601f01601f19169290920160200192915050565b60208152600061121160208301846120df565b634e487b7160e01b600052604160045260246000fd5b601f8201601f1916810167ffffffffffffffff8111828210171561215a5761215a61211e565b6040525050565b600067ffffffffffffffff82111561217b5761217b61211e565b5060051b60200190565b600082601f83011261219657600080fd5b813560206121a382612161565b6040516121b08282612134565b83815260059390931b85018201928281019150868411156121d057600080fd5b8286015b848110156121eb57803583529183019183016121d4565b509695505050505050565b600067ffffffffffffffff8211156122105761221061211e565b50601f01601f191660200190565b600082601f83011261222f57600080fd5b813561223a816121f6565b6040516122478282612134565b82815285602084870101111561225c57600080fd5b82602086016020830137600092810160200192909252509392505050565b600080600080600060a0868803121561229257600080fd5b853561229d81612026565b945060208601356122ad81612026565b9350604086013567ffffffffffffffff808211156122ca57600080fd5b6122d689838a01612185565b945060608801359150808211156122ec57600080fd5b6122f889838a01612185565b9350608088013591508082111561230e57600080fd5b5061231b8882890161221e565b9150509295509295909350565b60006020828403121561233a57600080fd5b813561121181612026565b6000806000806080858703121561235b57600080fd5b843561236681612026565b935060208501359250604085013561237d81612026565b9396929550929360600135925050565b600080604083850312156123a057600080fd5b823567ffffffffffffffff808211156123b857600080fd5b818501915085601f8301126123cc57600080fd5b813560206123d982612161565b6040516123e68282612134565b83815260059390931b850182019282810191508984111561240657600080fd5b948201945b8386101561242d57853561241e81612026565b8252948201949082019061240b565b9650508601359250508082111561244357600080fd5b5061245085828601612185565b9150509250929050565b600081518084526020808501945080840160005b8381101561248a5781518752958201959082019060010161246e565b509495945050505050565b602081526000611211602083018461245a565b600080604083850312156124bb57600080fd5b82356124c681612026565b9150602083013567ffffffffffffffff8111156124e257600080fd5b6124508582860161221e565b6020808252825182820181905260009190848201906040850190845b8181101561252c57835163ffffffff168352928401929184019160010161250a565b50909695505050505050565b6000806040838503121561254b57600080fd5b823561255681612026565b91506020830135801515811461256b57600080fd5b809150509250929050565b6000806040838503121561258957600080fd5b823561259481612026565b9150602083013561256b81612026565b600080600080600060a086880312156125bc57600080fd5b85356125c781612026565b945060208601356125d781612026565b93506040860135925060608601359150608086013567ffffffffffffffff81111561260157600080fd5b61231b8882890161221e565b60006020828403121561261f57600080fd5b815167ffffffffffffffff81111561263657600080fd5b8201601f8101841361264757600080fd5b8051612652816121f6565b60405161265f8282612134565b82815286602084860101111561267457600080fd5b6126858360208301602087016120b3565b9695505050505050565b600082516126a18184602087016120b3565b637b69647d60e01b920191825250600401919050565b6020808252602f908201527f455243313135353a2063616c6c6572206973206e6f7420746f6b656e206f776e60408201526e195c881b9bdc88185c1c1c9bdd9959608a1b606082015260800190565b6020808252602c908201527f46756e6374696f6e206d7573742062652063616c6c6564207468726f7567682060408201526b19195b1959d85d1958d85b1b60a21b606082015260800190565b6020808252602c908201527f46756e6374696f6e206d7573742062652063616c6c6564207468726f7567682060408201526b6163746976652070726f787960a01b606082015260800190565b634e487b7160e01b600052603260045260246000fd5b634e487b7160e01b600052601160045260246000fd5b60006000198214156127de576127de6127b4565b5060010190565b60208082526025908201527f455243313135353a207472616e7366657220746f20746865207a65726f206164604082015264647265737360d81b606082015260800190565b6020808252602a908201527f455243313135353a20696e73756666696369656e742062616c616e636520666f60408201526939103a3930b739b332b960b11b606082015260800190565b60008219821115612887576128876127b4565b500190565b60408152600061289f604083018561245a565b8281036020840152611ef1818561245a565b6000602082840312156128c357600080fd5b5051919050565b6020808252602b908201527f496e697469616c697a61626c653a20636f6e7472616374206973206e6f74206960408201526a6e697469616c697a696e6760a81b606082015260800190565b60006020828403121561292757600080fd5b815161121181612026565b6001600160a01b0386811682528516602082015260a06040820181905260009061295e9083018661245a565b8281036060840152612970818661245a565b9050828103608084015261298481856120df565b98975050505050505050565b6000602082840312156129a257600080fd5b815161121181612067565b600060033d1115610a6a5760046000803e5060005160e01c90565b600060443d10156129d65790565b6040516003193d81016004833e81513d67ffffffffffffffff8160248401118184111715612a0657505050505090565b8285019150815181811115612a1e5750505050505090565b843d8701016020828501011115612a385750505050505090565b612a4760208286010187612134565b509095945050505050565b60208082526028908201527f455243313135353a204552433131353552656365697665722072656a656374656040820152676420746f6b656e7360c01b606082015260800190565b6001600160a01b03868116825285166020820152604081018490526060810183905260a060808201819052600090612ad4908301846120df565b979650505050505050565b60008251612af18184602087016120b3565b9190910192915050565b600082821015612b0d57612b0d6127b4565b500390565b634e487b7160e01b600052603160045260246000fdfe360894a13ba1a3210667c828492db98dca3e2076cc3735a920a3ca505d382bbc416464726573733a206c6f772d6c6576656c2064656c65676174652063616c6c206661696c6564a2646970667358221220c5ea1aa5913f171b59b7c9f4f6b195f5864fc78a1234d919af13f590a786cd7164736f6c634300080c0033",
  "devdoc": {
    "kind": "dev",
    "methods": {
      "balanceOf(address,uint256)": {
        "details": "See {IERC1155-balanceOf}. Requirements: - `account` cannot be the zero address."
      },
      "balanceOfBatch(address[],uint256[])": {
        "details": "See {IERC1155-balanceOfBatch}. Requirements: - `accounts` and `ids` must have the same length."
      },
      "exists(uint256)": {
        "details": "Indicates whether any token exist with a given id, or not."
      },
      "getMatches(address)": {
        "details": "Get user all matches"
      },
      "initialize(address)": {
        "details": "initialization function for upgradeable contract"
      },
      "isApprovedForAll(address,address)": {
        "details": "See {IERC1155-isApprovedForAll}."
      },
      "membershipContract()": {
        "details": "Show membership contract"
      },
      "mint(address,uint256,address,uint256)": {
        "details": "Mint A's token to B and B's to A"
      },
      "owner()": {
        "details": "Returns the address of the current owner."
      },
      "proxiableUUID()": {
        "details": "Implementation of the ERC1822 {proxiableUUID} function. This returns the storage slot used by the implementation. It is used to validate that the this implementation remains valid after an upgrade. IMPORTANT: A proxy pointing at a proxiable contract should not be considered proxiable itself, because this risks bricking a proxy that upgrades to it, by delegating to itself until out of gas. Thus it is critical that this function revert if invoked through a proxy. This is guaranteed by the `notDelegated` modifier."
      },
      "renounceOwnership()": {
        "details": "Leaves the contract without owner. It will not be possible to call `onlyOwner` functions anymore. Can only be called by the current owner. NOTE: Renouncing ownership will leave the contract without an owner, thereby removing any functionality that is only available to the owner."
      },
      "safeBatchTransferFrom(address,address,uint256[],uint256[],bytes)": {
        "details": "See {IERC1155-safeBatchTransferFrom}."
      },
      "safeTransferFrom(address,address,uint256,uint256,bytes)": {
        "details": "See {IERC1155-safeTransferFrom}."
      },
      "setApprovalForAll(address,bool)": {
        "details": "See {IERC1155-setApprovalForAll}."
      },
      "supportsInterface(bytes4)": {
        "details": "See {IERC165-supportsInterface}."
      },
      "totalSupply(uint256)": {
        "details": "Total amount of tokens in with a given id."
      },
      "transferOwnership(address)": {
        "details": "Transfers ownership of the contract to a new account (`newOwner`). Can only be called by the current owner."
      },
      "upgradeTo(address)": {
        "details": "Upgrade the implementation of the proxy to `newImplementation`. Calls {_authorizeUpgrade}. Emits an {Upgraded} event."
      },
      "upgradeToAndCall(address,bytes)": {
        "details": "Upgrade the implementation of the proxy to `newImplementation`, and subsequently execute the function call encoded in `data`. Calls {_authorizeUpgrade}. Emits an {Upgraded} event."
      },
      "uri(uint256)": {
        "details": "Override ERC1155-uri"
      }
    },
    "version": 1
  },
  "userdoc": {
    "kind": "user",
    "methods": {},
    "version": 1
  },
  "storageLayout": {
    "storage": [
      {
        "astId": 527,
        "contract": "contracts/Tind3rMatching.sol:Tind3rMatching",
        "label": "_initialized",
        "offset": 0,
        "slot": "0",
        "type": "t_uint8"
      },
      {
        "astId": 530,
        "contract": "contracts/Tind3rMatching.sol:Tind3rMatching",
        "label": "_initializing",
        "offset": 1,
        "slot": "0",
        "type": "t_bool"
      },
      {
        "astId": 509,
        "contract": "contracts/Tind3rMatching.sol:Tind3rMatching",
        "label": "__gap",
        "offset": 0,
        "slot": "1",
        "type": "t_array(t_uint256)50_storage"
      },
      {
        "astId": 806,
        "contract": "contracts/Tind3rMatching.sol:Tind3rMatching",
        "label": "__gap",
        "offset": 0,
        "slot": "51",
        "type": "t_array(t_uint256)50_storage"
      },
      {
        "astId": 2691,
        "contract": "contracts/Tind3rMatching.sol:Tind3rMatching",
        "label": "__gap",
        "offset": 0,
        "slot": "101",
        "type": "t_array(t_uint256)50_storage"
      },
      {
        "astId": 3021,
        "contract": "contracts/Tind3rMatching.sol:Tind3rMatching",
        "label": "__gap",
        "offset": 0,
        "slot": "151",
        "type": "t_array(t_uint256)50_storage"
      },
      {
        "astId": 836,
        "contract": "contracts/Tind3rMatching.sol:Tind3rMatching",
        "label": "_balances",
        "offset": 0,
        "slot": "201",
        "type": "t_mapping(t_uint256,t_mapping(t_address,t_uint256))"
      },
      {
        "astId": 842,
        "contract": "contracts/Tind3rMatching.sol:Tind3rMatching",
        "label": "_operatorApprovals",
        "offset": 0,
        "slot": "202",
        "type": "t_mapping(t_address,t_mapping(t_address,t_bool))"
      },
      {
        "astId": 844,
        "contract": "contracts/Tind3rMatching.sol:Tind3rMatching",
        "label": "_uri",
        "offset": 0,
        "slot": "203",
        "type": "t_string_storage"
      },
      {
        "astId": 2051,
        "contract": "contracts/Tind3rMatching.sol:Tind3rMatching",
        "label": "__gap",
        "offset": 0,
        "slot": "204",
        "type": "t_array(t_uint256)47_storage"
      },
      {
        "astId": 2240,
        "contract": "contracts/Tind3rMatching.sol:Tind3rMatching",
        "label": "_totalSupply",
        "offset": 0,
        "slot": "251",
        "type": "t_mapping(t_uint256,t_uint256)"
      },
      {
        "astId": 2391,
        "contract": "contracts/Tind3rMatching.sol:Tind3rMatching",
        "label": "__gap",
        "offset": 0,
        "slot": "252",
        "type": "t_array(t_uint256)49_storage"
      },
      {
        "astId": 10,
        "contract": "contracts/Tind3rMatching.sol:Tind3rMatching",
        "label": "_owner",
        "offset": 0,
        "slot": "301",
        "type": "t_address"
      },
      {
        "astId": 130,
        "contract": "contracts/Tind3rMatching.sol:Tind3rMatching",
        "label": "__gap",
        "offset": 0,
        "slot": "302",
        "type": "t_array(t_uint256)49_storage"
      },
      {
        "astId": 3923,
        "contract": "contracts/Tind3rMatching.sol:Tind3rMatching",
        "label": "_t3mContract",
        "offset": 0,
        "slot": "351",
        "type": "t_contract(T3M)3906"
      },
      {
        "astId": 3940,
        "contract": "contracts/Tind3rMatching.sol:Tind3rMatching",
        "label": "_userMatches",
        "offset": 0,
        "slot": "352",
        "type": "t_mapping(t_address,t_struct(UintSet)3503_storage)"
      }
    ],
    "types": {
      "t_address": {
        "encoding": "inplace",
        "label": "address",
        "numberOfBytes": "20"
      },
      "t_array(t_bytes32)dyn_storage": {
        "base": "t_bytes32",
        "encoding": "dynamic_array",
        "label": "bytes32[]",
        "numberOfBytes": "32"
      },
      "t_array(t_uint256)47_storage": {
        "base": "t_uint256",
        "encoding": "inplace",
        "label": "uint256[47]",
        "numberOfBytes": "1504"
      },
      "t_array(t_uint256)49_storage": {
        "base": "t_uint256",
        "encoding": "inplace",
        "label": "uint256[49]",
        "numberOfBytes": "1568"
      },
      "t_array(t_uint256)50_storage": {
        "base": "t_uint256",
        "encoding": "inplace",
        "label": "uint256[50]",
        "numberOfBytes": "1600"
      },
      "t_bool": {
        "encoding": "inplace",
        "label": "bool",
        "numberOfBytes": "1"
      },
      "t_bytes32": {
        "encoding": "inplace",
        "label": "bytes32",
        "numberOfBytes": "32"
      },
      "t_contract(T3M)3906": {
        "encoding": "inplace",
        "label": "contract T3M",
        "numberOfBytes": "20"
      },
      "t_mapping(t_address,t_bool)": {
        "encoding": "mapping",
        "key": "t_address",
        "label": "mapping(address => bool)",
        "numberOfBytes": "32",
        "value": "t_bool"
      },
      "t_mapping(t_address,t_mapping(t_address,t_bool))": {
        "encoding": "mapping",
        "key": "t_address",
        "label": "mapping(address => mapping(address => bool))",
        "numberOfBytes": "32",
        "value": "t_mapping(t_address,t_bool)"
      },
      "t_mapping(t_address,t_struct(UintSet)3503_storage)": {
        "encoding": "mapping",
        "key": "t_address",
        "label": "mapping(address => struct EnumerableSetUpgradeable.UintSet)",
        "numberOfBytes": "32",
        "value": "t_struct(UintSet)3503_storage"
      },
      "t_mapping(t_address,t_uint256)": {
        "encoding": "mapping",
        "key": "t_address",
        "label": "mapping(address => uint256)",
        "numberOfBytes": "32",
        "value": "t_uint256"
      },
      "t_mapping(t_bytes32,t_uint256)": {
        "encoding": "mapping",
        "key": "t_bytes32",
        "label": "mapping(bytes32 => uint256)",
        "numberOfBytes": "32",
        "value": "t_uint256"
      },
      "t_mapping(t_uint256,t_mapping(t_address,t_uint256))": {
        "encoding": "mapping",
        "key": "t_uint256",
        "label": "mapping(uint256 => mapping(address => uint256))",
        "numberOfBytes": "32",
        "value": "t_mapping(t_address,t_uint256)"
      },
      "t_mapping(t_uint256,t_uint256)": {
        "encoding": "mapping",
        "key": "t_uint256",
        "label": "mapping(uint256 => uint256)",
        "numberOfBytes": "32",
        "value": "t_uint256"
      },
      "t_string_storage": {
        "encoding": "bytes",
        "label": "string",
        "numberOfBytes": "32"
      },
      "t_struct(Set)3045_storage": {
        "encoding": "inplace",
        "label": "struct EnumerableSetUpgradeable.Set",
        "members": [
          {
            "astId": 3040,
            "contract": "contracts/Tind3rMatching.sol:Tind3rMatching",
            "label": "_values",
            "offset": 0,
            "slot": "0",
            "type": "t_array(t_bytes32)dyn_storage"
          },
          {
            "astId": 3044,
            "contract": "contracts/Tind3rMatching.sol:Tind3rMatching",
            "label": "_indexes",
            "offset": 0,
            "slot": "1",
            "type": "t_mapping(t_bytes32,t_uint256)"
          }
        ],
        "numberOfBytes": "64"
      },
      "t_struct(UintSet)3503_storage": {
        "encoding": "inplace",
        "label": "struct EnumerableSetUpgradeable.UintSet",
        "members": [
          {
            "astId": 3502,
            "contract": "contracts/Tind3rMatching.sol:Tind3rMatching",
            "label": "_inner",
            "offset": 0,
            "slot": "0",
            "type": "t_struct(Set)3045_storage"
          }
        ],
        "numberOfBytes": "64"
      },
      "t_uint256": {
        "encoding": "inplace",
        "label": "uint256",
        "numberOfBytes": "32"
      },
      "t_uint8": {
        "encoding": "inplace",
        "label": "uint8",
        "numberOfBytes": "1"
      }
    }
  }
}