{
  "address": "0xCfB1cbBd50Bb8e6a17230778e3Ce0d5DBBEDDe56",
  "abi": [
    {
      "inputs": [],
      "name": "AlreadyLike",
      "type": "error"
    },
    {
      "inputs": [],
      "name": "ApprovalCallerNotOwnerNorApproved",
      "type": "error"
    },
    {
      "inputs": [],
      "name": "ApprovalQueryForNonexistentToken",
      "type": "error"
    },
    {
      "inputs": [],
      "name": "ApproveToCaller",
      "type": "error"
    },
    {
      "inputs": [],
      "name": "BalanceQueryForZeroAddress",
      "type": "error"
    },
    {
      "inputs": [],
      "name": "CanNotSelfLike",
      "type": "error"
    },
    {
      "inputs": [],
      "name": "CanNotSelfReport",
      "type": "error"
    },
    {
      "inputs": [],
      "name": "CanNotTransferOrBurn",
      "type": "error"
    },
    {
      "inputs": [
        {
          "internalType": "uint256",
          "name": "chainid",
          "type": "uint256"
        }
      ],
      "name": "ChainNotSupported",
      "type": "error"
    },
    {
      "inputs": [
        {
          "internalType": "uint64",
          "name": "",
          "type": "uint64"
        }
      ],
      "name": "ExistentUser",
      "type": "error"
    },
    {
      "inputs": [],
      "name": "MintERC2309QuantityExceedsLimit",
      "type": "error"
    },
    {
      "inputs": [],
      "name": "MintToZeroAddress",
      "type": "error"
    },
    {
      "inputs": [],
      "name": "MintZeroQuantity",
      "type": "error"
    },
    {
      "inputs": [],
      "name": "NonExistentUser",
      "type": "error"
    },
    {
      "inputs": [],
      "name": "OwnerQueryForNonexistentToken",
      "type": "error"
    },
    {
      "inputs": [],
      "name": "OwnershipNotInitializedForExtraData",
      "type": "error"
    },
    {
      "inputs": [],
      "name": "TransferCallerNotOwnerNorApproved",
      "type": "error"
    },
    {
      "inputs": [],
      "name": "TransferFromIncorrectOwner",
      "type": "error"
    },
    {
      "inputs": [],
      "name": "TransferToNonERC721ReceiverImplementer",
      "type": "error"
    },
    {
      "inputs": [],
      "name": "TransferToZeroAddress",
      "type": "error"
    },
    {
      "inputs": [],
      "name": "URIQueryForNonexistentToken",
      "type": "error"
    },
    {
      "anonymous": false,
      "inputs": [
        {
          "indexed": false,
          "internalType": "address",
          "name": "previousAdmin",
          "type": "address"
        },
        {
          "indexed": false,
          "internalType": "address",
          "name": "newAdmin",
          "type": "address"
        }
      ],
      "name": "AdminChanged",
      "type": "event"
    },
    {
      "anonymous": false,
      "inputs": [
        {
          "indexed": true,
          "internalType": "address",
          "name": "owner",
          "type": "address"
        },
        {
          "indexed": true,
          "internalType": "address",
          "name": "approved",
          "type": "address"
        },
        {
          "indexed": true,
          "internalType": "uint256",
          "name": "tokenId",
          "type": "uint256"
        }
      ],
      "name": "Approval",
      "type": "event"
    },
    {
      "anonymous": false,
      "inputs": [
        {
          "indexed": true,
          "internalType": "address",
          "name": "owner",
          "type": "address"
        },
        {
          "indexed": true,
          "internalType": "address",
          "name": "operator",
          "type": "address"
        },
        {
          "indexed": false,
          "internalType": "bool",
          "name": "approved",
          "type": "bool"
        }
      ],
      "name": "ApprovalForAll",
      "type": "event"
    },
    {
      "anonymous": false,
      "inputs": [
        {
          "indexed": true,
          "internalType": "address",
          "name": "beacon",
          "type": "address"
        }
      ],
      "name": "BeaconUpgraded",
      "type": "event"
    },
    {
      "anonymous": false,
      "inputs": [
        {
          "indexed": true,
          "internalType": "uint256",
          "name": "fromTokenId",
          "type": "uint256"
        },
        {
          "indexed": false,
          "internalType": "uint256",
          "name": "toTokenId",
          "type": "uint256"
        },
        {
          "indexed": true,
          "internalType": "address",
          "name": "from",
          "type": "address"
        },
        {
          "indexed": true,
          "internalType": "address",
          "name": "to",
          "type": "address"
        }
      ],
      "name": "ConsecutiveTransfer",
      "type": "event"
    },
    {
      "anonymous": false,
      "inputs": [
        {
          "indexed": false,
          "internalType": "uint8",
          "name": "version",
          "type": "uint8"
        }
      ],
      "name": "Initialized",
      "type": "event"
    },
    {
      "anonymous": false,
      "inputs": [
        {
          "indexed": true,
          "internalType": "uint256",
          "name": "tokenId",
          "type": "uint256"
        },
        {
          "indexed": false,
          "internalType": "string",
          "name": "name",
          "type": "string"
        },
        {
          "indexed": false,
          "internalType": "string",
          "name": "description",
          "type": "string"
        },
        {
          "indexed": false,
          "internalType": "string",
          "name": "image",
          "type": "string"
        }
      ],
      "name": "NewProfile",
      "type": "event"
    },
    {
      "anonymous": false,
      "inputs": [
        {
          "indexed": true,
          "internalType": "address",
          "name": "previousOwner",
          "type": "address"
        },
        {
          "indexed": true,
          "internalType": "address",
          "name": "newOwner",
          "type": "address"
        }
      ],
      "name": "OwnershipTransferred",
      "type": "event"
    },
    {
      "anonymous": false,
      "inputs": [
        {
          "indexed": true,
          "internalType": "address",
          "name": "from",
          "type": "address"
        },
        {
          "indexed": true,
          "internalType": "address",
          "name": "to",
          "type": "address"
        },
        {
          "indexed": true,
          "internalType": "uint256",
          "name": "tokenId",
          "type": "uint256"
        }
      ],
      "name": "Transfer",
      "type": "event"
    },
    {
      "anonymous": false,
      "inputs": [
        {
          "indexed": true,
          "internalType": "uint256",
          "name": "tokenId",
          "type": "uint256"
        },
        {
          "indexed": false,
          "internalType": "string",
          "name": "name",
          "type": "string"
        },
        {
          "indexed": false,
          "internalType": "string",
          "name": "description",
          "type": "string"
        },
        {
          "indexed": false,
          "internalType": "string",
          "name": "image",
          "type": "string"
        }
      ],
      "name": "UpdateProfile",
      "type": "event"
    },
    {
      "anonymous": false,
      "inputs": [
        {
          "indexed": true,
          "internalType": "address",
          "name": "implementation",
          "type": "address"
        }
      ],
      "name": "Upgraded",
      "type": "event"
    },
    {
      "inputs": [
        {
          "internalType": "address",
          "name": "to",
          "type": "address"
        },
        {
          "internalType": "uint256",
          "name": "tokenId",
          "type": "uint256"
        }
      ],
      "name": "approve",
      "outputs": [],
      "stateMutability": "nonpayable",
      "type": "function"
    },
    {
      "inputs": [
        {
          "internalType": "address",
          "name": "owner",
          "type": "address"
        }
      ],
      "name": "balanceOf",
      "outputs": [
        {
          "internalType": "uint256",
          "name": "",
          "type": "uint256"
        }
      ],
      "stateMutability": "view",
      "type": "function"
    },
    {
      "inputs": [
        {
          "components": [
            {
              "internalType": "string",
              "name": "name",
              "type": "string"
            },
            {
              "internalType": "string",
              "name": "description",
              "type": "string"
            },
            {
              "internalType": "string",
              "name": "image",
              "type": "string"
            }
          ],
          "internalType": "struct ITind3rMembership.Tind3rProfile",
          "name": "userProfile",
          "type": "tuple"
        }
      ],
      "name": "createProfile",
      "outputs": [
        {
          "internalType": "uint256",
          "name": "",
          "type": "uint256"
        }
      ],
      "stateMutability": "nonpayable",
      "type": "function"
    },
    {
      "inputs": [
        {
          "internalType": "uint256",
          "name": "tokenId",
          "type": "uint256"
        }
      ],
      "name": "getApproved",
      "outputs": [
        {
          "internalType": "address",
          "name": "",
          "type": "address"
        }
      ],
      "stateMutability": "view",
      "type": "function"
    },
    {
      "inputs": [
        {
          "internalType": "address",
          "name": "user",
          "type": "address"
        }
      ],
      "name": "getMatches",
      "outputs": [
        {
          "internalType": "uint32[]",
          "name": "",
          "type": "uint32[]"
        }
      ],
      "stateMutability": "view",
      "type": "function"
    },
    {
      "inputs": [
        {
          "internalType": "address",
          "name": "user",
          "type": "address"
        }
      ],
      "name": "getUserId",
      "outputs": [
        {
          "internalType": "uint256",
          "name": "",
          "type": "uint256"
        }
      ],
      "stateMutability": "view",
      "type": "function"
    },
    {
      "inputs": [
        {
          "internalType": "address",
          "name": "userA",
          "type": "address"
        },
        {
          "internalType": "address",
          "name": "userB",
          "type": "address"
        }
      ],
      "name": "ifLike",
      "outputs": [
        {
          "internalType": "bool",
          "name": "",
          "type": "bool"
        }
      ],
      "stateMutability": "view",
      "type": "function"
    },
    {
      "inputs": [
        {
          "internalType": "string",
          "name": "initBaseURI",
          "type": "string"
        }
      ],
      "name": "initialize",
      "outputs": [],
      "stateMutability": "nonpayable",
      "type": "function"
    },
    {
      "inputs": [
        {
          "internalType": "address",
          "name": "owner",
          "type": "address"
        },
        {
          "internalType": "address",
          "name": "operator",
          "type": "address"
        }
      ],
      "name": "isApprovedForAll",
      "outputs": [
        {
          "internalType": "bool",
          "name": "",
          "type": "bool"
        }
      ],
      "stateMutability": "view",
      "type": "function"
    },
    {
      "inputs": [
        {
          "internalType": "address",
          "name": "userA",
          "type": "address"
        },
        {
          "internalType": "address",
          "name": "userB",
          "type": "address"
        }
      ],
      "name": "isMatched",
      "outputs": [
        {
          "internalType": "bool",
          "name": "",
          "type": "bool"
        }
      ],
      "stateMutability": "view",
      "type": "function"
    },
    {
      "inputs": [
        {
          "internalType": "address",
          "name": "user",
          "type": "address"
        }
      ],
      "name": "isTind3rMember",
      "outputs": [
        {
          "internalType": "bool",
          "name": "",
          "type": "bool"
        }
      ],
      "stateMutability": "view",
      "type": "function"
    },
    {
      "inputs": [
        {
          "internalType": "address",
          "name": "target",
          "type": "address"
        }
      ],
      "name": "like",
      "outputs": [],
      "stateMutability": "nonpayable",
      "type": "function"
    },
    {
      "inputs": [],
      "name": "matchingContract",
      "outputs": [
        {
          "internalType": "contract ITind3rMatching",
          "name": "",
          "type": "address"
        }
      ],
      "stateMutability": "view",
      "type": "function"
    },
    {
      "inputs": [],
      "name": "metadataURI",
      "outputs": [
        {
          "internalType": "string",
          "name": "",
          "type": "string"
        }
      ],
      "stateMutability": "view",
      "type": "function"
    },
    {
      "inputs": [],
      "name": "name",
      "outputs": [
        {
          "internalType": "string",
          "name": "",
          "type": "string"
        }
      ],
      "stateMutability": "view",
      "type": "function"
    },
    {
      "inputs": [],
      "name": "owner",
      "outputs": [
        {
          "internalType": "address",
          "name": "",
          "type": "address"
        }
      ],
      "stateMutability": "view",
      "type": "function"
    },
    {
      "inputs": [
        {
          "internalType": "uint256",
          "name": "tokenId",
          "type": "uint256"
        }
      ],
      "name": "ownerOf",
      "outputs": [
        {
          "internalType": "address",
          "name": "",
          "type": "address"
        }
      ],
      "stateMutability": "view",
      "type": "function"
    },
    {
      "inputs": [],
      "name": "prefixURI",
      "outputs": [
        {
          "internalType": "string",
          "name": "",
          "type": "string"
        }
      ],
      "stateMutability": "view",
      "type": "function"
    },
    {
      "inputs": [],
      "name": "proxiableUUID",
      "outputs": [
        {
          "internalType": "bytes32",
          "name": "",
          "type": "bytes32"
        }
      ],
      "stateMutability": "view",
      "type": "function"
    },
    {
      "inputs": [],
      "name": "renounceOwnership",
      "outputs": [],
      "stateMutability": "nonpayable",
      "type": "function"
    },
    {
      "inputs": [
        {
          "internalType": "address",
          "name": "target",
          "type": "address"
        }
      ],
      "name": "report",
      "outputs": [],
      "stateMutability": "nonpayable",
      "type": "function"
    },
    {
      "inputs": [
        {
          "internalType": "address",
          "name": "from",
          "type": "address"
        },
        {
          "internalType": "address",
          "name": "to",
          "type": "address"
        },
        {
          "internalType": "uint256",
          "name": "tokenId",
          "type": "uint256"
        }
      ],
      "name": "safeTransferFrom",
      "outputs": [],
      "stateMutability": "nonpayable",
      "type": "function"
    },
    {
      "inputs": [
        {
          "internalType": "address",
          "name": "from",
          "type": "address"
        },
        {
          "internalType": "address",
          "name": "to",
          "type": "address"
        },
        {
          "internalType": "uint256",
          "name": "tokenId",
          "type": "uint256"
        },
        {
          "internalType": "bytes",
          "name": "_data",
          "type": "bytes"
        }
      ],
      "name": "safeTransferFrom",
      "outputs": [],
      "stateMutability": "nonpayable",
      "type": "function"
    },
    {
      "inputs": [
        {
          "internalType": "address",
          "name": "operator",
          "type": "address"
        },
        {
          "internalType": "bool",
          "name": "approved",
          "type": "bool"
        }
      ],
      "name": "setApprovalForAll",
      "outputs": [],
      "stateMutability": "nonpayable",
      "type": "function"
    },
    {
      "inputs": [
        {
          "internalType": "string",
          "name": "newBaseURI",
          "type": "string"
        }
      ],
      "name": "setBaseURI",
      "outputs": [],
      "stateMutability": "nonpayable",
      "type": "function"
    },
    {
      "inputs": [
        {
          "internalType": "address",
          "name": "newController",
          "type": "address"
        }
      ],
      "name": "setController",
      "outputs": [],
      "stateMutability": "nonpayable",
      "type": "function"
    },
    {
      "inputs": [
        {
          "internalType": "contract ITind3rMatching",
          "name": "_matchingContract",
          "type": "address"
        }
      ],
      "name": "setMatchingContract",
      "outputs": [],
      "stateMutability": "nonpayable",
      "type": "function"
    },
    {
      "inputs": [
        {
          "internalType": "bytes4",
          "name": "interfaceId",
          "type": "bytes4"
        }
      ],
      "name": "supportsInterface",
      "outputs": [
        {
          "internalType": "bool",
          "name": "",
          "type": "bool"
        }
      ],
      "stateMutability": "view",
      "type": "function"
    },
    {
      "inputs": [],
      "name": "symbol",
      "outputs": [
        {
          "internalType": "string",
          "name": "",
          "type": "string"
        }
      ],
      "stateMutability": "view",
      "type": "function"
    },
    {
      "inputs": [
        {
          "internalType": "uint256",
          "name": "tokenId",
          "type": "uint256"
        }
      ],
      "name": "tokenURI",
      "outputs": [
        {
          "internalType": "string",
          "name": "",
          "type": "string"
        }
      ],
      "stateMutability": "view",
      "type": "function"
    },
    {
      "inputs": [],
      "name": "totalSupply",
      "outputs": [
        {
          "internalType": "uint256",
          "name": "",
          "type": "uint256"
        }
      ],
      "stateMutability": "view",
      "type": "function"
    },
    {
      "inputs": [
        {
          "internalType": "address",
          "name": "from",
          "type": "address"
        },
        {
          "internalType": "address",
          "name": "to",
          "type": "address"
        },
        {
          "internalType": "uint256",
          "name": "tokenId",
          "type": "uint256"
        }
      ],
      "name": "transferFrom",
      "outputs": [],
      "stateMutability": "nonpayable",
      "type": "function"
    },
    {
      "inputs": [
        {
          "internalType": "address",
          "name": "newOwner",
          "type": "address"
        }
      ],
      "name": "transferOwnership",
      "outputs": [],
      "stateMutability": "nonpayable",
      "type": "function"
    },
    {
      "inputs": [
        {
          "components": [
            {
              "internalType": "string",
              "name": "name",
              "type": "string"
            },
            {
              "internalType": "string",
              "name": "description",
              "type": "string"
            },
            {
              "internalType": "string",
              "name": "image",
              "type": "string"
            }
          ],
          "internalType": "struct ITind3rMembership.Tind3rProfile",
          "name": "newProfile",
          "type": "tuple"
        }
      ],
      "name": "updateProfile",
      "outputs": [
        {
          "internalType": "uint256",
          "name": "",
          "type": "uint256"
        }
      ],
      "stateMutability": "nonpayable",
      "type": "function"
    },
    {
      "inputs": [
        {
          "internalType": "address",
          "name": "newImplementation",
          "type": "address"
        }
      ],
      "name": "upgradeTo",
      "outputs": [],
      "stateMutability": "nonpayable",
      "type": "function"
    },
    {
      "inputs": [
        {
          "internalType": "address",
          "name": "newImplementation",
          "type": "address"
        },
        {
          "internalType": "bytes",
          "name": "data",
          "type": "bytes"
        }
      ],
      "name": "upgradeToAndCall",
      "outputs": [],
      "stateMutability": "payable",
      "type": "function"
    },
    {
      "inputs": [
        {
          "internalType": "address",
          "name": "user",
          "type": "address"
        }
      ],
      "name": "userElo",
      "outputs": [
        {
          "internalType": "int256",
          "name": "",
          "type": "int256"
        }
      ],
      "stateMutability": "view",
      "type": "function"
    }
  ],
  "numDeployments": 21,
  "solcInputHash": "5342c5721870e9628218fde7abc55f08",
  "bytecode": "0x60a06040523060805234801561001457600080fd5b50608051613a4961004c60003960008181610d4001528181610d8001528181610e4001528181610e800152610f130152613a496000f3fe60806040526004361061021a5760003560e01c806370a0823111610123578063a5b74875116100ab578063e053ea311161006f578063e053ea3114610630578063e465c46514610650578063e985e9c514610670578063f2fde38b14610690578063f62d1888146106b057600080fd5b8063a5b7487514610590578063b88d4fde146105b0578063c87b56dd146105d0578063de0caed8146105f0578063de9b05911461061057600080fd5b806392eefe9b116100f257806392eefe9b1461050657806395d89b4114610526578063a0c540781461053b578063a22cb46514610550578063a3f58fc41461057057600080fd5b806370a0823114610486578063715018a6146104a657806377795778146104bb5780638da5cb5b146104e857600080fd5b80632b956ff7116101a657806352684cb41161017557806352684cb4146103db57806352d1902d1461041157806353964b191461042657806355f804b3146104465780636352211e1461046657600080fd5b80632b956ff7146103685780633659cfe61461038857806342842e0e146103a85780634f1ef286146103c857600080fd5b8063095ea7b3116101ed578063095ea7b3146102c357806318160ddd146102e55780631e88e319146103085780632182d9d71461032857806323b872dd1461034857600080fd5b806301ffc9a71461021f57806303ee438c1461025457806306fdde0314610276578063081812fc1461028b575b600080fd5b34801561022b57600080fd5b5061023f61023a366004612b96565b6106d0565b60405190151581526020015b60405180910390f35b34801561026057600080fd5b50610269610722565b60405161024b9190612c0b565b34801561028257600080fd5b50610269610777565b34801561029757600080fd5b506102ab6102a6366004612c1e565b610812565b6040516001600160a01b03909116815260200161024b565b3480156102cf57600080fd5b506102e36102de366004612c4c565b61085f565b005b3480156102f157600080fd5b506102fa61090d565b60405190815260200161024b565b34801561031457600080fd5b506102fa610323366004612c78565b61092c565b34801561033457600080fd5b506102e3610343366004612cb2565b610ace565b34801561035457600080fd5b506102e3610363366004612ccf565b610af8565b34801561037457600080fd5b506102fa610383366004612cb2565b610cf5565b34801561039457600080fd5b506102e36103a3366004612cb2565b610d35565b3480156103b457600080fd5b506102e36103c3366004612ccf565b610e15565b6102e36103d6366004612dc5565b610e35565b3480156103e757600080fd5b506102fa6103f6366004612cb2565b6001600160a01b0316600090815260cf602052604090205490565b34801561041d57600080fd5b506102fa610f06565b34801561043257600080fd5b5060cd546102ab906001600160a01b031681565b34801561045257600080fd5b506102e3610461366004612e14565b610fb9565b34801561047257600080fd5b506102ab610481366004612c1e565b610fcd565b34801561049257600080fd5b506102fa6104a1366004612cb2565b610fd8565b3480156104b257600080fd5b506102e3611040565b3480156104c757600080fd5b506104db6104d6366004612cb2565b611054565b60405161024b9190612e85565b3480156104f457600080fd5b506097546001600160a01b03166102ab565b34801561051257600080fd5b506102e3610521366004612cb2565b6110c7565b34801561053257600080fd5b50610269611142565b34801561054757600080fd5b5061026961115a565b34801561055c57600080fd5b506102e361056b366004612ecf565b61119a565b34801561057c57600080fd5b5061023f61058b366004612cb2565b611241565b34801561059c57600080fd5b5061023f6105ab366004612f0d565b611254565b3480156105bc57600080fd5b506102e36105cb366004612f3b565b61136d565b3480156105dc57600080fd5b506102696105eb366004612c1e565b6113b7565b3480156105fc57600080fd5b5061023f61060b366004612f0d565b61143d565b34801561061c57600080fd5b506102fa61062b366004612c78565b611471565b34801561063c57600080fd5b506102e361064b366004612cb2565b6115a3565b34801561065c57600080fd5b506102e361066b366004612cb2565b61162d565b34801561067c57600080fd5b5061023f61068b366004612f0d565b6116d8565b34801561069c57600080fd5b506102e36106ab366004612cb2565b611715565b3480156106bc57600080fd5b506102e36106cb366004612e14565b61178b565b60006301ffc9a760e01b6001600160e01b03198316148061070157506380ac58cd60e01b6001600160e01b03198316145b8061071c5750635b5e139f60e01b6001600160e01b03198316145b92915050565b6060600061072e611b6f565b905080516000141561074e57505060408051602081019091526000815290565b8060ca60405160200161076292919061307b565b60405160208183030381529060405291505090565b6060610781611b7e565b600201805461078f90612fa6565b80601f01602080910402602001604051908101604052809291908181526020018280546107bb90612fa6565b80156108085780601f106107dd57610100808354040283529160200191610808565b820191906000526020600020905b8154815290600101906020018083116107eb57829003601f168201915b5050505050905090565b600061081d82611ba2565b61083a576040516333d1c03960e21b815260040160405180910390fd5b610842611b7e565b60009283526006016020525060409020546001600160a01b031690565b600061086a82610fcd565b9050336001600160a01b038216146108a35761088681336116d8565b6108a3576040516367d9dca160e11b815260040160405180910390fd5b826108ac611b7e565b6000848152600691909101602052604080822080546001600160a01b0319166001600160a01b0394851617905551849286811692908516917f8c5be1e5ebec7d5bd14f71427d1e84f3dd0314c0f7b2291e5b200ac8c7c3b9259190a4505050565b600080610918611b7e565b60010154610924611b7e565b540303919050565b6000338161093982610fd8565b11156109725761094881611bde565b604051633cb2de3960e11b81526001600160401b0390911660048201526024015b60405180910390fd5b600061097c611c11565b60c95460cb549192506001600160a01b03169063eaf5d04e90309060ca6109a286611c21565b6109b4886001600160a01b0316611d26565b6109be8b806130c1565b6109cb60208e018e6130c1565b8e80604001906109db91906130c1565b6040516020016109f39998979695949392919061311d565b6040516020818303038152906040526040518463ffffffff1660e01b8152600401610a209392919061321e565b600060405180830381600087803b158015610a3a57600080fd5b505af1158015610a4e573d6000803e3d6000fd5b50505050610a5d826001611d3c565b610a678282611d56565b807f12225c2549977681619cd7fc7e95a20e224e85d912926c995db1b10ffb4cfdeb610a9386806130c1565b610aa060208901896130c1565b610aad60408b018b6130c1565b604051610abf9695949392919061326e565b60405180910390a29392505050565b610ad6611dbf565b60cd80546001600160a01b0319166001600160a01b0392909216919091179055565b6000610b0382611e19565b9050836001600160a01b0316816001600160a01b031614610b365760405162a1148160e81b815260040160405180910390fd5b600080610b4284611ea7565b91509150610b678187610b523390565b6001600160a01b039081169116811491141790565b610b9257610b7586336116d8565b610b9257604051632ce44b5f60e11b815260040160405180910390fd5b6001600160a01b038516610bb957604051633a954ecd60e21b815260040160405180910390fd5b610bc68686866001611ecf565b8015610bd157600082555b610bd9611b7e565b6001600160a01b0387166000908152600591909101602052604090208054600019019055610c05611b7e565b6001600160a01b03861660008181526005929092016020526040909120805460010190554260a01b17600160e11b17610c3c611b7e565b60008681526004919091016020526040902055600160e11b8316610cab5760018401610c66611b7e565b60008281526004919091016020526040902054610ca957610c85611b7e565b548114610ca95783610c95611b7e565b600083815260049190910160205260409020555b505b83856001600160a01b0316876001600160a01b03167fddf252ad1be2c89b69c2b068fc378daa952ba7f163c4a11628f55a4df523b3ef60405160405180910390a45b505050505050565b6000610d0082610fd8565b610d1d576040516329e902a560e11b815260040160405180910390fd5b610d2682611bde565b6001600160401b031692915050565b306001600160a01b037f0000000000000000000000000000000000000000000000000000000000000000161415610d7e5760405162461bcd60e51b8152600401610969906132b7565b7f00000000000000000000000000000000000000000000000000000000000000006001600160a01b0316610dc76000805160206139ad833981519152546001600160a01b031690565b6001600160a01b031614610ded5760405162461bcd60e51b815260040161096990613303565b610df681611efc565b60408051600080825260208201909252610e1291839190611f04565b50565b610e308383836040518060200160405280600081525061136d565b505050565b306001600160a01b037f0000000000000000000000000000000000000000000000000000000000000000161415610e7e5760405162461bcd60e51b8152600401610969906132b7565b7f00000000000000000000000000000000000000000000000000000000000000006001600160a01b0316610ec76000805160206139ad833981519152546001600160a01b031690565b6001600160a01b031614610eed5760405162461bcd60e51b815260040161096990613303565b610ef682611efc565b610f0282826001611f04565b5050565b6000306001600160a01b037f00000000000000000000000000000000000000000000000000000000000000001614610fa65760405162461bcd60e51b815260206004820152603860248201527f555550535570677261646561626c653a206d757374206e6f742062652063616c60448201527f6c6564207468726f7567682064656c656761746563616c6c00000000000000006064820152608401610969565b506000805160206139ad83398151915290565b610fc1611dbf565b610e3060cc8383612a73565b600061071c82611e19565b60006001600160a01b038216611001576040516323d3ad8160e21b815260040160405180910390fd5b6001600160401b03611011611b7e565b6005016000846001600160a01b03166001600160a01b0316815260200190815260200160002054169050919050565b611048611dbf565b611052600061206f565b565b60cd54604051630eef2aef60e31b81526001600160a01b0383811660048301526060921690637779577890602401600060405180830381865afa15801561109f573d6000803e3d6000fd5b505050506040513d6000823e601f3d908101601f1916820160405261071c919081019061334f565b6110cf611dbf565b60c95460cb54604051638bb0ab9760e01b815230600482015260248101919091526001600160a01b03838116604483015290911690638bb0ab9790606401600060405180830381600087803b15801561112757600080fd5b505af115801561113b573d6000803e3d6000fd5b5050505050565b606061114c611b7e565b600301805461078f90612fa6565b60606000611166611b6f565b905080516000141561118657505060408051602081019091526000815290565b8060ca60405160200161076292919061340a565b6001600160a01b0382163314156111c45760405163b06307db60e01b815260040160405180910390fd5b806111cd611b7e565b336000818152600792909201602090815260408084206001600160a01b03881680865290835293819020805460ff19169515159590951790945592518415158152919290917f17307eab39ab6107e8899845ad3d59bd9653f200f220920489ca2b5937696c31910160405180910390a35050565b60008061124d83610fd8565b1192915050565b60008061126084610cf5565b9050600061126d84610cf5565b60cd54604051627eeac760e11b81526001600160a01b038881166004830152602482018490529293506000929091169062fdd58e90604401602060405180830381865afa1580156112c2573d6000803e3d6000fd5b505050506040513d601f19601f820116820180604052508101906112e6919061351d565b118015611364575060cd54604051627eeac760e11b81526001600160a01b03868116600483015260248201859052600092169062fdd58e90604401602060405180830381865afa15801561133e573d6000803e3d6000fd5b505050506040513d601f19601f82011682018060405250810190611362919061351d565b115b95945050505050565b611378848484610af8565b6001600160a01b0383163b156113b157611394848484846120c1565b6113b1576040516368d2bf6b60e11b815260040160405180910390fd5b50505050565b60606113c282611ba2565b6113df57604051630a14c4b560e41b815260040160405180910390fd5b60006113e961115a565b905080516000141561140b575050604080516020810190915260008152919050565b8061141584611c21565b604051602001611426929190613536565b604051602081830303815290604052915050919050565b60008061144984610cf5565b9050600061145684610cf5565b600083815260d06020526040902090915061136490826121a9565b600033600161147f82610fd8565b101561149e576040516329e902a560e11b815260040160405180910390fd5b60006114a982611bde565b60c95460cb546001600160401b039290921692506001600160a01b03169063eaf5d04e90309060ca6114db89806130c1565b6114e860208c018c6130c1565b6114f560408e018e6130c1565b6114fe8c611c21565b604051602001611515989796959493929190613565565b6040516020818303038152906040526040518463ffffffff1660e01b81526004016115429392919061321e565b600060405180830381600087803b15801561155c57600080fd5b505af1158015611570573d6000803e3d6000fd5b508392507fb35cda172c046a68f0a6f5a1767189d1bb7aa9f8d2c26b8efe63857aba7710019150610a93905086806130c1565b336115ae81836121c1565b60006115b983610cf5565b60cd54604051637a94c56560e11b81526001600160a01b038581166004830152602482018490526001604483015292935091169063f5298aca90606401600060405180830381600087803b15801561161057600080fd5b505af1158015611624573d6000803e3d6000fd5b50505050505050565b336116388183612226565b611642828261143d565b15610f025760cd546001600160a01b0316633c173a4f8261166281610cf5565b8561166c87610cf5565b6040516001600160e01b031960e087901b1681526001600160a01b0394851660048201526024810193909352921660448201526064810191909152608401600060405180830381600087803b1580156116c457600080fd5b505af1158015610ced573d6000803e3d6000fd5b60006116e2611b7e565b6001600160a01b039384166000908152600791909101602090815260408083209490951682529290925250205460ff1690565b61171d611dbf565b6001600160a01b0381166117825760405162461bcd60e51b815260206004820152602660248201527f4f776e61626c653a206e6577206f776e657220697320746865207a65726f206160448201526564647265737360d01b6064820152608401610969565b610e128161206f565b6000805160206139f483398151915254610100900460ff166117c0576000805160206139f48339815191525460ff16156117c4565b303b155b6118365760405162461bcd60e51b815260206004820152603760248201527f455243373231415f5f496e697469616c697a61626c653a20636f6e747261637460448201527f20697320616c726561647920696e697469616c697a65640000000000000000006064820152608401610969565b6000805160206139f483398151915254610100900460ff16158015611872576000805160206139f4833981519152805461ffff19166101011790555b600054610100900460ff16158080156118925750600054600160ff909116105b806118ac5750303b1580156118ac575060005460ff166001145b61190f5760405162461bcd60e51b815260206004820152602e60248201527f496e697469616c697a61626c653a20636f6e747261637420697320616c72656160448201526d191e481a5b9a5d1a585b1a5e995960921b6064820152608401610969565b6000805460ff191660011790558015611932576000805461ff0019166101001790555b61197f6040518060400160405280601081526020016f054696e6433724d656d626572736869760841b8152506040518060400160405280600381526020016254334d60e81b8152506122d9565b611987612317565b61198f612346565b61199761236d565b60c980546001600160a01b0319166001600160a01b039290921691909117905560006119c246611c21565b60c9546040805180820182526011815270074696e6433725f6d656d6265727368697607c1b60208083019190915291519394506001600160a01b0390921692633a9151b0923092611a1592879101613626565b6040516020818303038152906040526040518363ffffffff1660e01b8152600401611a419291906136d7565b6020604051808303816000875af1158015611a60573d6000803e3d6000fd5b505050506040513d601f19601f82011682018060405250810190611a84919061351d565b60cb8190555060405180604001604052806011815260200170074696e6433725f6d656d6265727368697607c1b81525081611ac060cb54611c21565b604051602001611ad2939291906136fb565b60405160208183030381529060405260ca9080519060200190611af6929190612af7565b50611b0360cc8686612a73565b50508015611b4b576000805461ff0019169055604051600181527f7f26b83ff96e1f2b6a682f133852f6798a09c465da95921460cefb38474024989060200160405180910390a15b508015610e305750506000805160206139f4833981519152805461ff001916905550565b606060cc805461078f90612fa6565b7f2569078dfb4b0305704d3008e7403993ae9601b85f7ae5e742de3de8f8011c4090565b6000611bac611b7e565b548210801561071c5750600160e01b611bc3611b7e565b60008481526004919091016020526040902054161592915050565b600060c0611bea611b7e565b6001600160a01b03909316600090815260059390930160205260409092205490911c919050565b6000611c1b611b7e565b54919050565b606081611c455750506040805180820190915260018152600360fc1b602082015290565b8160005b8115611c6f5780611c598161376b565b9150611c689050600a8361379c565b9150611c49565b6000816001600160401b03811115611c8957611c89612d10565b6040519080825280601f01601f191660200182016040528015611cb3576020820181803683370190505b5090505b8415611d1e57611cc86001836137b0565b9150611cd5600a866137c7565b611ce09060306137db565b60f81b818381518110611cf557611cf56137f3565b60200101906001600160f81b031916908160001a905350611d17600a8661379c565b9450611cb7565b949350505050565b606061071c6001600160a01b0383166014612415565b610f028282604051806020016040528060008152506125b0565b6000611d60611b7e565b6001600160a01b038416600090815260059190910160205260409020546001600160c01b031660c083901b1790508181611d98611b7e565b6001600160a01b039095166000908152600595909501602052604090942093909355505050565b6097546001600160a01b031633146110525760405162461bcd60e51b815260206004820181905260248201527f4f776e61626c653a2063616c6c6572206973206e6f7420746865206f776e65726044820152606401610969565b600081611e24611b7e565b54811015611e8e576000611e36611b7e565b600083815260049190910160205260409020549050600160e01b8116611e8c575b80611e8557611e64611b7e565b60001990920160008181526004939093016020526040909220549050611e57565b9392505050565b505b604051636f96cda160e11b815260040160405180910390fd5b6000806000611eb4611b7e565b60009485526006016020525050604090912080549092909150565b6001600160a01b03841615611ef75760405163e5a0b96360e01b815260040160405180910390fd5b6113b1565b610e12611dbf565b7f4910fdfa16fed3260ed0e7147f7cc6da11a60208b5b9406d12a635614ffd91435460ff1615611f3757610e3083612626565b826001600160a01b03166352d1902d6040518163ffffffff1660e01b8152600401602060405180830381865afa925050508015611f91575060408051601f3d908101601f19168201909252611f8e9181019061351d565b60015b611ff45760405162461bcd60e51b815260206004820152602e60248201527f45524331393637557067726164653a206e657720696d706c656d656e7461746960448201526d6f6e206973206e6f74205555505360901b6064820152608401610969565b6000805160206139ad83398151915281146120635760405162461bcd60e51b815260206004820152602960248201527f45524331393637557067726164653a20756e737570706f727465642070726f786044820152681a58589b195555525160ba1b6064820152608401610969565b50610e308383836126c2565b609780546001600160a01b038381166001600160a01b0319831681179093556040519116919082907f8be0079c531659141344cd1fd0a4f28419497f9722a3daafe3b4186f6b6457e090600090a35050565b604051630a85bd0160e11b81526000906001600160a01b0385169063150b7a02906120f6903390899088908890600401613809565b6020604051808303816000875af1925050508015612131575060408051601f3d908101601f1916820190925261212e91810190613846565b60015b61218c573d80801561215f576040519150601f19603f3d011682016040523d82523d6000602084013e612164565b606091505b508051612184576040516368d2bf6b60e11b815260040160405180910390fd5b805181602001fd5b6001600160e01b031916630a85bd0160e11b149050949350505050565b60008181526001830160205260408120541515611e85565b806001600160a01b0316826001600160a01b031614156121f457604051633ed07c8560e21b815260040160405180910390fd5b6001600160a01b038116600090815260cf6020526040812080546005929061221d908490613863565b90915550505050565b806001600160a01b0316826001600160a01b0316141561225957604051630157c74f60e41b815260040160405180910390fd5b600061226483610cf5565b9050600061227183610cf5565b600083815260d06020526040902090915061228c90826121a9565b6113b157600082815260d0602052604090206122a890826126e7565b506001600160a01b038316600090815260cf6020526040812080549091906122cf906138a2565b9091555050505050565b6000805160206139f483398151915254610100900460ff1661230d5760405162461bcd60e51b8152600401610969906138bb565b610f0282826126f3565b600054610100900460ff1661233e5760405162461bcd60e51b81526004016109699061390f565b611052612776565b600054610100900460ff166110525760405162461bcd60e51b81526004016109699061390f565b60004660051415612391575073da8ea22d092307874f30a1f277d1388dca0ba97a90565b46604514156123b3575073f2c9fc73884a9c6e6db58778176ab67989139d0690565b466201388114156123d75750734b48841d4b32c4650e4abc117a03fe8b51f38f6890565b46617a6914156123fa575073e7f1725e7734ce288f8367e1bb143e90bb3f051290565b60405163264e42cf60e01b8152466004820152602401610969565b6060600061242483600261395a565b61242f9060026137db565b6001600160401b0381111561244657612446612d10565b6040519080825280601f01601f191660200182016040528015612470576020820181803683370190505b509050600360fc1b8160008151811061248b5761248b6137f3565b60200101906001600160f81b031916908160001a905350600f60fb1b816001815181106124ba576124ba6137f3565b60200101906001600160f81b031916908160001a90535060006124de84600261395a565b6124e99060016137db565b90505b6001811115612561576f181899199a1a9b1b9c1cb0b131b232b360811b85600f166010811061251d5761251d6137f3565b1a60f81b828281518110612533576125336137f3565b60200101906001600160f81b031916908160001a90535060049490941c9361255a81613979565b90506124ec565b508315611e855760405162461bcd60e51b815260206004820181905260248201527f537472696e67733a20686578206c656e67746820696e73756666696369656e746044820152606401610969565b6125ba83836127a6565b6001600160a01b0383163b15610e305760006125d4611b7e565b5490508281035b6125ee60008683806001019450866120c1565b61260b576040516368d2bf6b60e11b815260040160405180910390fd5b8181106125db578161261b611b7e565b541461113b57600080fd5b6001600160a01b0381163b6126935760405162461bcd60e51b815260206004820152602d60248201527f455243313936373a206e657720696d706c656d656e746174696f6e206973206e60448201526c1bdd08184818dbdb9d1c9858dd609a1b6064820152608401610969565b6000805160206139ad83398151915280546001600160a01b0319166001600160a01b0392909216919091179055565b6126cb836128c0565b6000825111806126d85750805b15610e30576113b18383612900565b6000611e8583836129eb565b6000805160206139f483398151915254610100900460ff166127275760405162461bcd60e51b8152600401610969906138bb565b81612730611b7e565b6002019080519060200190612746929190612af7565b5080612750611b7e565b6003019080519060200190612766929190612af7565b506000612771611b7e565b555050565b600054610100900460ff1661279d5760405162461bcd60e51b81526004016109699061390f565b6110523361206f565b60006127b0611b7e565b5490506001600160a01b0383166127d957604051622e076360e81b815260040160405180910390fd5b816127f75760405163b562e8dd60e01b815260040160405180910390fd5b6128046000848385611ecf565b680100000000000000018202612818611b7e565b6001600160a01b038516600081815260059290920160205260409091208054929092019091554260a01b6001841460e11b1717612853611b7e565b60008381526004919091016020526040902055808281015b6040516001830192906001600160a01b038716906000907fddf252ad1be2c89b69c2b068fc378daa952ba7f163c4a11628f55a4df523b3ef908290a480821061286b57806128b7611b7e565b5550610e309050565b6128c981612626565b6040516001600160a01b038216907fbc7cd75a20ee27fd9adebab32041f755214dbc6bffa90cc0225b39da2e5c2d3b90600090a250565b60606001600160a01b0383163b6129685760405162461bcd60e51b815260206004820152602660248201527f416464726573733a2064656c65676174652063616c6c20746f206e6f6e2d636f6044820152651b9d1c9858dd60d21b6064820152608401610969565b600080846001600160a01b0316846040516129839190613990565b600060405180830381855af49150503d80600081146129be576040519150601f19603f3d011682016040523d82523d6000602084013e6129c3565b606091505b509150915061136482826040518060600160405280602781526020016139cd60279139612a3a565b6000818152600183016020526040812054612a325750815460018181018455600084815260208082209093018490558454848252828601909352604090209190915561071c565b50600061071c565b60608315612a49575081611e85565b825115612a595782518084602001fd5b8160405162461bcd60e51b81526004016109699190612c0b565b828054612a7f90612fa6565b90600052602060002090601f016020900481019282612aa15760008555612ae7565b82601f10612aba5782800160ff19823516178555612ae7565b82800160010185558215612ae7579182015b82811115612ae7578235825591602001919060010190612acc565b50612af3929150612b6b565b5090565b828054612b0390612fa6565b90600052602060002090601f016020900481019282612b255760008555612ae7565b82601f10612b3e57805160ff1916838001178555612ae7565b82800160010185558215612ae7579182015b82811115612ae7578251825591602001919060010190612b50565b5b80821115612af35760008155600101612b6c565b6001600160e01b031981168114610e1257600080fd5b600060208284031215612ba857600080fd5b8135611e8581612b80565b60005b83811015612bce578181015183820152602001612bb6565b838111156113b15750506000910152565b60008151808452612bf7816020860160208601612bb3565b601f01601f19169290920160200192915050565b602081526000611e856020830184612bdf565b600060208284031215612c3057600080fd5b5035919050565b6001600160a01b0381168114610e1257600080fd5b60008060408385031215612c5f57600080fd5b8235612c6a81612c37565b946020939093013593505050565b600060208284031215612c8a57600080fd5b81356001600160401b03811115612ca057600080fd5b820160608185031215611e8557600080fd5b600060208284031215612cc457600080fd5b8135611e8581612c37565b600080600060608486031215612ce457600080fd5b8335612cef81612c37565b92506020840135612cff81612c37565b929592945050506040919091013590565b634e487b7160e01b600052604160045260246000fd5b604051601f8201601f191681016001600160401b0381118282101715612d4e57612d4e612d10565b604052919050565b600082601f830112612d6757600080fd5b81356001600160401b03811115612d8057612d80612d10565b612d93601f8201601f1916602001612d26565b818152846020838601011115612da857600080fd5b816020850160208301376000918101602001919091529392505050565b60008060408385031215612dd857600080fd5b8235612de381612c37565b915060208301356001600160401b03811115612dfe57600080fd5b612e0a85828601612d56565b9150509250929050565b60008060208385031215612e2757600080fd5b82356001600160401b0380821115612e3e57600080fd5b818501915085601f830112612e5257600080fd5b813581811115612e6157600080fd5b866020828501011115612e7357600080fd5b60209290920196919550909350505050565b6020808252825182820181905260009190848201906040850190845b81811015612ec357835163ffffffff1683529284019291840191600101612ea1565b50909695505050505050565b60008060408385031215612ee257600080fd5b8235612eed81612c37565b915060208301358015158114612f0257600080fd5b809150509250929050565b60008060408385031215612f2057600080fd5b8235612f2b81612c37565b91506020830135612f0281612c37565b60008060008060808587031215612f5157600080fd5b8435612f5c81612c37565b93506020850135612f6c81612c37565b92506040850135915060608501356001600160401b03811115612f8e57600080fd5b612f9a87828801612d56565b91505092959194509250565b600181811c90821680612fba57607f821691505b60208210811415612fdb57634e487b7160e01b600052602260045260246000fd5b50919050565b8054600090600181811c9080831680612ffb57607f831692505b602080841082141561301d57634e487b7160e01b600052602260045260246000fd5b81801561303157600181146130425761306f565b60ff1986168952848901965061306f565b60008881526020902060005b868110156130675781548b82015290850190830161304e565b505084890196505b50505050505092915050565b6000835161308d818460208801612bb3565b7f6d6f64653d6c69737426733d53454c4543542b2a2b46524f4d2b000000000000908301908152611364601a820185612fe1565b6000808335601e198436030181126130d857600080fd5b8301803591506001600160401b038211156130f257600080fd5b60200191503681900382131561310757600080fd5b9250929050565b81818437506000910190815290565b6b024a729a2a92a1024a72a27960a51b8152600061313e600c83018c612fe1565b7f202869642c206f776e65722c206e616d652c206465736372697074696f6e2c2081526e0d2dac2ceca5240ac8298aa8aa6405608b1b60208201528a5161318c81602f840160208f01612bb3565b622c202760e81b602f929091019182015289516131b0816032840160208e01612bb3565b63272c202760e01b603292909101918201528789603683013763272c202760e01b6036918901918201526131e8603a8201878961310e565b63272c202760e01b8152905061320260048201858761310e565b6227293b60e81b81526003019c9b505050505050505050505050565b60018060a01b03841681528260208201526060604082015260006113646060830184612bdf565b81835281816020850137506000828201602090810191909152601f909101601f19169091010190565b60608152600061328260608301888a613245565b8281036020840152613295818789613245565b905082810360408401526132aa818587613245565b9998505050505050505050565b6020808252602c908201527f46756e6374696f6e206d7573742062652063616c6c6564207468726f7567682060408201526b19195b1959d85d1958d85b1b60a21b606082015260800190565b6020808252602c908201527f46756e6374696f6e206d7573742062652063616c6c6564207468726f7567682060408201526b6163746976652070726f787960a01b606082015260800190565b6000602080838503121561336257600080fd5b82516001600160401b038082111561337957600080fd5b818501915085601f83011261338d57600080fd5b81518181111561339f5761339f612d10565b8060051b91506133b0848301612d26565b81815291830184019184810190888411156133ca57600080fd5b938501935b838510156133fe578451925063ffffffff831683146133ee5760008081fd5b82825293850193908501906133cf565b98975050505050505050565b6000835161341c818460208801612bb3565b6936b7b2329eb634b9ba1360b11b90830190815268733d53454c4543542b60b81b600a8201526d0d4e6dedcbedec4d4cac6e84a64760931b60138201526f2532376964253237253243696425324360801b6021820152732532376e616d652532372532436e616d6525324360601b60318201527f2532376465736372697074696f6e2532372532436465736372697074696f6e25604582015261324360f01b60658201527f253237696d616765253237253243696d6167652532392b00000000000000000060678201526446524f4d2b60d81b607e8201526135016083820185612fe1565b692b57484552452b69643d60b01b8152600a0195945050505050565b60006020828403121561352f57600080fd5b5051919050565b60008351613548818460208801612bb3565b83519083019061355c818360208801612bb3565b01949350505050565b6602aa82220aa22960cd1b81526000613581600783018b612fe1565b6a20534554206e616d653d2760a81b8152888a600b8301376f272c206465736372697074696f6e3d2760801b600b918a01918201528688601b83013769272c20696d6167653d2760b01b601b91880191820152848660258301376a272057484552452069643d60a81b6025918601918201528351613606816030840160208801612bb3565b603b60f81b603092909101918201526031019a9950505050505050505050565b6c021a922a0aa22902a20a126229609d1b81526000835161364e81600d850160208801612bb3565b605f60f81b600d91840191820152835161366f81600e840160208801612bb3565b7f2028696420696e74656765722c206f776e657220746578742c206e616d652074600e92909101918201527f6578742c206465736372697074696f6e20746578742c20696d61676520746578602e8201526274293b60e81b604e820152605101949350505050565b6001600160a01b0383168152604060208201819052600090611d1e90830184612bdf565b6000845161370d818460208901612bb3565b8083019050605f60f81b808252855161372d816001850160208a01612bb3565b60019201918201528351613748816002840160208801612bb3565b0160020195945050505050565b634e487b7160e01b600052601160045260246000fd5b600060001982141561377f5761377f613755565b5060010190565b634e487b7160e01b600052601260045260246000fd5b6000826137ab576137ab613786565b500490565b6000828210156137c2576137c2613755565b500390565b6000826137d6576137d6613786565b500690565b600082198211156137ee576137ee613755565b500190565b634e487b7160e01b600052603260045260246000fd5b6001600160a01b038581168252841660208201526040810183905260806060820181905260009061383c90830184612bdf565b9695505050505050565b60006020828403121561385857600080fd5b8151611e8581612b80565b60008083128015600160ff1b85018412161561388157613881613755565b6001600160ff1b038401831381161561389c5761389c613755565b50500390565b60006001600160ff1b0382141561377f5761377f613755565b60208082526034908201527f455243373231415f5f496e697469616c697a61626c653a20636f6e7472616374604082015273206973206e6f7420696e697469616c697a696e6760601b606082015260800190565b6020808252602b908201527f496e697469616c697a61626c653a20636f6e7472616374206973206e6f74206960408201526a6e697469616c697a696e6760a81b606082015260800190565b600081600019048311821515161561397457613974613755565b500290565b60008161398857613988613755565b506000190190565b600082516139a2818460208701612bb3565b919091019291505056fe360894a13ba1a3210667c828492db98dca3e2076cc3735a920a3ca505d382bbc416464726573733a206c6f772d6c6576656c2064656c65676174652063616c6c206661696c6564ee151c8401928dc223602bb187aff91b9a56c7cae5476ef1b3287b085a16c85fa2646970667358221220ebdc2a28f0f3d0a30a3a7b12ba0ba1dddfed2ee2239d6bcb7360948d83ad020964736f6c634300080c0033",
  "devdoc": {
    "errors": {
      "AlreadyLike()": [
        {
          "details": "Don't give too much love otherwise you'll get hurt easily :("
        }
      ],
      "CanNotSelfLike()": [
        {
          "details": "Can't like yourself you narcissism :<"
        }
      ],
      "CanNotSelfReport()": [
        {
          "details": "Can't report yourself"
        }
      ],
      "CanNotTransferOrBurn()": [
        {
          "details": "Revert when a user wants to transfer their token"
        }
      ],
      "ExistentUser(uint64)": [
        {
          "details": "Revert when an address which has created a profile wants to create another profile"
        }
      ],
      "NonExistentUser()": [
        {
          "details": "Revert when an address which hasn't created a profile wants to update profile"
        }
      ]
    },
    "kind": "dev",
    "methods": {
      "approve(address,uint256)": {
        "details": "See {IERC721-approve}."
      },
      "balanceOf(address)": {
        "details": "See {IERC721-balanceOf}."
      },
      "createProfile((string,string,string))": {
        "details": "create Tind3r profile with name and image"
      },
      "getApproved(uint256)": {
        "details": "See {IERC721-getApproved}."
      },
      "getMatches(address)": {
        "details": "Get all matches given user"
      },
      "getUserId(address)": {
        "details": "Get tokenId own by certain user"
      },
      "ifLike(address,address)": {
        "details": "Check if the first given address liked second given address"
      },
      "initialize(string)": {
        "details": "initialization function for upgradeable contract"
      },
      "isApprovedForAll(address,address)": {
        "details": "See {IERC721-isApprovedForAll}."
      },
      "isMatched(address,address)": {
        "details": "if A and B are matched"
      },
      "isTind3rMember(address)": {
        "details": "Check if user of Tind3r"
      },
      "like(address)": {
        "details": "Like target"
      },
      "metadataURI()": {
        "details": "get whole data of table"
      },
      "name()": {
        "details": "See {IERC721Metadata-name}."
      },
      "owner()": {
        "details": "Returns the address of the current owner."
      },
      "ownerOf(uint256)": {
        "details": "See {IERC721-ownerOf}."
      },
      "prefixURI()": {
        "details": "get whole data of table"
      },
      "proxiableUUID()": {
        "details": "Implementation of the ERC1822 {proxiableUUID} function. This returns the storage slot used by the implementation. It is used to validate that the this implementation remains valid after an upgrade. IMPORTANT: A proxy pointing at a proxiable contract should not be considered proxiable itself, because this risks bricking a proxy that upgrades to it, by delegating to itself until out of gas. Thus it is critical that this function revert if invoked through a proxy. This is guaranteed by the `notDelegated` modifier."
      },
      "renounceOwnership()": {
        "details": "Leaves the contract without owner. It will not be possible to call `onlyOwner` functions anymore. Can only be called by the current owner. NOTE: Renouncing ownership will leave the contract without an owner, thereby removing any functionality that is only available to the owner."
      },
      "report(address)": {
        "details": "Report target"
      },
      "safeTransferFrom(address,address,uint256)": {
        "details": "See {IERC721-safeTransferFrom}."
      },
      "safeTransferFrom(address,address,uint256,bytes)": {
        "details": "See {IERC721-safeTransferFrom}."
      },
      "setApprovalForAll(address,bool)": {
        "details": "See {IERC721-setApprovalForAll}."
      },
      "setBaseURI(string)": {
        "details": "Set baseURI"
      },
      "setController(address)": {
        "details": "Set controller"
      },
      "setMatchingContract(address)": {
        "details": "Set matching contract"
      },
      "supportsInterface(bytes4)": {
        "details": "See {IERC165-supportsInterface}."
      },
      "symbol()": {
        "details": "See {IERC721Metadata-symbol}."
      },
      "tokenURI(uint256)": {
        "details": "tokenURI is an example of how to turn a row in your table back into erc721 compliant metadata JSON. Here, we do a simple SELECT statement with function that converts the result into json."
      },
      "totalSupply()": {
        "details": "Returns the total number of tokens in existence. Burned tokens will reduce the count. To get the total number of tokens minted, please see `_totalMinted`."
      },
      "transferFrom(address,address,uint256)": {
        "details": "Transfers `tokenId` from `from` to `to`. Requirements: - `to` cannot be the zero address. - `tokenId` token must be owned by `from`. Emits a {Transfer} event."
      },
      "transferOwnership(address)": {
        "details": "Transfers ownership of the contract to a new account (`newOwner`). Can only be called by the current owner."
      },
      "updateProfile((string,string,string))": {
        "details": "update Tind3r profile with name and image"
      },
      "upgradeTo(address)": {
        "details": "Upgrade the implementation of the proxy to `newImplementation`. Calls {_authorizeUpgrade}. Emits an {Upgraded} event."
      },
      "upgradeToAndCall(address,bytes)": {
        "details": "Upgrade the implementation of the proxy to `newImplementation`, and subsequently execute the function call encoded in `data`. Calls {_authorizeUpgrade}. Emits an {Upgraded} event."
      },
      "userElo(address)": {
        "details": "Return user's elo"
      }
    },
    "version": 1
  },
  "userdoc": {
    "errors": {
      "ApprovalCallerNotOwnerNorApproved()": [
        {
          "notice": "The caller must own the token or be an approved operator."
        }
      ],
      "ApprovalQueryForNonexistentToken()": [
        {
          "notice": "The token does not exist."
        }
      ],
      "ApproveToCaller()": [
        {
          "notice": "The caller cannot approve to their own address."
        }
      ],
      "BalanceQueryForZeroAddress()": [
        {
          "notice": "Cannot query the balance for the zero address."
        }
      ],
      "ChainNotSupported(uint256)": [
        {
          "notice": "Current chain does not have a TablelandTables deployment."
        }
      ],
      "MintERC2309QuantityExceedsLimit()": [
        {
          "notice": "The `quantity` minted with ERC2309 exceeds the safety limit."
        }
      ],
      "MintToZeroAddress()": [
        {
          "notice": "Cannot mint to the zero address."
        }
      ],
      "MintZeroQuantity()": [
        {
          "notice": "The quantity of tokens minted must be more than zero."
        }
      ],
      "OwnerQueryForNonexistentToken()": [
        {
          "notice": "The token does not exist."
        }
      ],
      "OwnershipNotInitializedForExtraData()": [
        {
          "notice": "The `extraData` cannot be set on an unintialized ownership slot."
        }
      ],
      "TransferCallerNotOwnerNorApproved()": [
        {
          "notice": "The caller must own the token or be an approved operator."
        }
      ],
      "TransferFromIncorrectOwner()": [
        {
          "notice": "The token must be owned by `from`."
        }
      ],
      "TransferToNonERC721ReceiverImplementer()": [
        {
          "notice": "Cannot safely transfer to a contract that does not implement the ERC721Receiver interface."
        }
      ],
      "TransferToZeroAddress()": [
        {
          "notice": "Cannot transfer to the zero address."
        }
      ],
      "URIQueryForNonexistentToken()": [
        {
          "notice": "The token does not exist."
        }
      ]
    },
    "kind": "user",
    "methods": {},
    "version": 1
  },
  "storageLayout": {
    "storage": [
      {
        "astId": 530,
        "contract": "contracts/Tind3rMembership.sol:Tind3rMembership",
        "label": "_initialized",
        "offset": 0,
        "slot": "0",
        "type": "t_uint8"
      },
      {
        "astId": 533,
        "contract": "contracts/Tind3rMembership.sol:Tind3rMembership",
        "label": "_initializing",
        "offset": 1,
        "slot": "0",
        "type": "t_bool"
      },
      {
        "astId": 512,
        "contract": "contracts/Tind3rMembership.sol:Tind3rMembership",
        "label": "__gap",
        "offset": 0,
        "slot": "1",
        "type": "t_array(t_uint256)50_storage"
      },
      {
        "astId": 809,
        "contract": "contracts/Tind3rMembership.sol:Tind3rMembership",
        "label": "__gap",
        "offset": 0,
        "slot": "51",
        "type": "t_array(t_uint256)50_storage"
      },
      {
        "astId": 2694,
        "contract": "contracts/Tind3rMembership.sol:Tind3rMembership",
        "label": "__gap",
        "offset": 0,
        "slot": "101",
        "type": "t_array(t_uint256)50_storage"
      },
      {
        "astId": 10,
        "contract": "contracts/Tind3rMembership.sol:Tind3rMembership",
        "label": "_owner",
        "offset": 0,
        "slot": "151",
        "type": "t_address"
      },
      {
        "astId": 130,
        "contract": "contracts/Tind3rMembership.sol:Tind3rMembership",
        "label": "__gap",
        "offset": 0,
        "slot": "152",
        "type": "t_array(t_uint256)49_storage"
      },
      {
        "astId": 4492,
        "contract": "contracts/Tind3rMembership.sol:Tind3rMembership",
        "label": "_tableland",
        "offset": 0,
        "slot": "201",
        "type": "t_contract(ITablelandTables)3777"
      },
      {
        "astId": 4494,
        "contract": "contracts/Tind3rMembership.sol:Tind3rMembership",
        "label": "_metadataTable",
        "offset": 0,
        "slot": "202",
        "type": "t_string_storage"
      },
      {
        "astId": 4496,
        "contract": "contracts/Tind3rMembership.sol:Tind3rMembership",
        "label": "_metadataTableId",
        "offset": 0,
        "slot": "203",
        "type": "t_uint256"
      },
      {
        "astId": 4498,
        "contract": "contracts/Tind3rMembership.sol:Tind3rMembership",
        "label": "_baseURIString",
        "offset": 0,
        "slot": "204",
        "type": "t_string_storage"
      },
      {
        "astId": 4501,
        "contract": "contracts/Tind3rMembership.sol:Tind3rMembership",
        "label": "matchingContract",
        "offset": 0,
        "slot": "205",
        "type": "t_contract(ITind3rMatching)3910"
      },
      {
        "astId": 4505,
        "contract": "contracts/Tind3rMembership.sol:Tind3rMembership",
        "label": "_likeMap",
        "offset": 0,
        "slot": "206",
        "type": "t_mapping(t_uint256,t_uint256)"
      },
      {
        "astId": 4509,
        "contract": "contracts/Tind3rMembership.sol:Tind3rMembership",
        "label": "_userElo",
        "offset": 0,
        "slot": "207",
        "type": "t_mapping(t_address,t_int256)"
      },
      {
        "astId": 4514,
        "contract": "contracts/Tind3rMembership.sol:Tind3rMembership",
        "label": "_likeSet",
        "offset": 0,
        "slot": "208",
        "type": "t_mapping(t_uint256,t_struct(UintSet)3506_storage)"
      }
    ],
    "types": {
      "t_address": {
        "encoding": "inplace",
        "label": "address",
        "numberOfBytes": "20"
      },
      "t_array(t_bytes32)dyn_storage": {
        "base": "t_bytes32",
        "encoding": "dynamic_array",
        "label": "bytes32[]",
        "numberOfBytes": "32"
      },
      "t_array(t_uint256)49_storage": {
        "base": "t_uint256",
        "encoding": "inplace",
        "label": "uint256[49]",
        "numberOfBytes": "1568"
      },
      "t_array(t_uint256)50_storage": {
        "base": "t_uint256",
        "encoding": "inplace",
        "label": "uint256[50]",
        "numberOfBytes": "1600"
      },
      "t_bool": {
        "encoding": "inplace",
        "label": "bool",
        "numberOfBytes": "1"
      },
      "t_bytes32": {
        "encoding": "inplace",
        "label": "bytes32",
        "numberOfBytes": "32"
      },
      "t_contract(ITablelandTables)3777": {
        "encoding": "inplace",
        "label": "contract ITablelandTables",
        "numberOfBytes": "20"
      },
      "t_contract(ITind3rMatching)3910": {
        "encoding": "inplace",
        "label": "contract ITind3rMatching",
        "numberOfBytes": "20"
      },
      "t_int256": {
        "encoding": "inplace",
        "label": "int256",
        "numberOfBytes": "32"
      },
      "t_mapping(t_address,t_int256)": {
        "encoding": "mapping",
        "key": "t_address",
        "label": "mapping(address => int256)",
        "numberOfBytes": "32",
        "value": "t_int256"
      },
      "t_mapping(t_bytes32,t_uint256)": {
        "encoding": "mapping",
        "key": "t_bytes32",
        "label": "mapping(bytes32 => uint256)",
        "numberOfBytes": "32",
        "value": "t_uint256"
      },
      "t_mapping(t_uint256,t_struct(UintSet)3506_storage)": {
        "encoding": "mapping",
        "key": "t_uint256",
        "label": "mapping(uint256 => struct EnumerableSetUpgradeable.UintSet)",
        "numberOfBytes": "32",
        "value": "t_struct(UintSet)3506_storage"
      },
      "t_mapping(t_uint256,t_uint256)": {
        "encoding": "mapping",
        "key": "t_uint256",
        "label": "mapping(uint256 => uint256)",
        "numberOfBytes": "32",
        "value": "t_uint256"
      },
      "t_string_storage": {
        "encoding": "bytes",
        "label": "string",
        "numberOfBytes": "32"
      },
      "t_struct(Set)3048_storage": {
        "encoding": "inplace",
        "label": "struct EnumerableSetUpgradeable.Set",
        "members": [
          {
            "astId": 3043,
            "contract": "contracts/Tind3rMembership.sol:Tind3rMembership",
            "label": "_values",
            "offset": 0,
            "slot": "0",
            "type": "t_array(t_bytes32)dyn_storage"
          },
          {
            "astId": 3047,
            "contract": "contracts/Tind3rMembership.sol:Tind3rMembership",
            "label": "_indexes",
            "offset": 0,
            "slot": "1",
            "type": "t_mapping(t_bytes32,t_uint256)"
          }
        ],
        "numberOfBytes": "64"
      },
      "t_struct(UintSet)3506_storage": {
        "encoding": "inplace",
        "label": "struct EnumerableSetUpgradeable.UintSet",
        "members": [
          {
            "astId": 3505,
            "contract": "contracts/Tind3rMembership.sol:Tind3rMembership",
            "label": "_inner",
            "offset": 0,
            "slot": "0",
            "type": "t_struct(Set)3048_storage"
          }
        ],
        "numberOfBytes": "64"
      },
      "t_uint256": {
        "encoding": "inplace",
        "label": "uint256",
        "numberOfBytes": "32"
      },
      "t_uint8": {
        "encoding": "inplace",
        "label": "uint8",
        "numberOfBytes": "1"
      }
    }
  }
}