{
  "address": "0x9bc7C2CC790aA34eB72FAebd1AD2066BB194fC88",
  "abi": [
    {
      "inputs": [],
      "name": "AlreadyLike",
      "type": "error"
    },
    {
      "inputs": [],
      "name": "ApprovalCallerNotOwnerNorApproved",
      "type": "error"
    },
    {
      "inputs": [],
      "name": "ApprovalQueryForNonexistentToken",
      "type": "error"
    },
    {
      "inputs": [],
      "name": "ApproveToCaller",
      "type": "error"
    },
    {
      "inputs": [],
      "name": "BalanceQueryForZeroAddress",
      "type": "error"
    },
    {
      "inputs": [],
      "name": "CanNotTransfer",
      "type": "error"
    },
    {
      "inputs": [
        {
          "internalType": "uint256",
          "name": "chainid",
          "type": "uint256"
        }
      ],
      "name": "ChainNotSupported",
      "type": "error"
    },
    {
      "inputs": [],
      "name": "MintERC2309QuantityExceedsLimit",
      "type": "error"
    },
    {
      "inputs": [],
      "name": "MintToZeroAddress",
      "type": "error"
    },
    {
      "inputs": [],
      "name": "MintZeroQuantity",
      "type": "error"
    },
    {
      "inputs": [],
      "name": "NonExistentProfile",
      "type": "error"
    },
    {
      "inputs": [],
      "name": "OwnerQueryForNonexistentToken",
      "type": "error"
    },
    {
      "inputs": [],
      "name": "OwnershipNotInitializedForExtraData",
      "type": "error"
    },
    {
      "inputs": [],
      "name": "TransferCallerNotOwnerNorApproved",
      "type": "error"
    },
    {
      "inputs": [],
      "name": "TransferFromIncorrectOwner",
      "type": "error"
    },
    {
      "inputs": [],
      "name": "TransferToNonERC721ReceiverImplementer",
      "type": "error"
    },
    {
      "inputs": [],
      "name": "TransferToZeroAddress",
      "type": "error"
    },
    {
      "inputs": [],
      "name": "URIQueryForNonexistentToken",
      "type": "error"
    },
    {
      "anonymous": false,
      "inputs": [
        {
          "indexed": false,
          "internalType": "address",
          "name": "previousAdmin",
          "type": "address"
        },
        {
          "indexed": false,
          "internalType": "address",
          "name": "newAdmin",
          "type": "address"
        }
      ],
      "name": "AdminChanged",
      "type": "event"
    },
    {
      "anonymous": false,
      "inputs": [
        {
          "indexed": true,
          "internalType": "address",
          "name": "owner",
          "type": "address"
        },
        {
          "indexed": true,
          "internalType": "address",
          "name": "approved",
          "type": "address"
        },
        {
          "indexed": true,
          "internalType": "uint256",
          "name": "tokenId",
          "type": "uint256"
        }
      ],
      "name": "Approval",
      "type": "event"
    },
    {
      "anonymous": false,
      "inputs": [
        {
          "indexed": true,
          "internalType": "address",
          "name": "owner",
          "type": "address"
        },
        {
          "indexed": true,
          "internalType": "address",
          "name": "operator",
          "type": "address"
        },
        {
          "indexed": false,
          "internalType": "bool",
          "name": "approved",
          "type": "bool"
        }
      ],
      "name": "ApprovalForAll",
      "type": "event"
    },
    {
      "anonymous": false,
      "inputs": [
        {
          "indexed": true,
          "internalType": "address",
          "name": "beacon",
          "type": "address"
        }
      ],
      "name": "BeaconUpgraded",
      "type": "event"
    },
    {
      "anonymous": false,
      "inputs": [
        {
          "indexed": true,
          "internalType": "uint256",
          "name": "fromTokenId",
          "type": "uint256"
        },
        {
          "indexed": false,
          "internalType": "uint256",
          "name": "toTokenId",
          "type": "uint256"
        },
        {
          "indexed": true,
          "internalType": "address",
          "name": "from",
          "type": "address"
        },
        {
          "indexed": true,
          "internalType": "address",
          "name": "to",
          "type": "address"
        }
      ],
      "name": "ConsecutiveTransfer",
      "type": "event"
    },
    {
      "anonymous": false,
      "inputs": [
        {
          "indexed": true,
          "internalType": "uint256",
          "name": "tokenId",
          "type": "uint256"
        }
      ],
      "name": "DeleteProfile",
      "type": "event"
    },
    {
      "anonymous": false,
      "inputs": [
        {
          "indexed": false,
          "internalType": "uint8",
          "name": "version",
          "type": "uint8"
        }
      ],
      "name": "Initialized",
      "type": "event"
    },
    {
      "anonymous": false,
      "inputs": [
        {
          "indexed": true,
          "internalType": "uint256",
          "name": "tokenId",
          "type": "uint256"
        },
        {
          "indexed": false,
          "internalType": "string",
          "name": "name",
          "type": "string"
        },
        {
          "indexed": false,
          "internalType": "string",
          "name": "description",
          "type": "string"
        },
        {
          "indexed": false,
          "internalType": "string",
          "name": "image",
          "type": "string"
        }
      ],
      "name": "NewProfile",
      "type": "event"
    },
    {
      "anonymous": false,
      "inputs": [
        {
          "indexed": true,
          "internalType": "address",
          "name": "previousOwner",
          "type": "address"
        },
        {
          "indexed": true,
          "internalType": "address",
          "name": "newOwner",
          "type": "address"
        }
      ],
      "name": "OwnershipTransferred",
      "type": "event"
    },
    {
      "anonymous": false,
      "inputs": [
        {
          "indexed": true,
          "internalType": "address",
          "name": "from",
          "type": "address"
        },
        {
          "indexed": true,
          "internalType": "address",
          "name": "to",
          "type": "address"
        },
        {
          "indexed": true,
          "internalType": "uint256",
          "name": "tokenId",
          "type": "uint256"
        }
      ],
      "name": "Transfer",
      "type": "event"
    },
    {
      "anonymous": false,
      "inputs": [
        {
          "indexed": true,
          "internalType": "address",
          "name": "implementation",
          "type": "address"
        }
      ],
      "name": "Upgraded",
      "type": "event"
    },
    {
      "inputs": [
        {
          "internalType": "address",
          "name": "to",
          "type": "address"
        },
        {
          "internalType": "uint256",
          "name": "tokenId",
          "type": "uint256"
        }
      ],
      "name": "approve",
      "outputs": [],
      "stateMutability": "nonpayable",
      "type": "function"
    },
    {
      "inputs": [
        {
          "internalType": "address",
          "name": "owner",
          "type": "address"
        }
      ],
      "name": "balanceOf",
      "outputs": [
        {
          "internalType": "uint256",
          "name": "",
          "type": "uint256"
        }
      ],
      "stateMutability": "view",
      "type": "function"
    },
    {
      "inputs": [
        {
          "components": [
            {
              "internalType": "string",
              "name": "name",
              "type": "string"
            },
            {
              "internalType": "string",
              "name": "description",
              "type": "string"
            },
            {
              "internalType": "string",
              "name": "image",
              "type": "string"
            }
          ],
          "internalType": "struct Tind3rMembership.Tind3rProfile",
          "name": "userProfile",
          "type": "tuple"
        }
      ],
      "name": "createProfile",
      "outputs": [
        {
          "internalType": "uint256",
          "name": "",
          "type": "uint256"
        }
      ],
      "stateMutability": "nonpayable",
      "type": "function"
    },
    {
      "inputs": [
        {
          "internalType": "uint256",
          "name": "tokenId",
          "type": "uint256"
        }
      ],
      "name": "getApproved",
      "outputs": [
        {
          "internalType": "address",
          "name": "",
          "type": "address"
        }
      ],
      "stateMutability": "view",
      "type": "function"
    },
    {
      "inputs": [
        {
          "internalType": "address",
          "name": "user",
          "type": "address"
        }
      ],
      "name": "getUserId",
      "outputs": [
        {
          "internalType": "uint256",
          "name": "",
          "type": "uint256"
        }
      ],
      "stateMutability": "view",
      "type": "function"
    },
    {
      "inputs": [
        {
          "internalType": "string",
          "name": "initBaseURI",
          "type": "string"
        }
      ],
      "name": "initialize",
      "outputs": [],
      "stateMutability": "nonpayable",
      "type": "function"
    },
    {
      "inputs": [
        {
          "internalType": "address",
          "name": "owner",
          "type": "address"
        },
        {
          "internalType": "address",
          "name": "operator",
          "type": "address"
        }
      ],
      "name": "isApprovedForAll",
      "outputs": [
        {
          "internalType": "bool",
          "name": "",
          "type": "bool"
        }
      ],
      "stateMutability": "view",
      "type": "function"
    },
    {
      "inputs": [
        {
          "internalType": "address",
          "name": "user",
          "type": "address"
        }
      ],
      "name": "isTind3rMember",
      "outputs": [
        {
          "internalType": "bool",
          "name": "",
          "type": "bool"
        }
      ],
      "stateMutability": "view",
      "type": "function"
    },
    {
      "inputs": [
        {
          "internalType": "address",
          "name": "target",
          "type": "address"
        }
      ],
      "name": "like",
      "outputs": [],
      "stateMutability": "nonpayable",
      "type": "function"
    },
    {
      "inputs": [],
      "name": "matchingContract",
      "outputs": [
        {
          "internalType": "contract Tind3rMatching",
          "name": "",
          "type": "address"
        }
      ],
      "stateMutability": "view",
      "type": "function"
    },
    {
      "inputs": [],
      "name": "metadataURI",
      "outputs": [
        {
          "internalType": "string",
          "name": "",
          "type": "string"
        }
      ],
      "stateMutability": "view",
      "type": "function"
    },
    {
      "inputs": [],
      "name": "name",
      "outputs": [
        {
          "internalType": "string",
          "name": "",
          "type": "string"
        }
      ],
      "stateMutability": "view",
      "type": "function"
    },
    {
      "inputs": [],
      "name": "owner",
      "outputs": [
        {
          "internalType": "address",
          "name": "",
          "type": "address"
        }
      ],
      "stateMutability": "view",
      "type": "function"
    },
    {
      "inputs": [
        {
          "internalType": "uint256",
          "name": "tokenId",
          "type": "uint256"
        }
      ],
      "name": "ownerOf",
      "outputs": [
        {
          "internalType": "address",
          "name": "",
          "type": "address"
        }
      ],
      "stateMutability": "view",
      "type": "function"
    },
    {
      "inputs": [],
      "name": "prefixURI",
      "outputs": [
        {
          "internalType": "string",
          "name": "",
          "type": "string"
        }
      ],
      "stateMutability": "view",
      "type": "function"
    },
    {
      "inputs": [],
      "name": "proxiableUUID",
      "outputs": [
        {
          "internalType": "bytes32",
          "name": "",
          "type": "bytes32"
        }
      ],
      "stateMutability": "view",
      "type": "function"
    },
    {
      "inputs": [],
      "name": "renounceOwnership",
      "outputs": [],
      "stateMutability": "nonpayable",
      "type": "function"
    },
    {
      "inputs": [
        {
          "internalType": "address",
          "name": "from",
          "type": "address"
        },
        {
          "internalType": "address",
          "name": "to",
          "type": "address"
        },
        {
          "internalType": "uint256",
          "name": "tokenId",
          "type": "uint256"
        }
      ],
      "name": "safeTransferFrom",
      "outputs": [],
      "stateMutability": "nonpayable",
      "type": "function"
    },
    {
      "inputs": [
        {
          "internalType": "address",
          "name": "from",
          "type": "address"
        },
        {
          "internalType": "address",
          "name": "to",
          "type": "address"
        },
        {
          "internalType": "uint256",
          "name": "tokenId",
          "type": "uint256"
        },
        {
          "internalType": "bytes",
          "name": "_data",
          "type": "bytes"
        }
      ],
      "name": "safeTransferFrom",
      "outputs": [],
      "stateMutability": "nonpayable",
      "type": "function"
    },
    {
      "inputs": [
        {
          "internalType": "address",
          "name": "operator",
          "type": "address"
        },
        {
          "internalType": "bool",
          "name": "approved",
          "type": "bool"
        }
      ],
      "name": "setApprovalForAll",
      "outputs": [],
      "stateMutability": "nonpayable",
      "type": "function"
    },
    {
      "inputs": [
        {
          "internalType": "string",
          "name": "newBaseURI",
          "type": "string"
        }
      ],
      "name": "setBaseURI",
      "outputs": [],
      "stateMutability": "nonpayable",
      "type": "function"
    },
    {
      "inputs": [
        {
          "internalType": "address",
          "name": "newController",
          "type": "address"
        }
      ],
      "name": "setController",
      "outputs": [],
      "stateMutability": "nonpayable",
      "type": "function"
    },
    {
      "inputs": [
        {
          "internalType": "contract Tind3rMatching",
          "name": "_matchingContract",
          "type": "address"
        }
      ],
      "name": "setMatchingContract",
      "outputs": [],
      "stateMutability": "nonpayable",
      "type": "function"
    },
    {
      "inputs": [
        {
          "internalType": "bytes4",
          "name": "interfaceId",
          "type": "bytes4"
        }
      ],
      "name": "supportsInterface",
      "outputs": [
        {
          "internalType": "bool",
          "name": "",
          "type": "bool"
        }
      ],
      "stateMutability": "view",
      "type": "function"
    },
    {
      "inputs": [],
      "name": "symbol",
      "outputs": [
        {
          "internalType": "string",
          "name": "",
          "type": "string"
        }
      ],
      "stateMutability": "view",
      "type": "function"
    },
    {
      "inputs": [
        {
          "internalType": "uint256",
          "name": "tokenId",
          "type": "uint256"
        }
      ],
      "name": "tokenURI",
      "outputs": [
        {
          "internalType": "string",
          "name": "",
          "type": "string"
        }
      ],
      "stateMutability": "view",
      "type": "function"
    },
    {
      "inputs": [],
      "name": "totalSupply",
      "outputs": [
        {
          "internalType": "uint256",
          "name": "",
          "type": "uint256"
        }
      ],
      "stateMutability": "view",
      "type": "function"
    },
    {
      "inputs": [
        {
          "internalType": "address",
          "name": "from",
          "type": "address"
        },
        {
          "internalType": "address",
          "name": "to",
          "type": "address"
        },
        {
          "internalType": "uint256",
          "name": "tokenId",
          "type": "uint256"
        }
      ],
      "name": "transferFrom",
      "outputs": [],
      "stateMutability": "nonpayable",
      "type": "function"
    },
    {
      "inputs": [
        {
          "internalType": "address",
          "name": "newOwner",
          "type": "address"
        }
      ],
      "name": "transferOwnership",
      "outputs": [],
      "stateMutability": "nonpayable",
      "type": "function"
    },
    {
      "inputs": [
        {
          "components": [
            {
              "internalType": "string",
              "name": "name",
              "type": "string"
            },
            {
              "internalType": "string",
              "name": "description",
              "type": "string"
            },
            {
              "internalType": "string",
              "name": "image",
              "type": "string"
            }
          ],
          "internalType": "struct Tind3rMembership.Tind3rProfile",
          "name": "newProfile",
          "type": "tuple"
        }
      ],
      "name": "updateProfile",
      "outputs": [
        {
          "internalType": "uint256",
          "name": "",
          "type": "uint256"
        }
      ],
      "stateMutability": "nonpayable",
      "type": "function"
    },
    {
      "inputs": [
        {
          "internalType": "address",
          "name": "newImplementation",
          "type": "address"
        }
      ],
      "name": "upgradeTo",
      "outputs": [],
      "stateMutability": "nonpayable",
      "type": "function"
    },
    {
      "inputs": [
        {
          "internalType": "address",
          "name": "newImplementation",
          "type": "address"
        },
        {
          "internalType": "bytes",
          "name": "data",
          "type": "bytes"
        }
      ],
      "name": "upgradeToAndCall",
      "outputs": [],
      "stateMutability": "payable",
      "type": "function"
    },
    {
      "inputs": [
        {
          "internalType": "uint256",
          "name": "startId",
          "type": "uint256"
        },
        {
          "internalType": "uint256",
          "name": "endId",
          "type": "uint256"
        }
      ],
      "name": "userList",
      "outputs": [
        {
          "internalType": "string",
          "name": "",
          "type": "string"
        }
      ],
      "stateMutability": "view",
      "type": "function"
    }
  ],
  "numDeployments": 16,
  "bytecode": "0x60a06040523060805234801561001457600080fd5b5060805161361b61004c60003960008181610c2e01528181610c7701528181610d3701528181610d770152610e0a015261361b6000f3fe6080604052600436106101ee5760003560e01c80636352211e1161010d578063a3f58fc4116100a0578063de9b05911161006f578063de9b059114610561578063e465c46514610581578063e985e9c5146105a1578063f2fde38b146105c1578063f62d1888146105e157600080fd5b8063a3f58fc4146104e1578063ae2349de14610501578063b88d4fde14610521578063c87b56dd1461054157600080fd5b806392eefe9b116100dc57806392eefe9b1461047757806395d89b4114610497578063a0c54078146104ac578063a22cb465146104c157600080fd5b80636352211e1461040457806370a0823114610424578063715018a6146104445780638da5cb5b1461045957600080fd5b806323b872dd116101855780634f1ef286116101545780634f1ef2861461039c57806352d1902d146103af57806353964b19146103c457806355f804b3146103e457600080fd5b806323b872dd1461031c5780632b956ff71461033c5780633659cfe61461035c57806342842e0e1461037c57600080fd5b8063095ea7b3116101c1578063095ea7b31461029757806318160ddd146102b95780631e88e319146102dc5780632182d9d7146102fc57600080fd5b806301ffc9a7146101f357806303ee438c1461022857806306fdde031461024a578063081812fc1461025f575b600080fd5b3480156101ff57600080fd5b5061021361020e366004612803565b610601565b60405190151581526020015b60405180910390f35b34801561023457600080fd5b5061023d610653565b60405161021f9190612878565b34801561025657600080fd5b5061023d6106a8565b34801561026b57600080fd5b5061027f61027a36600461288b565b610743565b6040516001600160a01b03909116815260200161021f565b3480156102a357600080fd5b506102b76102b23660046128b9565b610790565b005b3480156102c557600080fd5b506102ce61083e565b60405190815260200161021f565b3480156102e857600080fd5b506102ce6102f73660046128e5565b61085d565b34801561030857600080fd5b506102b7610317366004612920565b6109bb565b34801561032857600080fd5b506102b761033736600461293d565b6109e5565b34801561034857600080fd5b506102ce610357366004612920565b610be2565b34801561036857600080fd5b506102b7610377366004612920565b610c23565b34801561038857600080fd5b506102b761039736600461293d565b610d0c565b6102b76103aa366004612a21565b610d2c565b3480156103bb57600080fd5b506102ce610dfd565b3480156103d057600080fd5b5060cd5461027f906001600160a01b031681565b3480156103f057600080fd5b506102b76103ff366004612a71565b610eb0565b34801561041057600080fd5b5061027f61041f36600461288b565b610ec4565b34801561043057600080fd5b506102ce61043f366004612920565b610ecf565b34801561045057600080fd5b506102b7610f38565b34801561046557600080fd5b506097546001600160a01b031661027f565b34801561048357600080fd5b506102b7610492366004612920565b610f4c565b3480156104a357600080fd5b5061023d610fc7565b3480156104b857600080fd5b5061023d610fdf565b3480156104cd57600080fd5b506102b76104dc366004612ae3565b61101f565b3480156104ed57600080fd5b506102136104fc366004612920565b6110c6565b34801561050d57600080fd5b5061023d61051c366004612b21565b6110d9565b34801561052d57600080fd5b506102b761053c366004612b43565b611147565b34801561054d57600080fd5b5061023d61055c36600461288b565b611191565b34801561056d57600080fd5b506102ce61057c3660046128e5565b611217565b34801561058d57600080fd5b506102b761059c366004612920565b61134a565b3480156105ad57600080fd5b506102136105bc366004612baf565b6113f5565b3480156105cd57600080fd5b506102b76105dc366004612920565b611432565b3480156105ed57600080fd5b506102b76105fc366004612a71565b6114a8565b60006301ffc9a760e01b6001600160e01b03198316148061063257506380ac58cd60e01b6001600160e01b03198316145b8061064d5750635b5e139f60e01b6001600160e01b03198316145b92915050565b6060600061065f61188c565b905080516000141561067f57505060408051602081019091526000815290565b8060ca604051602001610693929190612cb2565b60405160208183030381529060405291505090565b60606106b261189b565b60020180546106c090612bdd565b80601f01602080910402602001604051908101604052809291908181526020018280546106ec90612bdd565b80156107395780601f1061070e57610100808354040283529160200191610739565b820191906000526020600020905b81548152906001019060200180831161071c57829003601f168201915b5050505050905090565b600061074e826118bf565b61076b576040516333d1c03960e21b815260040160405180910390fd5b61077361189b565b60009283526006016020525060409020546001600160a01b031690565b600061079b82610ec4565b9050336001600160a01b038216146107d4576107b781336113f5565b6107d4576040516367d9dca160e11b815260040160405180910390fd5b826107dd61189b565b6000848152600691909101602052604080822080546001600160a01b0319166001600160a01b0394851617905551849286811692908516917f8c5be1e5ebec7d5bd14f71427d1e84f3dd0314c0f7b2291e5b200ac8c7c3b9259190a4505050565b60008061084961189b565b6001015461085561189b565b540303919050565b600033816108696118fb565b60c95460cb549192506001600160a01b03169063eaf5d04e90309060ca61088f8661190b565b6108a1886001600160a01b0316611a11565b6108ab8b80612cf8565b6108b860208e018e612cf8565b8e80604001906108c89190612cf8565b6040516020016108e099989796959493929190612d55565b6040516020818303038152906040526040518463ffffffff1660e01b815260040161090d93929190612e56565b600060405180830381600087803b15801561092757600080fd5b505af115801561093b573d6000803e3d6000fd5b5050505061094a826001611a27565b6109548282611a41565b807f12225c2549977681619cd7fc7e95a20e224e85d912926c995db1b10ffb4cfdeb6109808680612cf8565b61098d6020890189612cf8565b61099a60408b018b612cf8565b6040516109ac96959493929190612ea6565b60405180910390a29392505050565b6109c3611aaa565b60cd80546001600160a01b0319166001600160a01b0392909216919091179055565b60006109f082611b04565b9050836001600160a01b0316816001600160a01b031614610a235760405162a1148160e81b815260040160405180910390fd5b600080610a2f84611b92565b91509150610a548187610a3f3390565b6001600160a01b039081169116811491141790565b610a7f57610a6286336113f5565b610a7f57604051632ce44b5f60e11b815260040160405180910390fd5b6001600160a01b038516610aa657604051633a954ecd60e21b815260040160405180910390fd5b610ab38686866001611bba565b8015610abe57600082555b610ac661189b565b6001600160a01b0387166000908152600591909101602052604090208054600019019055610af261189b565b6001600160a01b03861660008181526005929092016020526040909120805460010190554260a01b17600160e11b17610b2961189b565b60008681526004919091016020526040902055600160e11b8316610b985760018401610b5361189b565b60008281526004919091016020526040902054610b9657610b7261189b565b548114610b965783610b8261189b565b600083815260049190910160205260409020555b505b83856001600160a01b0316876001600160a01b03167fddf252ad1be2c89b69c2b068fc378daa952ba7f163c4a11628f55a4df523b3ef60405160405180910390a45b505050505050565b6000610bed82610ecf565b610c0a57604051631dbbc24b60e21b815260040160405180910390fd5b610c1382611bfd565b67ffffffffffffffff1692915050565b306001600160a01b037f0000000000000000000000000000000000000000000000000000000000000000161415610c755760405162461bcd60e51b8152600401610c6c90612eef565b60405180910390fd5b7f00000000000000000000000000000000000000000000000000000000000000006001600160a01b0316610cbe60008051602061357f833981519152546001600160a01b031690565b6001600160a01b031614610ce45760405162461bcd60e51b8152600401610c6c90612f3b565b610ced81611c30565b60408051600080825260208201909252610d0991839190611c38565b50565b610d2783838360405180602001604052806000815250611147565b505050565b306001600160a01b037f0000000000000000000000000000000000000000000000000000000000000000161415610d755760405162461bcd60e51b8152600401610c6c90612eef565b7f00000000000000000000000000000000000000000000000000000000000000006001600160a01b0316610dbe60008051602061357f833981519152546001600160a01b031690565b6001600160a01b031614610de45760405162461bcd60e51b8152600401610c6c90612f3b565b610ded82611c30565b610df982826001611c38565b5050565b6000306001600160a01b037f00000000000000000000000000000000000000000000000000000000000000001614610e9d5760405162461bcd60e51b815260206004820152603860248201527f555550535570677261646561626c653a206d757374206e6f742062652063616c60448201527f6c6564207468726f7567682064656c656761746563616c6c00000000000000006064820152608401610c6c565b5060008051602061357f83398151915290565b610eb8611aaa565b610d2760cc83836126e0565b600061064d82611b04565b60006001600160a01b038216610ef8576040516323d3ad8160e21b815260040160405180910390fd5b67ffffffffffffffff610f0961189b565b6005016000846001600160a01b03166001600160a01b0316815260200190815260200160002054169050919050565b610f40611aaa565b610f4a6000611da3565b565b610f54611aaa565b60c95460cb54604051638bb0ab9760e01b815230600482015260248101919091526001600160a01b03838116604483015290911690638bb0ab9790606401600060405180830381600087803b158015610fac57600080fd5b505af1158015610fc0573d6000803e3d6000fd5b5050505050565b6060610fd161189b565b60030180546106c090612bdd565b60606000610feb61188c565b905080516000141561100b57505060408051602081019091526000815290565b8060ca604051602001610693929190612f87565b6001600160a01b0382163314156110495760405163b06307db60e01b815260040160405180910390fd5b8061105261189b565b336000818152600792909201602090815260408084206001600160a01b03881680865290835293819020805460ff19169515159590951790945592518415158152919290917f17307eab39ab6107e8899845ad3d59bd9653f200f220920489ca2b5937696c31910160405180910390a35050565b6000806110d283610ecf565b1192915050565b606060006110e561188c565b905080516000141561110757505060408051602081019091526000815261064d565b8060ca6111138661190b565b61111c8661190b565b60405160200161112f949392919061309a565b60405160208183030381529060405291505092915050565b6111528484846109e5565b6001600160a01b0383163b1561118b5761116e84848484611df5565b61118b576040516368d2bf6b60e11b815260040160405180910390fd5b50505050565b606061119c826118bf565b6111b957604051630a14c4b560e41b815260040160405180910390fd5b60006111c3610fdf565b90508051600014156111e5575050604080516020810190915260008152919050565b806111ef8461190b565b604051602001611200929190613147565b604051602081830303815290604052915050919050565b600033600161122582610ecf565b101561124457604051631dbbc24b60e21b815260040160405180910390fd5b600061124f82611bfd565b60c95460cb5467ffffffffffffffff9290921692506001600160a01b03169063eaf5d04e90309060ca6112828980612cf8565b61128f60208c018c612cf8565b61129c60408e018e612cf8565b6112a58c61190b565b6040516020016112bc989796959493929190613176565b6040516020818303038152906040526040518463ffffffff1660e01b81526004016112e993929190612e56565b600060405180830381600087803b15801561130357600080fd5b505af1158015611317573d6000803e3d6000fd5b508392507f12225c2549977681619cd7fc7e95a20e224e85d912926c995db1b10ffb4cfdeb915061098090508680612cf8565b336113558183611edd565b61135f8282611f4f565b15610df95760cd546001600160a01b0316633c173a4f8261137f81610be2565b8561138987610be2565b6040516001600160e01b031960e087901b1681526001600160a01b0394851660048201526024810193909352921660448201526064810191909152608401600060405180830381600087803b1580156113e157600080fd5b505af1158015610bda573d6000803e3d6000fd5b60006113ff61189b565b6001600160a01b039384166000908152600791909101602090815260408083209490951682529290925250205460ff1690565b61143a611aaa565b6001600160a01b03811661149f5760405162461bcd60e51b815260206004820152602660248201527f4f776e61626c653a206e6577206f776e657220697320746865207a65726f206160448201526564647265737360d01b6064820152608401610c6c565b610d0981611da3565b6000805160206135c683398151915254610100900460ff166114dd576000805160206135c68339815191525460ff16156114e1565b303b155b6115535760405162461bcd60e51b815260206004820152603760248201527f455243373231415f5f496e697469616c697a61626c653a20636f6e747261637460448201527f20697320616c726561647920696e697469616c697a65640000000000000000006064820152608401610c6c565b6000805160206135c683398151915254610100900460ff1615801561158f576000805160206135c6833981519152805461ffff19166101011790555b600054610100900460ff16158080156115af5750600054600160ff909116105b806115c95750303b1580156115c9575060005460ff166001145b61162c5760405162461bcd60e51b815260206004820152602e60248201527f496e697469616c697a61626c653a20636f6e747261637420697320616c72656160448201526d191e481a5b9a5d1a585b1a5e995960921b6064820152608401610c6c565b6000805460ff19166001179055801561164f576000805461ff0019166101001790555b61169c6040518060400160405280601081526020016f054696e6433724d656d626572736869760841b8152506040518060400160405280600381526020016254334d60e81b815250611f97565b6116a4611fd5565b6116ac612004565b6116b461202b565b60c980546001600160a01b0319166001600160a01b039290921691909117905560006116df4661190b565b60c9546040805180820182526011815270074696e6433725f6d656d6265727368697607c1b60208083019190915291519394506001600160a01b0390921692633a9151b092309261173292879101613237565b6040516020818303038152906040526040518363ffffffff1660e01b815260040161175e9291906132e8565b6020604051808303816000875af115801561177d573d6000803e3d6000fd5b505050506040513d601f19601f820116820180604052508101906117a1919061330c565b60cb8190555060405180604001604052806011815260200170074696e6433725f6d656d6265727368697607c1b815250816117dd60cb5461190b565b6040516020016117ef93929190613325565b60405160208183030381529060405260ca9080519060200190611813929190612764565b5061182060cc86866126e0565b50508015611868576000805461ff0019169055604051600181527f7f26b83ff96e1f2b6a682f133852f6798a09c465da95921460cefb38474024989060200160405180910390a15b508015610d275750506000805160206135c6833981519152805461ff001916905550565b606060cc80546106c090612bdd565b7f2569078dfb4b0305704d3008e7403993ae9601b85f7ae5e742de3de8f8011c4090565b60006118c961189b565b548210801561064d5750600160e01b6118e061189b565b60008481526004919091016020526040902054161592915050565b600061190561189b565b54919050565b60608161192f5750506040805180820190915260018152600360fc1b602082015290565b8160005b8115611959578061194381613395565b91506119529050600a836133c6565b9150611933565b60008167ffffffffffffffff8111156119745761197461297e565b6040519080825280601f01601f19166020018201604052801561199e576020820181803683370190505b5090505b8415611a09576119b36001836133da565b91506119c0600a866133f1565b6119cb906030613405565b60f81b8183815181106119e0576119e061341d565b60200101906001600160f81b031916908160001a905350611a02600a866133c6565b94506119a2565b949350505050565b606061064d6001600160a01b03831660146120d3565b610df982826040518060200160405280600081525061226f565b6000611a4b61189b565b6001600160a01b038416600090815260059190910160205260409020546001600160c01b031660c083901b1790508181611a8361189b565b6001600160a01b039095166000908152600595909501602052604090942093909355505050565b6097546001600160a01b03163314610f4a5760405162461bcd60e51b815260206004820181905260248201527f4f776e61626c653a2063616c6c6572206973206e6f7420746865206f776e65726044820152606401610c6c565b600081611b0f61189b565b54811015611b79576000611b2161189b565b600083815260049190910160205260409020549050600160e01b8116611b77575b80611b7057611b4f61189b565b60001990920160008181526004939093016020526040909220549050611b42565b9392505050565b505b604051636f96cda160e11b815260040160405180910390fd5b6000806000611b9f61189b565b60009485526006016020525050604090912080549092909150565b6001600160a01b03841615801590611bda57506001600160a01b03831615155b15611bf857604051631b5722f560e01b815260040160405180910390fd5b61118b565b600060c0611c0961189b565b6001600160a01b03909316600090815260059390930160205260409092205490911c919050565b610d09611aaa565b7f4910fdfa16fed3260ed0e7147f7cc6da11a60208b5b9406d12a635614ffd91435460ff1615611c6b57610d27836122e5565b826001600160a01b03166352d1902d6040518163ffffffff1660e01b8152600401602060405180830381865afa925050508015611cc5575060408051601f3d908101601f19168201909252611cc29181019061330c565b60015b611d285760405162461bcd60e51b815260206004820152602e60248201527f45524331393637557067726164653a206e657720696d706c656d656e7461746960448201526d6f6e206973206e6f74205555505360901b6064820152608401610c6c565b60008051602061357f8339815191528114611d975760405162461bcd60e51b815260206004820152602960248201527f45524331393637557067726164653a20756e737570706f727465642070726f786044820152681a58589b195555525160ba1b6064820152608401610c6c565b50610d27838383612381565b609780546001600160a01b038381166001600160a01b0319831681179093556040519116919082907f8be0079c531659141344cd1fd0a4f28419497f9722a3daafe3b4186f6b6457e090600090a35050565b604051630a85bd0160e11b81526000906001600160a01b0385169063150b7a0290611e2a903390899088908890600401613433565b6020604051808303816000875af1925050508015611e65575060408051601f3d908101601f19168201909252611e6291810190613470565b60015b611ec0573d808015611e93576040519150601f19603f3d011682016040523d82523d6000602084013e611e98565b606091505b508051611eb8576040516368d2bf6b60e11b815260040160405180910390fd5b805181602001fd5b6001600160e01b031916630a85bd0160e11b149050949350505050565b6000611ee883610be2565b90506000611ef583610be2565b90506000611f0782604085901b613405565b600081815260ce602052604090205490915015611f37576040516339981d3560e01b815260040160405180910390fd5b600090815260ce602052604090206001905550505050565b600080611f5b84610be2565b90506000611f6884610be2565b9050600060ce81611f7d84604087901b613405565b815260200190815260200160002054119250505092915050565b6000805160206135c683398151915254610100900460ff16611fcb5760405162461bcd60e51b8152600401610c6c9061348d565b610df982826123a6565b600054610100900460ff16611ffc5760405162461bcd60e51b8152600401610c6c906134e1565b610f4a612429565b600054610100900460ff16610f4a5760405162461bcd60e51b8152600401610c6c906134e1565b6000466005141561204f575073da8ea22d092307874f30a1f277d1388dca0ba97a90565b4660451415612071575073f2c9fc73884a9c6e6db58778176ab67989139d0690565b466201388114156120955750734b48841d4b32c4650e4abc117a03fe8b51f38f6890565b46617a6914156120b8575073e7f1725e7734ce288f8367e1bb143e90bb3f051290565b60405163264e42cf60e01b8152466004820152602401610c6c565b606060006120e283600261352c565b6120ed906002613405565b67ffffffffffffffff8111156121055761210561297e565b6040519080825280601f01601f19166020018201604052801561212f576020820181803683370190505b509050600360fc1b8160008151811061214a5761214a61341d565b60200101906001600160f81b031916908160001a905350600f60fb1b816001815181106121795761217961341d565b60200101906001600160f81b031916908160001a905350600061219d84600261352c565b6121a8906001613405565b90505b6001811115612220576f181899199a1a9b1b9c1cb0b131b232b360811b85600f16601081106121dc576121dc61341d565b1a60f81b8282815181106121f2576121f261341d565b60200101906001600160f81b031916908160001a90535060049490941c936122198161354b565b90506121ab565b508315611b705760405162461bcd60e51b815260206004820181905260248201527f537472696e67733a20686578206c656e67746820696e73756666696369656e746044820152606401610c6c565b6122798383612459565b6001600160a01b0383163b15610d2757600061229361189b565b5490508281035b6122ad6000868380600101945086611df5565b6122ca576040516368d2bf6b60e11b815260040160405180910390fd5b81811061229a57816122da61189b565b5414610fc057600080fd5b6001600160a01b0381163b6123525760405162461bcd60e51b815260206004820152602d60248201527f455243313936373a206e657720696d706c656d656e746174696f6e206973206e60448201526c1bdd08184818dbdb9d1c9858dd609a1b6064820152608401610c6c565b60008051602061357f83398151915280546001600160a01b0319166001600160a01b0392909216919091179055565b61238a83612573565b6000825111806123975750805b15610d275761118b83836125b3565b6000805160206135c683398151915254610100900460ff166123da5760405162461bcd60e51b8152600401610c6c9061348d565b816123e361189b565b60020190805190602001906123f9929190612764565b508061240361189b565b6003019080519060200190612419929190612764565b50600061242461189b565b555050565b600054610100900460ff166124505760405162461bcd60e51b8152600401610c6c906134e1565b610f4a33611da3565b600061246361189b565b5490506001600160a01b03831661248c57604051622e076360e81b815260040160405180910390fd5b816124aa5760405163b562e8dd60e01b815260040160405180910390fd5b6124b76000848385611bba565b6801000000000000000182026124cb61189b565b6001600160a01b038516600081815260059290920160205260409091208054929092019091554260a01b6001841460e11b171761250661189b565b60008381526004919091016020526040902055808281015b6040516001830192906001600160a01b038716906000907fddf252ad1be2c89b69c2b068fc378daa952ba7f163c4a11628f55a4df523b3ef908290a480821061251e578061256a61189b565b5550610d279050565b61257c816122e5565b6040516001600160a01b038216907fbc7cd75a20ee27fd9adebab32041f755214dbc6bffa90cc0225b39da2e5c2d3b90600090a250565b60606001600160a01b0383163b61261b5760405162461bcd60e51b815260206004820152602660248201527f416464726573733a2064656c65676174652063616c6c20746f206e6f6e2d636f6044820152651b9d1c9858dd60d21b6064820152608401610c6c565b600080846001600160a01b0316846040516126369190613562565b600060405180830381855af49150503d8060008114612671576040519150601f19603f3d011682016040523d82523d6000602084013e612676565b606091505b509150915061269e828260405180606001604052806027815260200161359f602791396126a7565b95945050505050565b606083156126b6575081611b70565b8251156126c65782518084602001fd5b8160405162461bcd60e51b8152600401610c6c9190612878565b8280546126ec90612bdd565b90600052602060002090601f01602090048101928261270e5760008555612754565b82601f106127275782800160ff19823516178555612754565b82800160010185558215612754579182015b82811115612754578235825591602001919060010190612739565b506127609291506127d8565b5090565b82805461277090612bdd565b90600052602060002090601f0160209004810192826127925760008555612754565b82601f106127ab57805160ff1916838001178555612754565b82800160010185558215612754579182015b828111156127545782518255916020019190600101906127bd565b5b8082111561276057600081556001016127d9565b6001600160e01b031981168114610d0957600080fd5b60006020828403121561281557600080fd5b8135611b70816127ed565b60005b8381101561283b578181015183820152602001612823565b8381111561118b5750506000910152565b60008151808452612864816020860160208601612820565b601f01601f19169290920160200192915050565b602081526000611b70602083018461284c565b60006020828403121561289d57600080fd5b5035919050565b6001600160a01b0381168114610d0957600080fd5b600080604083850312156128cc57600080fd5b82356128d7816128a4565b946020939093013593505050565b6000602082840312156128f757600080fd5b813567ffffffffffffffff81111561290e57600080fd5b820160608185031215611b7057600080fd5b60006020828403121561293257600080fd5b8135611b70816128a4565b60008060006060848603121561295257600080fd5b833561295d816128a4565b9250602084013561296d816128a4565b929592945050506040919091013590565b634e487b7160e01b600052604160045260246000fd5b600082601f8301126129a557600080fd5b813567ffffffffffffffff808211156129c0576129c061297e565b604051601f8301601f19908116603f011681019082821181831017156129e8576129e861297e565b81604052838152866020858801011115612a0157600080fd5b836020870160208301376000602085830101528094505050505092915050565b60008060408385031215612a3457600080fd5b8235612a3f816128a4565b9150602083013567ffffffffffffffff811115612a5b57600080fd5b612a6785828601612994565b9150509250929050565b60008060208385031215612a8457600080fd5b823567ffffffffffffffff80821115612a9c57600080fd5b818501915085601f830112612ab057600080fd5b813581811115612abf57600080fd5b866020828501011115612ad157600080fd5b60209290920196919550909350505050565b60008060408385031215612af657600080fd5b8235612b01816128a4565b915060208301358015158114612b1657600080fd5b809150509250929050565b60008060408385031215612b3457600080fd5b50508035926020909101359150565b60008060008060808587031215612b5957600080fd5b8435612b64816128a4565b93506020850135612b74816128a4565b925060408501359150606085013567ffffffffffffffff811115612b9757600080fd5b612ba387828801612994565b91505092959194509250565b60008060408385031215612bc257600080fd5b8235612bcd816128a4565b91506020830135612b16816128a4565b600181811c90821680612bf157607f821691505b60208210811415612c1257634e487b7160e01b600052602260045260246000fd5b50919050565b8054600090600181811c9080831680612c3257607f831692505b6020808410821415612c5457634e487b7160e01b600052602260045260246000fd5b818015612c685760018114612c7957612ca6565b60ff19861689528489019650612ca6565b60008881526020902060005b86811015612c9e5781548b820152908501908301612c85565b505084890196505b50505050505092915050565b60008351612cc4818460208801612820565b7f6d6f64653d6c69737426733d53454c4543542b2a2b46524f4d2b00000000000090830190815261269e601a820185612c18565b6000808335601e19843603018112612d0f57600080fd5b83018035915067ffffffffffffffff821115612d2a57600080fd5b602001915036819003821315612d3f57600080fd5b9250929050565b81818437506000910190815290565b6b024a729a2a92a1024a72a27960a51b81526000612d76600c83018c612c18565b7f202869642c206f776e65722c206e616d652c206465736372697074696f6e2c2081526e0d2dac2ceca5240ac8298aa8aa6405608b1b60208201528a51612dc481602f840160208f01612820565b622c202760e81b602f92909101918201528951612de8816032840160208e01612820565b63272c202760e01b603292909101918201528789603683013763272c202760e01b603691890191820152612e20603a82018789612d46565b63272c202760e01b81529050612e3a600482018587612d46565b6227293b60e81b81526003019c9b505050505050505050505050565b60018060a01b038416815282602082015260606040820152600061269e606083018461284c565b81835281816020850137506000828201602090810191909152601f909101601f19169091010190565b606081526000612eba60608301888a612e7d565b8281036020840152612ecd818789612e7d565b90508281036040840152612ee2818587612e7d565b9998505050505050505050565b6020808252602c908201527f46756e6374696f6e206d7573742062652063616c6c6564207468726f7567682060408201526b19195b1959d85d1958d85b1b60a21b606082015260800190565b6020808252602c908201527f46756e6374696f6e206d7573742062652063616c6c6564207468726f7567682060408201526b6163746976652070726f787960a01b606082015260800190565b60008351612f99818460208801612820565b6936b7b2329eb634b9ba1360b11b90830190815268733d53454c4543542b60b81b600a8201526d0d4e6dedcbedec4d4cac6e84a64760931b60138201526f2532376964253237253243696425324360801b6021820152732532376e616d652532372532436e616d6525324360601b60318201527f2532376465736372697074696f6e2532372532436465736372697074696f6e25604582015261324360f01b60658201527f253237696d616765253237253243696d6167652532392b00000000000000000060678201526446524f4d2b60d81b607e82015261307e6083820185612c18565b692b57484552452b69643d60b01b8152600a0195945050505050565b600085516130ac818460208a01612820565b6936b7b2329eb634b9ba1360b11b90830190815273733d53454c4543542b6f776e65722b46524f4d2b60601b600a8201526130ea601e820187612c18565b90506a2b57484552452b69643e3d60a81b8152845161311081600b840160208901612820565b670ad053910ada590f60c21b600b92909101918201528351613139816013840160208801612820565b016013019695505050505050565b60008351613159818460208801612820565b83519083019061316d818360208801612820565b01949350505050565b6602aa82220aa22960cd1b81526000613192600783018b612c18565b6a20534554206e616d653d2760a81b8152888a600b8301376f272c206465736372697074696f6e3d2760801b600b918a01918201528688601b83013769272c20696d6167653d2760b01b601b91880191820152848660258301376a272057484552452069643d60a81b6025918601918201528351613217816030840160208801612820565b603b60f81b603092909101918201526031019a9950505050505050505050565b6c021a922a0aa22902a20a126229609d1b81526000835161325f81600d850160208801612820565b605f60f81b600d91840191820152835161328081600e840160208801612820565b7f2028696420696e74656765722c206f776e657220746578742c206e616d652074600e92909101918201527f6578742c206465736372697074696f6e20746578742c20696d61676520746578602e8201526274293b60e81b604e820152605101949350505050565b6001600160a01b0383168152604060208201819052600090611a099083018461284c565b60006020828403121561331e57600080fd5b5051919050565b60008451613337818460208901612820565b8083019050605f60f81b8082528551613357816001850160208a01612820565b60019201918201528351613372816002840160208801612820565b0160020195945050505050565b634e487b7160e01b600052601160045260246000fd5b60006000198214156133a9576133a961337f565b5060010190565b634e487b7160e01b600052601260045260246000fd5b6000826133d5576133d56133b0565b500490565b6000828210156133ec576133ec61337f565b500390565b600082613400576134006133b0565b500690565b600082198211156134185761341861337f565b500190565b634e487b7160e01b600052603260045260246000fd5b6001600160a01b03858116825284166020820152604081018390526080606082018190526000906134669083018461284c565b9695505050505050565b60006020828403121561348257600080fd5b8151611b70816127ed565b60208082526034908201527f455243373231415f5f496e697469616c697a61626c653a20636f6e7472616374604082015273206973206e6f7420696e697469616c697a696e6760601b606082015260800190565b6020808252602b908201527f496e697469616c697a61626c653a20636f6e7472616374206973206e6f74206960408201526a6e697469616c697a696e6760a81b606082015260800190565b60008160001904831182151516156135465761354661337f565b500290565b60008161355a5761355a61337f565b506000190190565b60008251613574818460208701612820565b919091019291505056fe360894a13ba1a3210667c828492db98dca3e2076cc3735a920a3ca505d382bbc416464726573733a206c6f772d6c6576656c2064656c65676174652063616c6c206661696c6564ee151c8401928dc223602bb187aff91b9a56c7cae5476ef1b3287b085a16c85fa26469706673582212208ef311b0214e73636ca79e5620c55d1974db68f2c193a23d4d040439b643a29564736f6c634300080c0033"
}